{
    "contractName": "DLV_Network",
    "abi": [
        {
            "inputs": [
                {
                    "internalType": "contract DLVToken",
                    "name": "_token",
                    "type": "address"
                }
            ],
            "stateMutability": "payable",
            "type": "constructor"
        },
        {
            "anonymous": false,
            "inputs": [
                {
                    "indexed": false,
                    "internalType": "address",
                    "name": "_to",
                    "type": "address"
                },
                {
                    "indexed": false,
                    "internalType": "address",
                    "name": "_from",
                    "type": "address"
                },
                {
                    "indexed": false,
                    "internalType": "uint256",
                    "name": "amount",
                    "type": "uint256"
                },
                {
                    "indexed": false,
                    "internalType": "string",
                    "name": "fn",
                    "type": "string"
                }
            ],
            "name": "display",
            "type": "event"
        },
        {
            "stateMutability": "payable",
            "type": "fallback"
        },
        {
            "inputs": [
                {
                    "internalType": "uint16",
                    "name": "itemId",
                    "type": "uint16"
                }
            ],
            "name": "acceptOrder",
            "outputs": [],
            "stateMutability": "payable",
            "type": "function"
        },
        {
            "inputs": [],
            "name": "blockTimestamp",
            "outputs": [
                {
                    "internalType": "uint256",
                    "name": "",
                    "type": "uint256"
                }
            ],
            "stateMutability": "view",
            "type": "function"
        },
        {
            "inputs": [
                {
                    "internalType": "uint32",
                    "name": "quantity",
                    "type": "uint32"
                }
            ],
            "name": "buyToken",
            "outputs": [],
            "stateMutability": "payable",
            "type": "function"
        },
        {
            "inputs": [
                {
                    "internalType": "uint256",
                    "name": "_amount",
                    "type": "uint256"
                }
            ],
            "name": "collect",
            "outputs": [],
            "stateMutability": "payable",
            "type": "function"
        },
        {
            "inputs": [
                {
                    "internalType": "uint16",
                    "name": "itemId",
                    "type": "uint16"
                },
                {
                    "internalType": "address",
                    "name": "_driver",
                    "type": "address"
                }
            ],
            "name": "dispatchItem",
            "outputs": [],
            "stateMutability": "payable",
            "type": "function"
        },
        {
            "inputs": [
                {
                    "internalType": "address",
                    "name": "merchant1",
                    "type": "address"
                },
                {
                    "internalType": "address",
                    "name": "merchant2",
                    "type": "address"
                },
                {
                    "internalType": "address",
                    "name": "driver1",
                    "type": "address"
                },
                {
                    "internalType": "address",
                    "name": "driver2",
                    "type": "address"
                }
            ],
            "name": "init",
            "outputs": [],
            "stateMutability": "nonpayable",
            "type": "function"
        },
        {
            "inputs": [
                {
                    "internalType": "address",
                    "name": "",
                    "type": "address"
                }
            ],
            "name": "isDriver",
            "outputs": [
                {
                    "internalType": "bool",
                    "name": "",
                    "type": "bool"
                }
            ],
            "stateMutability": "view",
            "type": "function"
        },
        {
            "inputs": [
                {
                    "internalType": "address",
                    "name": "",
                    "type": "address"
                }
            ],
            "name": "isMerchant",
            "outputs": [
                {
                    "internalType": "bool",
                    "name": "",
                    "type": "bool"
                }
            ],
            "stateMutability": "view",
            "type": "function"
        },
        {
            "inputs": [
                {
                    "internalType": "address",
                    "name": "",
                    "type": "address"
                }
            ],
            "name": "isPurchaser",
            "outputs": [
                {
                    "internalType": "bool",
                    "name": "",
                    "type": "bool"
                }
            ],
            "stateMutability": "view",
            "type": "function"
        },
        {
            "inputs": [
                {
                    "internalType": "uint16",
                    "name": "",
                    "type": "uint16"
                }
            ],
            "name": "item_prices",
            "outputs": [
                {
                    "internalType": "uint128",
                    "name": "",
                    "type": "uint128"
                }
            ],
            "stateMutability": "view",
            "type": "function"
        },
        {
            "inputs": [
                {
                    "internalType": "address",
                    "name": "",
                    "type": "address"
                }
            ],
            "name": "membership",
            "outputs": [
                {
                    "internalType": "bool",
                    "name": "",
                    "type": "bool"
                }
            ],
            "stateMutability": "view",
            "type": "function"
        },
        {
            "inputs": [
                {
                    "internalType": "address",
                    "name": "",
                    "type": "address"
                }
            ],
            "name": "membershipExpires",
            "outputs": [
                {
                    "internalType": "uint256",
                    "name": "",
                    "type": "uint256"
                }
            ],
            "stateMutability": "view",
            "type": "function"
        },
        {
            "inputs": [
                {
                    "internalType": "uint16",
                    "name": "itemId",
                    "type": "uint16"
                },
                {
                    "internalType": "uint128",
                    "name": "price",
                    "type": "uint128"
                }
            ],
            "name": "orderItem",
            "outputs": [],
            "stateMutability": "payable",
            "type": "function"
        },
        {
            "inputs": [],
            "name": "owner",
            "outputs": [
                {
                    "internalType": "address payable",
                    "name": "",
                    "type": "address"
                }
            ],
            "stateMutability": "view",
            "type": "function"
        },
        {
            "inputs": [
                {
                    "internalType": "address",
                    "name": "_driverAddress",
                    "type": "address"
                },
                {
                    "internalType": "uint16",
                    "name": "itemId",
                    "type": "uint16"
                },
                {
                    "internalType": "uint256",
                    "name": "deliveryTime",
                    "type": "uint256"
                },
                {
                    "internalType": "uint256",
                    "name": "DEADLINE",
                    "type": "uint256"
                }
            ],
            "name": "payDriver",
            "outputs": [],
            "stateMutability": "payable",
            "type": "function"
        },
        {
            "inputs": [],
            "name": "payFees",
            "outputs": [],
            "stateMutability": "payable",
            "type": "function"
        },
        {
            "inputs": [
                {
                    "internalType": "address",
                    "name": "_member",
                    "type": "address"
                }
            ],
            "name": "payFees",
            "outputs": [],
            "stateMutability": "payable",
            "type": "function"
        },
        {
            "inputs": [
                {
                    "internalType": "uint8",
                    "name": "memberType",
                    "type": "uint8"
                }
            ],
            "name": "register",
            "outputs": [],
            "stateMutability": "payable",
            "type": "function"
        },
        {
            "inputs": [
                {
                    "internalType": "uint16",
                    "name": "itemId",
                    "type": "uint16"
                }
            ],
            "name": "reportDelivery",
            "outputs": [],
            "stateMutability": "payable",
            "type": "function"
        },
        {
            "inputs": [
                {
                    "internalType": "uint256",
                    "name": "deliveryTimestamp",
                    "type": "uint256"
                },
                {
                    "internalType": "uint16",
                    "name": "itemId",
                    "type": "uint16"
                }
            ],
            "name": "verifyDelivery",
            "outputs": [],
            "stateMutability": "nonpayable",
            "type": "function"
        },
        {
            "stateMutability": "payable",
            "type": "receive"
        }
    ],
    "bytecode": "60806040819052600980546001600160801b03191666470de4df82000017905561c38c805460ff1916600117905562002a983881900390819083398101604081905261004a91610088565b600680546001600160a01b0319908116331790915560078054821630179055600880546001600160a01b0393909316929091169190911790556100b8565b60006020828403121561009a57600080fd5b81516001600160a01b03811681146100b157600080fd5b9392505050565b6129d080620000c86000396000f3fe6080604052600436106101235760003560e01c80636d77ca20116100a0578063adb6183211610064578063adb6183214610416578063b8f9197b14610429578063b8ff6e081461043c578063c11c42131461044f578063ce3f865f1461047f57610191565b80636d77ca2014610358578063772ccf5d1461036b5780638da5cb5b1461039b578063947cda6c146103d3578063ab942036146103e657610191565b8063502ebaa9116100e7578063502ebaa914610304578063611ed0c61461031757806361d689fa1461032a57806362779e151461033d578063698140e21461034557610191565b806306552ff3146101f4578063152d7f7514610216578063158ed0ac146102695780631a2f7167146102a45780631db629ea146102e457610191565b3661019157600754604080516001600160a01b039092168252336020830152349082015260806060820181905260029082015261726360f01b60a08201527f62c69cc67fa424b6afadb7f44dcf84a9638c58537817264b4f6a3953e5334d289060c0015b60405180910390a1005b600754604080516001600160a01b039092168252336020830152349082015260806060820181905260029082015261333160f11b60a08201527f62c69cc67fa424b6afadb7f44dcf84a9638c58537817264b4f6a3953e5334d289060c001610187565b34801561020057600080fd5b5061021461020f366004612483565b610492565b005b34801561022257600080fd5b5061024c6102313660046124e9565b6005602052600090815260409020546001600160801b031681565b6040516001600160801b0390911681526020015b60405180910390f35b34801561027557600080fd5b5061029661028436600461250b565b60046020526000908152604090205481565b604051908152602001610260565b3480156102b057600080fd5b506102d46102bf36600461250b565b60016020526000908152604090205460ff1681565b6040519015158152602001610260565b3480156102f057600080fd5b506102146102ff366004612526565b610c2e565b6102146103123660046124e9565b610da6565b610214610325366004612552565b610f47565b610214610338366004612595565b611413565b610214611553565b6102146103533660046125b8565b611863565b6102146103663660046125de565b611a3b565b34801561037757600080fd5b506102d461038636600461250b565b60006020819052908152604090205460ff1681565b3480156103a757600080fd5b506006546103bb906001600160a01b031681565b6040516001600160a01b039091168152602001610260565b6102146103e1366004612620565b611d5c565b3480156103f257600080fd5b506102d461040136600461250b565b60026020526000908152604090205460ff1681565b34801561042257600080fd5b5042610296565b61021461043736600461250b565b611f4d565b61021461044a3660046124e9565b612032565b34801561045b57600080fd5b506102d461046a36600461250b565b60036020526000908152604090205460ff1681565b61021461048d36600461264a565b61227d565b6000806104a36301e1338042612679565b6001600160a01b0387166000908152600460205260409020556104ca6301e1338042612679565b6001600160a01b03808716600081815260046020908152604080832095909555928a168082526001808552858320805460ff199081168317909155838652868420805482168317815594845281865295832080548716821790559082529252805490921617905561053f6301e1338042612679565b6001600160a01b0385166000908152600460205260409020556105666301e1338042612679565b6001600160a01b03848116600081815260046020908152604080832095909555928816815260028084528482208054600160ff1991821681179092558386528684208054821683179055938352908452848220805484168217905581845290849020805490921617905581516101008101909252600660c08301908152656974656d203160d01b60e0840152825281018260058111156106085761060861268c565b81526001600160a01b03848116602083018190529089166040830152606082015260006080909101528051600a9081906106429082612753565b50602082015160018083018054909160ff199091169083600581111561066a5761066a61268c565b02179055506040828101516001830180546001600160a01b03928316610100908102610100600160a81b03199092169190911790915560608501516002850180549184166001600160a01b031992831617905560808601516003860180549190941691161790915560a09093015160049092019190915580519182019052600660c082019081526534ba32b6901960d11b60e08301528152602081018260058111156107185761071861268c565b81526001600160a01b03848116602083018190529089166040830152606082015260006080909101528051600f9081906107529082612753565b50602082015160018083018054909160ff199091169083600581111561077a5761077a61268c565b02179055506040828101516001830180546001600160a01b03928316610100908102610100600160a81b03199092169190911790915560608501516002850180549184166001600160a01b031992831617905560808601516003860180549190941691161790915560a09093015160049092019190915580519182019052600660c08201908152656974656d203360d01b60e08301528152602081018260058111156108285761082861268c565b81526001600160a01b0384811660208301819052908916604083015260608201526000608090910152805160149081906108629082612753565b50602082015160018083018054909160ff199091169083600581111561088a5761088a61268c565b02179055506040828101516001830180546001600160a01b03928316610100908102610100600160a81b03199092169190911790915560608501516002850180549184166001600160a01b031992831617905560808601516003860180549190941691161790915560a09093015160049092019190915580519182019052600660c08201908152651a5d195b480d60d21b60e08301528152602081018260058111156109385761093861268c565b81526001600160a01b0384811660208301819052908816604083015260608201526000608090910152805160199081906109729082612753565b50602082015160018083018054909160ff199091169083600581111561099a5761099a61268c565b02179055506040828101516001830180546001600160a01b03928316610100908102610100600160a81b03199092169190911790915560608501516002850180549184166001600160a01b031992831617905560808601516003860180549190941691161790915560a09093015160049092019190915580519182019052600660c08201908152656974656d203560d01b60e0830152815260208101826005811115610a4857610a4861268c565b81526001600160a01b03848116602083018190529088166040830152606082015260006080909101528051601e908190610a829082612753565b50602082015160018083018054909160ff1990911690836005811115610aaa57610aaa61268c565b02179055506040828101516001830180546001600160a01b03928316610100908102610100600160a81b03199092169190911790915560608501516002850180549184166001600160a01b031992831617905560808601516003860180549190941691161790915560a09093015160049092019190915580519182019052600660c082019081526534ba32b6901b60d11b60e0830152815260208101826005811115610b5857610b5861268c565b81526001600160a01b038481166020830181905290881660408301526060820152600060809091015280516023908190610b929082612753565b50602082015160018083018054909160ff1990911690836005811115610bba57610bba61268c565b021790555060408201516001820180546001600160a01b0392831661010002610100600160a81b031990911617905560608301516002830180549183166001600160a01b0319928316179055608084015160038401805491909316911617905560a090910151600490910155505050505050565b6007546001600160a01b03163314610c4557600080fd5b6000600a8261ffff166127108110610c5f57610c5f6126a2565b600502016040518060c0016040529081600082018054610c7e906126ce565b80601f0160208091040260200160405190810160405280929190818152602001828054610caa906126ce565b8015610cf75780601f10610ccc57610100808354040283529160200191610cf7565b820191906000526020600020905b815481529060010190602001808311610cda57829003601f168201915b5050509183525050600182015460209091019060ff166005811115610d1e57610d1e61268c565b6005811115610d2f57610d2f61268c565b815260018201546001600160a01b0361010090910481166020830152600283015481166040830152600383015416606082015260049091015460809091015260a0810151909150600090610d839085612813565b9050610d988260800151848362015180611a3b565b506002602091909101525050565b3360009081526001602081905260409091205460ff16151514610de45760405162461bcd60e51b8152600401610ddb90612826565b60405180910390fd5b6000600a8261ffff166127108110610dfe57610dfe6126a2565b600502016040518060c0016040529081600082018054610e1d906126ce565b80601f0160208091040260200160405190810160405280929190818152602001828054610e49906126ce565b8015610e965780601f10610e6b57610100808354040283529160200191610e96565b820191906000526020600020905b815481529060010190602001808311610e7957829003601f168201915b5050509183525050600182015460209091019060ff166005811115610ebd57610ebd61268c565b6005811115610ece57610ece61268c565b815260018201546001600160a01b03610100909104811660208301526002830154811660408301526003830154811660608084019190915260049093015460809092019190915290820151919250163314610f3b5760405162461bcd60e51b8152600401610ddb9061286c565b60026020919091015250565b3360009081526003602052604090205460ff161515600114610fba5760405162461bcd60e51b815260206004820152602660248201527f4f6e6c7920637573746f6d6572732063616e20706572666f726d20746869732060448201526530b1ba34b7b760d11b6064820152608401610ddb565b6000600a8361ffff166127108110610fd457610fd46126a2565b600502016040518060c0016040529081600082018054610ff3906126ce565b80601f016020809104026020016040519081016040528092919081815260200182805461101f906126ce565b801561106c5780601f106110415761010080835404028352916020019161106c565b820191906000526020600020905b81548152906001019060200180831161104f57829003601f168201915b5050509183525050600182015460209091019060ff1660058111156110935761109361268c565b60058111156110a4576110a461268c565b815260018201546001600160a01b0361010090910481166020808401919091526002840154821660408085019190915260038501549092166060840152600490930154608090920191909152336000818152928390529120549192509060ff1661116a5760405162461bcd60e51b815260206004820152603160248201527f57616c6c6574206e6f74207265676973746572656420706c656173652072656760448201527034b9ba32b91030b990309036b2b6b132b960791b6064820152608401610ddb565b6000826020015160058111156111825761118261268c565b1461119f5760405162461bcd60e51b8152600401610ddb906128be565b6008546040516370a0823160e01b81523360048201526001600160801b038516916001600160a01b0316906370a0823190602401602060405180830381865afa1580156111f0573d6000803e3d6000fd5b505050506040513d601f19601f820116820180604052508101906112149190612900565b116112725760405162461bcd60e51b815260206004820152602860248201527f496e73756666696369656e742066756e647320746f206d616b65207468697320604482015267707572636861736560c01b6064820152608401610ddb565b61ffff841660009081526005602052604080822080546fffffffffffffffffffffffffffffffff19166001600160801b038716908117909155600854606086015192516323b872dd60e01b81526001600160a01b0386811660048301529384166024820152604481019290925291909116906323b872dd906064016020604051808303816000875af115801561130c573d6000803e3d6000fd5b505050506040513d601f19601f820116820180604052508101906113309190612919565b9050801561140c573360408401526001602084015282600a61ffff8716612710811061135e5761135e6126a2565b6005020160008201518160000190816113779190612753565b50602082015160018083018054909160ff199091169083600581111561139f5761139f61268c565b021790555060408201516001820180546001600160a01b0392831661010002610100600160a81b031990911617905560608301516002830180549183166001600160a01b0319928316179055608084015160038401805491909316911617905560a0909101516004909101555b5050505050565b3360008181526020819052604090205460ff16156114735760405162461bcd60e51b815260206004820152601960248201527f596f752061726520616c72656164792061206d656d62657221000000000000006044820152606401610ddb565b6001600160a01b038116600090815260046020526040902042905560ff82166001036114c4576001600160a01b0381166000908152600160208190526040909120805460ff19169091179055611546565b8160ff166002036115175760405162461bcd60e51b815260206004820152601f60248201527f5468657265206973206e6f20766163616e637920666f722064726976657273006044820152606401610ddb565b8160ff16600303611546576001600160a01b0381166000908152600360205260409020805460ff191660011790555b61154f81611f4d565b5050565b3360008181526003602052604090205460ff16156115ca5760405162461bcd60e51b815260206004820152602e60248201527f5075726368617365727320646f206e6f74206e65656420746f2070617920612060448201526d6d656d626572736869702066656560901b6064820152608401610ddb565b6001600160a01b038116600090815260016020819052604082205460ff16151590036115ff5750671bc16d674ec8000061162f565b6001600160a01b03821660009081526002602052604090205460ff16151560010361162f5750670de0b6b3a76400005b6001600160a01b038216600090815260046020526040902054421061168f5760405162461bcd60e51b815260206004820152601660248201527513595b58995c9cda1a5c081b9bdd08195e1c1a5c995960521b6044820152606401610ddb565b6008546040516370a0823160e01b81526001600160a01b038481166004830152839216906370a0823190602401602060405180830381865afa1580156116d9573d6000803e3d6000fd5b505050506040513d601f19601f820116820180604052508101906116fd9190612900565b1161173f5760405162461bcd60e51b8152602060048201526012602482015271496e73756666696369656e742066756e647360701b6044820152606401610ddb565b6008546007546040516323b872dd60e01b81526001600160a01b0385811660048301529182166024820152604481018490529116906323b872dd906064016020604051808303816000875af115801561179c573d6000803e3d6000fd5b505050506040513d601f19601f820116820180604052508101906117c09190612919565b6001600160a01b0383166000908152602081905260409020805460ff1916911515918217905560ff166118355760405162461bcd60e51b815260206004820152601e60248201527f4d656d626572736869703a205472616e73666572726564206661696c656400006044820152606401610ddb565b6118436301e1338042612679565b6001600160a01b0390921660009081526004602052604090209190915550565b6009543390600090611884906001600160801b031663ffffffff851661293b565b6001600160801b0316905034826001600160a01b031631116118dc5760405162461bcd60e51b8152602060048201526011602482015270496e737566666963656e742066756e647360781b6044820152606401610ddb565b80341461195d5760405162461bcd60e51b815260206004820152604360248201527f50726f7669646520656e6f75676820657468657220746f20636f6d706c65746560448201527f20746865207472616e73616374696f6e2e20436865636b20746f6b656e20707260648201526269636560e81b608482015260a401610ddb565b6007546040516000916001600160a01b03169034908381818185875af1925050503d80600081146119aa576040519150601f19603f3d011682016040523d82523d6000602084013e6119af565b606091505b505090508015611a35576008546040516340c10f1960e01b81526001600160a01b03858116600483015263ffffffff87166024830152909116906340c10f19906044016020604051808303816000875af1158015611a11573d6000803e3d6000fd5b505050506040513d601f19601f8201168201806040525081019061140c9190612919565b50505050565b6007546001600160a01b03163314611a5257600080fd5b6000600a8461ffff166127108110611a6c57611a6c6126a2565b600502016040518060c0016040529081600082018054611a8b906126ce565b80601f0160208091040260200160405190810160405280929190818152602001828054611ab7906126ce565b8015611b045780601f10611ad957610100808354040283529160200191611b04565b820191906000526020600020905b815481529060010190602001808311611ae757829003601f168201915b5050509183525050600182015460209091019060ff166005811115611b2b57611b2b61268c565b6005811115611b3c57611b3c61268c565b815260018201546001600160a01b036101009091048116602080840191909152600284015482166040808501919091526003850154909216606084015260049384015460809093019290925261ffff88166000908152600590925281205492935091606491611bb4916001600160801b03169061293b565b611bbe9190612966565b9050600282602001516005811115611bd857611bd861268c565b14611c255760405162461bcd60e51b815260206004820152601d60248201527f4974656d206d7573742068617665206265656e2064656c6976657265640000006044820152606401610ddb565b828411611cb15760085460405163a9059cbb60e01b81526001600160a01b0388811660048301526001600160801b03841660248301529091169063a9059cbb906044016020604051808303816000875af1158015611c87573d6000803e3d6000fd5b505050506040513d601f19601f82011682018060405250810190611cab9190612919565b50611d54565b6008546001600160a01b031663a9059cbb876064611cd085603261293b565b611cda9190612966565b6040516001600160e01b031960e085901b1681526001600160a01b0390921660048301526001600160801b031660248201526044016020604051808303816000875af1158015611d2e573d6000803e3d6000fd5b505050506040513d601f19601f82011682018060405250810190611d529190612919565b505b505050505050565b3360009081526001602081905260409091205460ff16151514611d915760405162461bcd60e51b8152600401610ddb90612826565b6000600a8361ffff166127108110611dab57611dab6126a2565b600502016040518060c0016040529081600082018054611dca906126ce565b80601f0160208091040260200160405190810160405280929190818152602001828054611df6906126ce565b8015611e435780601f10611e1857610100808354040283529160200191611e43565b820191906000526020600020905b815481529060010190602001808311611e2657829003601f168201915b5050509183525050600182015460209091019060ff166005811115611e6a57611e6a61268c565b6005811115611e7b57611e7b61268c565b815260018201546001600160a01b03610100909104811660208301526002830154811660408301526003830154811660608084019190915260049093015460809092019190915290820151919250163314611ee85760405162461bcd60e51b8152600401610ddb9061286c565b600281602001516005811115611f0057611f0061268c565b14611f1d5760405162461bcd60e51b8152600401610ddb906128be565b6000611f293385612393565b5050600360208201526001600160a01b039190911660808201524260a09091015250565b6001600160a01b038116600090815260016020819052604082205460ff1615159003611f825750671bc16d674ec80000611fb2565b6001600160a01b03821660009081526002602052604090205460ff161515600103611fb25750670de0b6b3a76400005b6001600160a01b03821660009081526003602052604090205460ff1661154f576001600160a01b038216600090815260046020526040902054421061168f5760405162461bcd60e51b815260206004820152601660248201527513595b58995c9cda1a5c081b9bdd08195e1c1a5c995960521b6044820152606401610ddb565b3360009081526002602052604090205460ff1615156001146120665760405162461bcd60e51b8152600401610ddb90612826565b6000600a8261ffff166127108110612080576120806126a2565b600502016040518060c001604052908160008201805461209f906126ce565b80601f01602080910402602001604051908101604052809291908181526020018280546120cb906126ce565b80156121185780601f106120ed57610100808354040283529160200191612118565b820191906000526020600020905b8154815290600101906020018083116120fb57829003601f168201915b5050509183525050600182015460209091019060ff16600581111561213f5761213f61268c565b60058111156121505761215061268c565b815260018201546001600160a01b03610100909104811660208301526002830154811660408301526003830154811660608301526004909201546080918201528201519192501633146122035760405162461bcd60e51b815260206004820152603560248201527f44656c697665726965732063616e206f6e6c7920626520636f6e6669726d656460448201527410313c903232b9b4b3b730ba32b210323934bb32b960591b6064820152608401610ddb565b60038160200151600581111561221b5761221b61268c565b146122735760405162461bcd60e51b815260206004820152602260248201527f4974656d206973206e6f74207265636f7264656420617320696e207472616e736044820152611a5d60f21b6064820152608401610ddb565b61154f4283610c2e565b6006546001600160a01b031633146122d75760405162461bcd60e51b815260206004820152601760248201527f496e73756666696369656e742070726976696c656765730000000000000000006044820152606401610ddb565b61c38c5460ff166122e757600080fd5b61c38c805460ff191690556006546040516000916001600160a01b03169083908381818185875af1925050503d806000811461233f576040519150601f19603f3d011682016040523d82523d6000602084013e612344565b606091505b505061c38c805460ff1916600117905590508061154f5760405162461bcd60e51b815260206004820152600d60248201526c139bdd0818dbdb1b1958dd1959609a1b6044820152606401610ddb565b61ffff8116600090815260056020819052604082205482916064916123c3916001600160801b039091169061293b565b6123cd9190612966565b6008546007546040516323b872dd60e01b81526001600160a01b03888116600483015291821660248201526001600160801b03841660448201529293506000929116906323b872dd906064016020604051808303816000875af1158015612438573d6000803e3d6000fd5b505050506040513d601f19601f8201168201806040525081019061245c9190612919565b925050505b92915050565b80356001600160a01b038116811461247e57600080fd5b919050565b6000806000806080858703121561249957600080fd5b6124a285612467565b93506124b060208601612467565b92506124be60408601612467565b91506124cc60608601612467565b905092959194509250565b803561ffff8116811461247e57600080fd5b6000602082840312156124fb57600080fd5b612504826124d7565b9392505050565b60006020828403121561251d57600080fd5b61250482612467565b6000806040838503121561253957600080fd5b82359150612549602084016124d7565b90509250929050565b6000806040838503121561256557600080fd5b61256e836124d7565b915060208301356001600160801b038116811461258a57600080fd5b809150509250929050565b6000602082840312156125a757600080fd5b813560ff8116811461250457600080fd5b6000602082840312156125ca57600080fd5b813563ffffffff8116811461250457600080fd5b600080600080608085870312156125f457600080fd5b6125fd85612467565b935061260b602086016124d7565b93969395505050506040820135916060013590565b6000806040838503121561263357600080fd5b61263c836124d7565b915061254960208401612467565b60006020828403121561265c57600080fd5b5035919050565b634e487b7160e01b600052601160045260246000fd5b8082018082111561246157612461612663565b634e487b7160e01b600052602160045260246000fd5b634e487b7160e01b600052603260045260246000fd5b634e487b7160e01b600052604160045260246000fd5b600181811c908216806126e257607f821691505b60208210810361270257634e487b7160e01b600052602260045260246000fd5b50919050565b601f82111561274e57600081815260208120601f850160051c8101602086101561272f5750805b601f850160051c820191505b81811015611d545782815560010161273b565b505050565b815167ffffffffffffffff81111561276d5761276d6126b8565b6127818161277b84546126ce565b84612708565b602080601f8311600181146127b6576000841561279e5750858301515b600019600386901b1c1916600185901b178555611d54565b600085815260208120601f198616915b828110156127e5578886015182559484019460019091019084016127c6565b50858210156128035787850151600019600388901b60f8161c191681555b5050505050600190811b01905550565b8181038181111561246157612461612663565b60208082526026908201527f4f6e6c79206d65726368616e74732063616e20706572666f726d20746869732060408201526530b1ba34b7b760d11b606082015260800190565b60208082526032908201527f4f72646572732063616e206f6e6c792062652061636365707465642062792064604082015271195cda59db985d1959081b595c98da185b9d60721b606082015260800190565b60208082526022908201527f4974656d206973206e6f7420617661696c61626c6520666f722064656c697665604082015261727960f01b606082015260800190565b60006020828403121561291257600080fd5b5051919050565b60006020828403121561292b57600080fd5b8151801515811461250457600080fd5b6001600160801b0381811683821602808216919082811461295e5761295e612663565b505092915050565b60006001600160801b038084168061298e57634e487b7160e01b600052601260045260246000fd5b9216919091049291505056fea2646970667358221220372de15f0b897eb7c5f9e5e8c8d86511234d4d044c86a12c58dab5858f56b47264736f6c63430008130033",
    "sourcePath": "c:/Users/user/Documents/Projects/cw2/contracts/dlv_network._contract.sol",
    "compiler": {
        "name": "solc",
        "version": "0.8.19+commit.7dd6d404"
    },
    "functionHashes": {
        "acceptOrder(uint16)": "502ebaa9",
        "blockTimestamp()": "adb61832",
        "buyToken(uint32)": "698140e2",
        "collect(uint256)": "ce3f865f",
        "dispatchItem(uint16,address)": "947cda6c",
        "init(address,address,address,address)": "06552ff3",
        "isDriver(address)": "ab942036",
        "isMerchant(address)": "1a2f7167",
        "isPurchaser(address)": "c11c4213",
        "item_prices(uint16)": "152d7f75",
        "membership(address)": "772ccf5d",
        "membershipExpires(address)": "158ed0ac",
        "orderItem(uint16,uint128)": "611ed0c6",
        "owner()": "8da5cb5b",
        "payDriver(address,uint16,uint256,uint256)": "6d77ca20",
        "payFees()": "62779e15",
        "payFees(address)": "b8f9197b",
        "register(uint8)": "61d689fa",
        "reportDelivery(uint16)": "b8ff6e08",
        "verifyDelivery(uint256,uint16)": "1db629ea"
    },
    "gasEstimates": {
        "creation": {
            "codeDepositCost": "2140800",
            "executionCost": "infinite",
            "totalCost": "infinite"
        },
        "external": {
            "": "4795",
            "acceptOrder(uint16)": "infinite",
            "blockTimestamp()": "213",
            "buyToken(uint32)": "infinite",
            "collect(uint256)": "infinite",
            "dispatchItem(uint16,address)": "infinite",
            "init(address,address,address,address)": "infinite",
            "isDriver(address)": "2642",
            "isMerchant(address)": "2621",
            "isPurchaser(address)": "2619",
            "item_prices(uint16)": "2581",
            "membership(address)": "2579",
            "membershipExpires(address)": "2587",
            "orderItem(uint16,uint128)": "infinite",
            "owner()": "2404",
            "payDriver(address,uint16,uint256,uint256)": "infinite",
            "payFees()": "infinite",
            "payFees(address)": "infinite",
            "register(uint8)": "infinite",
            "reportDelivery(uint16)": "infinite",
            "verifyDelivery(uint256,uint16)": "infinite"
        },
        "internal": {
            "payDeliveryfee(address,uint16)": "infinite"
        }
    }
}