{
    "contractName": "DLVToken",
    "abi": [
        {
            "inputs": [
                {
                    "internalType": "string",
                    "name": "name_",
                    "type": "string"
                },
                {
                    "internalType": "string",
                    "name": "symbol_",
                    "type": "string"
                },
                {
                    "internalType": "address",
                    "name": "initialAccount",
                    "type": "address"
                },
                {
                    "internalType": "uint256",
                    "name": "initialBalance",
                    "type": "uint256"
                }
            ],
            "stateMutability": "payable",
            "type": "constructor"
        },
        {
            "anonymous": false,
            "inputs": [
                {
                    "indexed": true,
                    "internalType": "address",
                    "name": "owner",
                    "type": "address"
                },
                {
                    "indexed": true,
                    "internalType": "address",
                    "name": "spender",
                    "type": "address"
                },
                {
                    "indexed": false,
                    "internalType": "uint256",
                    "name": "value",
                    "type": "uint256"
                }
            ],
            "name": "Approval",
            "type": "event"
        },
        {
            "anonymous": false,
            "inputs": [
                {
                    "indexed": false,
                    "internalType": "address",
                    "name": "from",
                    "type": "address"
                },
                {
                    "indexed": false,
                    "internalType": "uint256",
                    "name": "value",
                    "type": "uint256"
                }
            ],
            "name": "Burn",
            "type": "event"
        },
        {
            "anonymous": false,
            "inputs": [
                {
                    "indexed": false,
                    "internalType": "address",
                    "name": "account",
                    "type": "address"
                }
            ],
            "name": "PausedEvt",
            "type": "event"
        },
        {
            "anonymous": false,
            "inputs": [
                {
                    "indexed": true,
                    "internalType": "address",
                    "name": "from",
                    "type": "address"
                },
                {
                    "indexed": true,
                    "internalType": "address",
                    "name": "to",
                    "type": "address"
                },
                {
                    "indexed": false,
                    "internalType": "uint256",
                    "name": "value",
                    "type": "uint256"
                }
            ],
            "name": "Transfer",
            "type": "event"
        },
        {
            "anonymous": false,
            "inputs": [
                {
                    "indexed": false,
                    "internalType": "address",
                    "name": "account",
                    "type": "address"
                }
            ],
            "name": "UnpausedEvt",
            "type": "event"
        },
        {
            "stateMutability": "payable",
            "type": "fallback"
        },
        {
            "inputs": [],
            "name": "DENY_LIST_CODE",
            "outputs": [
                {
                    "internalType": "uint8",
                    "name": "",
                    "type": "uint8"
                }
            ],
            "stateMutability": "view",
            "type": "function"
        },
        {
            "inputs": [],
            "name": "DENY_LIST_ERROR",
            "outputs": [
                {
                    "internalType": "string",
                    "name": "",
                    "type": "string"
                }
            ],
            "stateMutability": "view",
            "type": "function"
        },
        {
            "inputs": [],
            "name": "SUCCESS_CODE",
            "outputs": [
                {
                    "internalType": "uint8",
                    "name": "",
                    "type": "uint8"
                }
            ],
            "stateMutability": "view",
            "type": "function"
        },
        {
            "inputs": [],
            "name": "SUCCESS_MESSAGE",
            "outputs": [
                {
                    "internalType": "string",
                    "name": "",
                    "type": "string"
                }
            ],
            "stateMutability": "view",
            "type": "function"
        },
        {
            "inputs": [
                {
                    "internalType": "address",
                    "name": "account",
                    "type": "address"
                }
            ],
            "name": "addAdmin",
            "outputs": [],
            "stateMutability": "nonpayable",
            "type": "function"
        },
        {
            "inputs": [
                {
                    "internalType": "address",
                    "name": "account",
                    "type": "address"
                }
            ],
            "name": "addAllowList",
            "outputs": [],
            "stateMutability": "nonpayable",
            "type": "function"
        },
        {
            "inputs": [
                {
                    "internalType": "address",
                    "name": "owner",
                    "type": "address"
                },
                {
                    "internalType": "address",
                    "name": "spender",
                    "type": "address"
                }
            ],
            "name": "allowance",
            "outputs": [
                {
                    "internalType": "uint256",
                    "name": "",
                    "type": "uint256"
                }
            ],
            "stateMutability": "view",
            "type": "function"
        },
        {
            "inputs": [
                {
                    "internalType": "address",
                    "name": "spender",
                    "type": "address"
                },
                {
                    "internalType": "uint256",
                    "name": "value",
                    "type": "uint256"
                }
            ],
            "name": "approve",
            "outputs": [
                {
                    "internalType": "bool",
                    "name": "",
                    "type": "bool"
                }
            ],
            "stateMutability": "nonpayable",
            "type": "function"
        },
        {
            "inputs": [
                {
                    "internalType": "address",
                    "name": "account",
                    "type": "address"
                }
            ],
            "name": "balanceOf",
            "outputs": [
                {
                    "internalType": "uint256",
                    "name": "",
                    "type": "uint256"
                }
            ],
            "stateMutability": "view",
            "type": "function"
        },
        {
            "inputs": [
                {
                    "internalType": "uint256",
                    "name": "value",
                    "type": "uint256"
                }
            ],
            "name": "burn",
            "outputs": [
                {
                    "internalType": "bool",
                    "name": "success",
                    "type": "bool"
                }
            ],
            "stateMutability": "nonpayable",
            "type": "function"
        },
        {
            "inputs": [],
            "name": "decimals",
            "outputs": [
                {
                    "internalType": "uint8",
                    "name": "",
                    "type": "uint8"
                }
            ],
            "stateMutability": "view",
            "type": "function"
        },
        {
            "inputs": [
                {
                    "internalType": "address",
                    "name": "spender",
                    "type": "address"
                },
                {
                    "internalType": "uint256",
                    "name": "subtractedValue",
                    "type": "uint256"
                }
            ],
            "name": "decreaseAllowance",
            "outputs": [
                {
                    "internalType": "bool",
                    "name": "",
                    "type": "bool"
                }
            ],
            "stateMutability": "nonpayable",
            "type": "function"
        },
        {
            "inputs": [
                {
                    "internalType": "address",
                    "name": "spender",
                    "type": "address"
                },
                {
                    "internalType": "uint256",
                    "name": "addedValue",
                    "type": "uint256"
                }
            ],
            "name": "increaseAllowance",
            "outputs": [
                {
                    "internalType": "bool",
                    "name": "",
                    "type": "bool"
                }
            ],
            "stateMutability": "nonpayable",
            "type": "function"
        },
        {
            "inputs": [
                {
                    "internalType": "address",
                    "name": "account",
                    "type": "address"
                }
            ],
            "name": "isAdmin",
            "outputs": [
                {
                    "internalType": "bool",
                    "name": "",
                    "type": "bool"
                }
            ],
            "stateMutability": "view",
            "type": "function"
        },
        {
            "inputs": [
                {
                    "internalType": "address",
                    "name": "account",
                    "type": "address"
                }
            ],
            "name": "isAllowList",
            "outputs": [
                {
                    "internalType": "bool",
                    "name": "",
                    "type": "bool"
                }
            ],
            "stateMutability": "view",
            "type": "function"
        },
        {
            "inputs": [
                {
                    "internalType": "uint8",
                    "name": "restrictionCode",
                    "type": "uint8"
                }
            ],
            "name": "messageHandler",
            "outputs": [
                {
                    "internalType": "string",
                    "name": "message",
                    "type": "string"
                }
            ],
            "stateMutability": "pure",
            "type": "function"
        },
        {
            "inputs": [
                {
                    "internalType": "address",
                    "name": "account",
                    "type": "address"
                },
                {
                    "internalType": "uint256",
                    "name": "value",
                    "type": "uint256"
                }
            ],
            "name": "mint",
            "outputs": [
                {
                    "internalType": "bool",
                    "name": "",
                    "type": "bool"
                }
            ],
            "stateMutability": "nonpayable",
            "type": "function"
        },
        {
            "inputs": [],
            "name": "name",
            "outputs": [
                {
                    "internalType": "string",
                    "name": "",
                    "type": "string"
                }
            ],
            "stateMutability": "view",
            "type": "function"
        },
        {
            "inputs": [],
            "name": "owner",
            "outputs": [
                {
                    "internalType": "address",
                    "name": "",
                    "type": "address"
                }
            ],
            "stateMutability": "view",
            "type": "function"
        },
        {
            "inputs": [],
            "name": "pause",
            "outputs": [],
            "stateMutability": "nonpayable",
            "type": "function"
        },
        {
            "inputs": [
                {
                    "internalType": "address",
                    "name": "account",
                    "type": "address"
                }
            ],
            "name": "removeAdmin",
            "outputs": [],
            "stateMutability": "nonpayable",
            "type": "function"
        },
        {
            "inputs": [
                {
                    "internalType": "address",
                    "name": "account",
                    "type": "address"
                }
            ],
            "name": "removeAllowListed",
            "outputs": [],
            "stateMutability": "nonpayable",
            "type": "function"
        },
        {
            "inputs": [],
            "name": "symbol",
            "outputs": [
                {
                    "internalType": "string",
                    "name": "",
                    "type": "string"
                }
            ],
            "stateMutability": "view",
            "type": "function"
        },
        {
            "inputs": [],
            "name": "tokenSummary",
            "outputs": [
                {
                    "internalType": "address",
                    "name": "initialAccount",
                    "type": "address"
                },
                {
                    "internalType": "string",
                    "name": "name",
                    "type": "string"
                },
                {
                    "internalType": "string",
                    "name": "symbol",
                    "type": "string"
                }
            ],
            "stateMutability": "view",
            "type": "function"
        },
        {
            "inputs": [],
            "name": "totalSupply",
            "outputs": [
                {
                    "internalType": "uint256",
                    "name": "",
                    "type": "uint256"
                }
            ],
            "stateMutability": "view",
            "type": "function"
        },
        {
            "inputs": [
                {
                    "internalType": "address",
                    "name": "to",
                    "type": "address"
                },
                {
                    "internalType": "uint256",
                    "name": "value",
                    "type": "uint256"
                }
            ],
            "name": "transfer",
            "outputs": [
                {
                    "internalType": "bool",
                    "name": "success",
                    "type": "bool"
                }
            ],
            "stateMutability": "nonpayable",
            "type": "function"
        },
        {
            "inputs": [
                {
                    "internalType": "address",
                    "name": "from",
                    "type": "address"
                },
                {
                    "internalType": "address",
                    "name": "spender",
                    "type": "address"
                },
                {
                    "internalType": "uint256",
                    "name": "value",
                    "type": "uint256"
                }
            ],
            "name": "transferFrom",
            "outputs": [
                {
                    "internalType": "bool",
                    "name": "",
                    "type": "bool"
                }
            ],
            "stateMutability": "nonpayable",
            "type": "function"
        },
        {
            "inputs": [
                {
                    "internalType": "address",
                    "name": "newOwner",
                    "type": "address"
                }
            ],
            "name": "transferOwnership",
            "outputs": [],
            "stateMutability": "nonpayable",
            "type": "function"
        },
        {
            "inputs": [],
            "name": "unpause",
            "outputs": [],
            "stateMutability": "nonpayable",
            "type": "function"
        },
        {
            "inputs": [
                {
                    "internalType": "address",
                    "name": "to",
                    "type": "address"
                }
            ],
            "name": "validateTransferRestricted",
            "outputs": [
                {
                    "internalType": "uint8",
                    "name": "restrictionCode",
                    "type": "uint8"
                }
            ],
            "stateMutability": "view",
            "type": "function"
        }
    ],
    "bytecode": "6080604052604051620018c1380380620018c1833981016040819052620000269162000256565b8383600362000036838262000378565b50600462000045828262000378565b5050600580546001600160a01b031916339081179091556000908152600660205260409020805460ff19908116600117909155600880549091169055506200008d826200010f565b6001600160a01b0382166000818152600c6020908152604091829020849055600e8490558151606081018352838152908101879052908101859052600980546001600160a01b031916909217825590600a620000ea878262000378565b506040820151600282019062000101908262000378565b509050505050505062000444565b3360009081526006602052604090205460ff1615156001146200013157600080fd5b6001600160a01b038116158015906200016357506001600160a01b03811660009081526007602052604090205460ff16155b6200016d57600080fd5b6001600160a01b03166000908152600760205260409020805460ff19166001179055565b634e487b7160e01b600052604160045260246000fd5b600082601f830112620001b957600080fd5b81516001600160401b0380821115620001d657620001d662000191565b604051601f8301601f19908116603f0116810190828211818310171562000201576200020162000191565b816040528381526020925086838588010111156200021e57600080fd5b600091505b8382101562000242578582018301518183018401529082019062000223565b600093810190920192909252949350505050565b600080600080608085870312156200026d57600080fd5b84516001600160401b03808211156200028557600080fd5b6200029388838901620001a7565b95506020870151915080821115620002aa57600080fd5b50620002b987828801620001a7565b604087015190945090506001600160a01b0381168114620002d957600080fd5b6060959095015193969295505050565b600181811c90821680620002fe57607f821691505b6020821081036200031f57634e487b7160e01b600052602260045260246000fd5b50919050565b601f8211156200037357600081815260208120601f850160051c810160208610156200034e5750805b601f850160051c820191505b818110156200036f578281556001016200035a565b5050505b505050565b81516001600160401b0381111562000394576200039462000191565b620003ac81620003a58454620002e9565b8462000325565b602080601f831160018114620003e45760008415620003cb5750858301515b600019600386901b1c1916600185901b1785556200036f565b600085815260208120601f198616915b828110156200041557888601518255948401946001909101908401620003f4565b5085821015620004345787850151600019600388901b60f8161c191681555b5050505050600190811b01905550565b61146d80620004546000396000f3fe6080604052600436106101cd5760003560e01c806370480275116100f75780639da2116711610095578063e7984d1711610064578063e7984d171461050f578063f2fde38b14610542578063f5964e0814610562578063f86b39301461059b57600080fd5b80639da211671461048f578063a457c2d7146104af578063a9059cbb146104cf578063dd62ed3e146104ef57600080fd5b80638456cb59116100d15780638456cb591461040d5780638da5cb5b146104225780639033cb281461045a57806395d89b411461047a57600080fd5b8063704802751461026957806370a08231146103b75780637d474527146103ed57600080fd5b806323b872dd1161016f5780633f4ba83a1161013e5780633f4ba83a1461034257806340c10f191461035757806342966c681461037757806343f432d51461039757600080fd5b806323b872dd146102ce57806324d7806c146102ee578063313ce5671461030e578063395093511461032257600080fd5b80630e969a05116101ab5780630e969a05146102425780631785f53c1461026957806318160ddd1461028b5780631fc37784146102aa57600080fd5b806306fdde03146101d2578063095ea7b3146101fd5780630cb8b89c1461022d575b600080fd5b3480156101de57600080fd5b506101e76105b0565b6040516101f49190611239565b60405180910390f35b34801561020957600080fd5b5061021d61021836600461126a565b610642565b60405190151581526020016101f4565b34801561023957600080fd5b506101e76106bd565b34801561024e57600080fd5b50610257600081565b60405160ff90911681526020016101f4565b34801561027557600080fd5b50610289610284366004611294565b6106d9565b005b34801561029757600080fd5b50600e545b6040519081526020016101f4565b3480156102b657600080fd5b506102bf61074e565b6040516101f4939291906112af565b3480156102da57600080fd5b5061021d6102e93660046112ef565b61087d565b3480156102fa57600080fd5b5061021d610309366004611294565b610a3c565b34801561031a57600080fd5b506012610257565b34801561032e57600080fd5b5061021d61033d36600461126a565b610a79565b34801561034e57600080fd5b50610289610aa5565b34801561036357600080fd5b5061021d61037236600461126a565b610b15565b34801561038357600080fd5b5061021d61039236600461132b565b610bec565b3480156103a357600080fd5b506101e76103b2366004611344565b610cba565b3480156103c357600080fd5b5061029c6103d2366004611294565b6001600160a01b03166000908152600c602052604090205490565b3480156103f957600080fd5b50610289610408366004611294565b610d12565b34801561041957600080fd5b50610289610d8d565b34801561042e57600080fd5b50600554610442906001600160a01b031681565b6040516001600160a01b0390911681526020016101f4565b34801561046657600080fd5b50610257610475366004611294565b610dfb565b34801561048657600080fd5b506101e7610e2b565b34801561049b57600080fd5b506102896104aa366004611294565b610e3a565b3480156104bb57600080fd5b5061021d6104ca36600461126a565b610eb9565b3480156104db57600080fd5b5061021d6104ea36600461126a565b610f3f565b3480156104fb57600080fd5b5061029c61050a366004611367565b61106b565b34801561051b57600080fd5b506101e7604051806040016040528060078152602001665355434345535360c81b81525081565b34801561054e57600080fd5b5061028961055d366004611294565b611096565b34801561056e57600080fd5b5061021d61057d366004611294565b6001600160a01b031660009081526007602052604090205460ff1690565b3480156105a757600080fd5b50610257600181565b6060600380546105bf9061139a565b80601f01602080910402602001604051908101604052809291908181526020018280546105eb9061139a565b80156106385780601f1061060d57610100808354040283529160200191610638565b820191906000526020600020905b81548152906001019060200180831161061b57829003601f168201915b5050505050905090565b60006001600160a01b03831661065757600080fd5b336000818152600d602090815260408083206001600160a01b03881680855290835292819020869055518581529192917f8c5be1e5ebec7d5bd14f71427d1e84f3dd0314c0f7b2291e5b200ac8c7c3b92591015b60405180910390a35060015b92915050565b6040518060600160405280602781526020016114116027913981565b6005546001600160a01b031633146106f057600080fd5b6001600160a01b0381161580159061072157506001600160a01b03811660009081526006602052604090205460ff16155b61072a57600080fd5b6001600160a01b03166000908152600660205260409020805460ff19166001179055565b60098054600a80546001600160a01b03909216929161076c9061139a565b80601f01602080910402602001604051908101604052809291908181526020018280546107989061139a565b80156107e55780601f106107ba576101008083540402835291602001916107e5565b820191906000526020600020905b8154815290600101906020018083116107c857829003601f168201915b5050505050908060020180546107fa9061139a565b80601f01602080910402602001604051908101604052809291908181526020018280546108269061139a565b80156108735780601f1061084857610100808354040283529160200191610873565b820191906000526020600020905b81548152906001019060200180831161085657829003601f168201915b5050505050905083565b6000838383600061088d83610dfb565b905060ff81161561089d82610cba565b906108c45760405162461bcd60e51b81526004016108bb9190611239565b60405180910390fd5b5060085460ff16156108d557600080fd5b6001600160a01b0387161580159061090557506001600160a01b0388166000908152600c60205260409020548611155b801561093457506001600160a01b0388166000908152600d602090815260408083203384529091529020548611155b61093d57600080fd5b6001600160a01b0388166000908152600c60205260409020546109619087906113ea565b6001600160a01b03808a166000908152600c602052604080822093909355908916815220546109919087906113fd565b6001600160a01b038089166000908152600c6020908152604080832094909455918b168152600d825282812033825290915220546109d09087906113ea565b6001600160a01b038981166000818152600d602090815260408083203384528252918290209490945551898152918a169290917fddf252ad1be2c89b69c2b068fc378daa952ba7f163c4a11628f55a4df523b3ef910160405180910390a3506001979650505050505050565b6005546000906001600160a01b03163314610a5657600080fd5b506001600160a01b03811660009081526006602052604090205460ff165b919050565b600033610a9b818585610a8c838361106b565b610a9691906113fd565b6110cf565b5060019392505050565b3360009081526006602052604090205460ff161515600114610ac657600080fd5b60085460ff16610ad557600080fd5b6008805460ff191690556040513381527f5b458f30661b64d53169f3d852fe57bbaf55cb8f5615af19114f2c9b7bb52c0e906020015b60405180910390a1565b60085460009060ff1615610b2857600080fd5b3360009081526006602052604090205460ff161515600114610b4957600080fd5b6001600160a01b038316610b5c57600080fd5b81600e6000828254610b6e91906113fd565b9182905550600e55506001600160a01b0383166000908152600c6020526040902054610b9b9083906113fd565b6001600160a01b0384166000818152600c60205260408082209390935591519091907fddf252ad1be2c89b69c2b068fc378daa952ba7f163c4a11628f55a4df523b3ef906106ab9086815260200190565b60085460009060ff1615610bff57600080fd5b3360009081526006602052604090205460ff161515600114610c2057600080fd5b336000908152600c6020526040902054821115610c3c57600080fd5b336000908152600c602052604081208054849290610c5b9084906113ea565b9250508190555081600e6000828254610c7491906113ea565b909155505060408051338152602081018490527fcc16f5dbb4873280815c1ee09dbd06736cffcc184412cf7a71a0fdb75d397ca5910160405180910390a1506001919050565b606060ff8216610ce75750506040805180820190915260078152665355434345535360c81b602082015290565b60001960ff831601610a74576040518060600160405280602781526020016114116027913992915050565b3360009081526006602052604090205460ff161515600114610d3357600080fd5b6001600160a01b03811615801590610d6357506001600160a01b03811660009081526007602052604090205460ff165b610d6c57600080fd5b6001600160a01b03166000908152600760205260409020805460ff19169055565b3360009081526006602052604090205460ff161515600114610dae57600080fd5b60085460ff1615610dbe57600080fd5b6008805460ff191660011790556040513381527f507601cb28731d1f402d3760797e1a1b121a6b956be4fef723175be45cce566390602001610b0b565b6001600160a01b03811660009081526007602052604081205460ff16610e2357506001919050565b506000919050565b6060600480546105bf9061139a565b3360009081526006602052604090205460ff161515600114610e5b57600080fd5b6001600160a01b03811615801590610e8c57506001600160a01b03811660009081526007602052604090205460ff16155b610e9557600080fd5b6001600160a01b03166000908152600760205260409020805460ff19166001179055565b60003381610ec7828661106b565b905083811015610f275760405162461bcd60e51b815260206004820152602560248201527f45524332303a2064656372656173656420616c6c6f77616e63652062656c6f77604482015264207a65726f60d81b60648201526084016108bb565b610f3482868684036110cf565b506001949350505050565b60003383836000610f4f83610dfb565b905060ff811615610f5f82610cba565b90610f7d5760405162461bcd60e51b81526004016108bb9190611239565b5060085460ff1615610f8e57600080fd5b6001600160a01b03871615801590610fb45750336000908152600c602052604090205486105b610fbd57600080fd5b336000908152600c6020526040902054610fd89087906113ea565b336000908152600c6020526040808220929092556001600160a01b038916815220546110059087906113fd565b6001600160a01b0388166000818152600c60205260409081902092909255905133907fddf252ad1be2c89b69c2b068fc378daa952ba7f163c4a11628f55a4df523b3ef90611056908a815260200190565b60405180910390a35060019695505050505050565b6001600160a01b039182166000908152600d6020908152604080832093909416825291909152205490565b6005546001600160a01b031633146110ad57600080fd5b600580546001600160a01b0319166001600160a01b0392909216919091179055565b6001600160a01b0383166111315760405162461bcd60e51b8152602060048201526024808201527f45524332303a20617070726f76652066726f6d20746865207a65726f206164646044820152637265737360e01b60648201526084016108bb565b6001600160a01b0382166111925760405162461bcd60e51b815260206004820152602260248201527f45524332303a20617070726f766520746f20746865207a65726f206164647265604482015261737360f01b60648201526084016108bb565b6001600160a01b0383811660008181526001602090815260408083209487168084529482529182902085905590518481527f8c5be1e5ebec7d5bd14f71427d1e84f3dd0314c0f7b2291e5b200ac8c7c3b925910160405180910390a3505050565b6000815180845260005b81811015611219576020818501810151868301820152016111fd565b506000602082860101526020601f19601f83011685010191505092915050565b60208152600061124c60208301846111f3565b9392505050565b80356001600160a01b0381168114610a7457600080fd5b6000806040838503121561127d57600080fd5b61128683611253565b946020939093013593505050565b6000602082840312156112a657600080fd5b61124c82611253565b6001600160a01b03841681526060602082018190526000906112d3908301856111f3565b82810360408401526112e581856111f3565b9695505050505050565b60008060006060848603121561130457600080fd5b61130d84611253565b925061131b60208501611253565b9150604084013590509250925092565b60006020828403121561133d57600080fd5b5035919050565b60006020828403121561135657600080fd5b813560ff8116811461124c57600080fd5b6000806040838503121561137a57600080fd5b61138383611253565b915061139160208401611253565b90509250929050565b600181811c908216806113ae57607f821691505b6020821081036113ce57634e487b7160e01b600052602260045260246000fd5b50919050565b634e487b7160e01b600052601160045260246000fd5b818103818111156106b7576106b76113d4565b808201808211156106b7576106b76113d456fe494c4c4547414c5f5452414e534645525f544f5f44454e595f4c49535445445f41444452455353a26469706673582212201f233e647fc62094fd785fce46113ca858b4499990e4e5ba6bea49843b229c7c64736f6c63430008130033",
    "sourcePath": "c:/Users/user/Documents/Projects/cw2/contracts/DlvToken.sol",
    "compiler": {
        "name": "solc",
        "version": "0.8.19+commit.7dd6d404"
    },
    "functionHashes": {
        "DENY_LIST_CODE()": "f86b3930",
        "DENY_LIST_ERROR()": "0cb8b89c",
        "SUCCESS_CODE()": "0e969a05",
        "SUCCESS_MESSAGE()": "e7984d17",
        "addAdmin(address)": "70480275",
        "addAllowList(address)": "9da21167",
        "allowance(address,address)": "dd62ed3e",
        "approve(address,uint256)": "095ea7b3",
        "balanceOf(address)": "70a08231",
        "burn(uint256)": "42966c68",
        "decimals()": "313ce567",
        "decreaseAllowance(address,uint256)": "a457c2d7",
        "increaseAllowance(address,uint256)": "39509351",
        "isAdmin(address)": "24d7806c",
        "isAllowList(address)": "f5964e08",
        "messageHandler(uint8)": "43f432d5",
        "mint(address,uint256)": "40c10f19",
        "name()": "06fdde03",
        "owner()": "8da5cb5b",
        "pause()": "8456cb59",
        "removeAdmin(address)": "1785f53c",
        "removeAllowListed(address)": "7d474527",
        "symbol()": "95d89b41",
        "tokenSummary()": "1fc37784",
        "totalSupply()": "18160ddd",
        "transfer(address,uint256)": "a9059cbb",
        "transferFrom(address,address,uint256)": "23b872dd",
        "transferOwnership(address)": "f2fde38b",
        "unpause()": "3f4ba83a",
        "validateTransferRestricted(address)": "9033cb28"
    },
    "gasEstimates": {
        "creation": {
            "codeDepositCost": "1045800",
            "executionCost": "infinite",
            "totalCost": "infinite"
        },
        "external": {
            "": "193",
            "DENY_LIST_CODE()": "314",
            "DENY_LIST_ERROR()": "infinite",
            "SUCCESS_CODE()": "250",
            "SUCCESS_MESSAGE()": "infinite",
            "addAdmin(address)": "29058",
            "addAllowList(address)": "29120",
            "allowance(address,address)": "infinite",
            "approve(address,uint256)": "24590",
            "balanceOf(address)": "2605",
            "burn(uint256)": "infinite",
            "decimals()": "291",
            "decreaseAllowance(address,uint256)": "27017",
            "increaseAllowance(address,uint256)": "27095",
            "isAdmin(address)": "infinite",
            "isAllowList(address)": "2637",
            "messageHandler(uint8)": "infinite",
            "mint(address,uint256)": "infinite",
            "name()": "infinite",
            "owner()": "2404",
            "pause()": "29810",
            "removeAdmin(address)": "29080",
            "removeAllowListed(address)": "29156",
            "symbol()": "infinite",
            "tokenSummary()": "infinite",
            "totalSupply()": "2371",
            "transfer(address,uint256)": "infinite",
            "transferFrom(address,address,uint256)": "infinite",
            "transferOwnership(address)": "26777",
            "unpause()": "29790",
            "validateTransferRestricted(address)": "2680"
        }
    }
}