{
    "contractName": "owned",
    "abi": [
        {
            "inputs": [],
            "stateMutability": "nonpayable",
            "type": "constructor"
        },
        {
            "inputs": [
                {
                    "internalType": "address",
                    "name": "account",
                    "type": "address"
                }
            ],
            "name": "addAdmin",
            "outputs": [],
            "stateMutability": "nonpayable",
            "type": "function"
        },
        {
            "inputs": [
                {
                    "internalType": "address",
                    "name": "account",
                    "type": "address"
                }
            ],
            "name": "isAdmin",
            "outputs": [
                {
                    "internalType": "bool",
                    "name": "",
                    "type": "bool"
                }
            ],
            "stateMutability": "view",
            "type": "function"
        },
        {
            "inputs": [],
            "name": "owner",
            "outputs": [
                {
                    "internalType": "address",
                    "name": "",
                    "type": "address"
                }
            ],
            "stateMutability": "view",
            "type": "function"
        },
        {
            "inputs": [
                {
                    "internalType": "address",
                    "name": "account",
                    "type": "address"
                }
            ],
            "name": "removeAdmin",
            "outputs": [],
            "stateMutability": "nonpayable",
            "type": "function"
        },
        {
            "inputs": [
                {
                    "internalType": "address",
                    "name": "newOwner",
                    "type": "address"
                }
            ],
            "name": "transferOwnership",
            "outputs": [],
            "stateMutability": "nonpayable",
            "type": "function"
        }
    ],
    "bytecode": "608060405234801561001057600080fd5b50600080546001600160a01b0319163390811782558152600160208190526040909120805460ff191690911790556102258061004d6000396000f3fe608060405234801561001057600080fd5b50600436106100575760003560e01c80631785f53c1461005c57806324d7806c14610071578063704802751461005c5780638da5cb5b14610099578063f2fde38b146100c4575b600080fd5b61006f61006a3660046101bf565b6100d7565b005b61008461007f3660046101bf565b61014f565b60405190151581526020015b60405180910390f35b6000546100ac906001600160a01b031681565b6040516001600160a01b039091168152602001610090565b61006f6100d23660046101bf565b610186565b6000546001600160a01b031633146100ee57600080fd5b6001600160a01b0381161580159061011f57506001600160a01b03811660009081526001602052604090205460ff16155b61012857600080fd5b6001600160a01b03166000908152600160208190526040909120805460ff19169091179055565b600080546001600160a01b0316331461016757600080fd5b506001600160a01b031660009081526001602052604090205460ff1690565b6000546001600160a01b0316331461019d57600080fd5b600080546001600160a01b0319166001600160a01b0392909216919091179055565b6000602082840312156101d157600080fd5b81356001600160a01b03811681146101e857600080fd5b939250505056fea264697066735822122081c84bc2b6e4fc2b15cbfd76ff6a589b9ca38373d791a1c89d907ece99b3831164736f6c63430008130033",
    "sourcePath": "c:/Users/user/Documents/Projects/cw2/contracts/DlvToken.sol",
    "compiler": {
        "name": "solc",
        "version": "0.8.19+commit.7dd6d404"
    },
    "functionHashes": {
        "addAdmin(address)": "70480275",
        "isAdmin(address)": "24d7806c",
        "owner()": "8da5cb5b",
        "removeAdmin(address)": "1785f53c",
        "transferOwnership(address)": "f2fde38b"
    },
    "gasEstimates": {
        "creation": {
            "codeDepositCost": "109800",
            "executionCost": "48696",
            "totalCost": "158496"
        },
        "external": {
            "addAdmin(address)": "29011",
            "isAdmin(address)": "4660",
            "owner()": "2381",
            "removeAdmin(address)": "28967",
            "transferOwnership(address)": "26742"
        }
    }
}