{
    "contractName": "raffle",
    "abi": [
        {
            "inputs": [],
            "stateMutability": "nonpayable",
            "type": "constructor"
        },
        {
            "anonymous": false,
            "inputs": [
                {
                    "indexed": false,
                    "internalType": "address",
                    "name": "",
                    "type": "address"
                },
                {
                    "indexed": false,
                    "internalType": "uint256",
                    "name": "",
                    "type": "uint256"
                },
                {
                    "indexed": false,
                    "internalType": "uint256",
                    "name": "",
                    "type": "uint256"
                }
            ],
            "name": "issueReceipt",
            "type": "event"
        },
        {
            "anonymous": false,
            "inputs": [
                {
                    "indexed": false,
                    "internalType": "address",
                    "name": "",
                    "type": "address"
                },
                {
                    "indexed": false,
                    "internalType": "uint256",
                    "name": "",
                    "type": "uint256"
                }
            ],
            "name": "winningTicketDisplay",
            "type": "event"
        },
        {
            "inputs": [
                {
                    "internalType": "address",
                    "name": "_addr",
                    "type": "address"
                }
            ],
            "name": "balanceOf",
            "outputs": [
                {
                    "internalType": "uint256",
                    "name": "",
                    "type": "uint256"
                }
            ],
            "stateMutability": "view",
            "type": "function"
        },
        {
            "inputs": [
                {
                    "internalType": "address",
                    "name": "",
                    "type": "address"
                }
            ],
            "name": "balances",
            "outputs": [
                {
                    "internalType": "uint256",
                    "name": "",
                    "type": "uint256"
                }
            ],
            "stateMutability": "view",
            "type": "function"
        },
        {
            "inputs": [],
            "name": "buyTicket",
            "outputs": [],
            "stateMutability": "nonpayable",
            "type": "function"
        },
        {
            "inputs": [
                {
                    "internalType": "uint256",
                    "name": "",
                    "type": "uint256"
                }
            ],
            "name": "buyers",
            "outputs": [
                {
                    "internalType": "address",
                    "name": "",
                    "type": "address"
                }
            ],
            "stateMutability": "view",
            "type": "function"
        },
        {
            "inputs": [
                {
                    "internalType": "uint256",
                    "name": "_amount",
                    "type": "uint256"
                }
            ],
            "name": "collect",
            "outputs": [
                {
                    "internalType": "bool",
                    "name": "",
                    "type": "bool"
                }
            ],
            "stateMutability": "payable",
            "type": "function"
        },
        {
            "inputs": [],
            "name": "contractAccount",
            "outputs": [
                {
                    "internalType": "address",
                    "name": "",
                    "type": "address"
                }
            ],
            "stateMutability": "view",
            "type": "function"
        },
        {
            "inputs": [],
            "name": "contractBalance",
            "outputs": [
                {
                    "internalType": "uint256",
                    "name": "",
                    "type": "uint256"
                }
            ],
            "stateMutability": "view",
            "type": "function"
        },
        {
            "inputs": [],
            "name": "createAccount",
            "outputs": [
                {
                    "internalType": "bool",
                    "name": "",
                    "type": "bool"
                }
            ],
            "stateMutability": "payable",
            "type": "function"
        },
        {
            "inputs": [
                {
                    "internalType": "address",
                    "name": "",
                    "type": "address"
                }
            ],
            "name": "number",
            "outputs": [
                {
                    "internalType": "uint256",
                    "name": "",
                    "type": "uint256"
                }
            ],
            "stateMutability": "view",
            "type": "function"
        },
        {
            "inputs": [
                {
                    "internalType": "uint256",
                    "name": "",
                    "type": "uint256"
                }
            ],
            "name": "numbers",
            "outputs": [
                {
                    "internalType": "uint256",
                    "name": "",
                    "type": "uint256"
                }
            ],
            "stateMutability": "view",
            "type": "function"
        },
        {
            "inputs": [],
            "name": "ownerAccount",
            "outputs": [
                {
                    "internalType": "address",
                    "name": "",
                    "type": "address"
                }
            ],
            "stateMutability": "view",
            "type": "function"
        },
        {
            "inputs": [],
            "name": "ownerBalance",
            "outputs": [
                {
                    "internalType": "uint256",
                    "name": "",
                    "type": "uint256"
                }
            ],
            "stateMutability": "view",
            "type": "function"
        },
        {
            "inputs": [
                {
                    "internalType": "address",
                    "name": "",
                    "type": "address"
                }
            ],
            "name": "receipt",
            "outputs": [
                {
                    "internalType": "bool",
                    "name": "",
                    "type": "bool"
                }
            ],
            "stateMutability": "view",
            "type": "function"
        },
        {
            "inputs": [],
            "name": "reset",
            "outputs": [],
            "stateMutability": "nonpayable",
            "type": "function"
        },
        {
            "inputs": [],
            "name": "ticketsSold",
            "outputs": [
                {
                    "internalType": "uint256",
                    "name": "",
                    "type": "uint256"
                }
            ],
            "stateMutability": "view",
            "type": "function"
        },
        {
            "inputs": [],
            "name": "totalSupply",
            "outputs": [
                {
                    "internalType": "uint256",
                    "name": "",
                    "type": "uint256"
                }
            ],
            "stateMutability": "view",
            "type": "function"
        },
        {
            "inputs": [],
            "name": "totalSupplyJP",
            "outputs": [
                {
                    "internalType": "uint256",
                    "name": "",
                    "type": "uint256"
                }
            ],
            "stateMutability": "view",
            "type": "function"
        },
        {
            "inputs": [
                {
                    "internalType": "address",
                    "name": "_to",
                    "type": "address"
                },
                {
                    "internalType": "uint256",
                    "name": "amount",
                    "type": "uint256"
                }
            ],
            "name": "transfer",
            "outputs": [
                {
                    "internalType": "bool",
                    "name": "",
                    "type": "bool"
                }
            ],
            "stateMutability": "nonpayable",
            "type": "function"
        },
        {
            "inputs": [
                {
                    "internalType": "address",
                    "name": "from",
                    "type": "address"
                },
                {
                    "internalType": "address",
                    "name": "to",
                    "type": "address"
                },
                {
                    "internalType": "uint256",
                    "name": "amount",
                    "type": "uint256"
                }
            ],
            "name": "transferFrom",
            "outputs": [
                {
                    "internalType": "bool",
                    "name": "",
                    "type": "bool"
                }
            ],
            "stateMutability": "nonpayable",
            "type": "function"
        },
        {
            "inputs": [],
            "name": "winner",
            "outputs": [],
            "stateMutability": "nonpayable",
            "type": "function"
        },
        {
            "stateMutability": "payable",
            "type": "receive"
        }
    ],
    "bytecode": "6080604052670de0b6b3a76400006000908155600b805460ff19169055600c5534801561002b57600080fd5b50600680546001600160a01b03199081163017909155600060078190556008805490921633179091556009556112c0806100666000396000f3fe6080604052600436106101235760003560e01c8063b154be85116100a0578063dfbf53ae11610064578063dfbf53ae146102ff578063e35e566314610314578063ea47cb2414610344578063edca914c14610364578063f2aa82181461037957600080fd5b8063b154be8514610272578063bedcf0031461029f578063ce3f865f146102b5578063d39fa233146102c8578063d826f88f146102e857600080fd5b80638b7afe2e116100e75780638b7afe2e146101e65780638f15024f146101fc5780639dca362f14610212578063a9059cbb1461021a578063abb34bda1461023a57600080fd5b806318160ddd1461012f57806323b872dd1461015357806327e235e31461018357806340f0ec0a146101b057806370a08231146101c657600080fd5b3661012a57005b600080fd5b34801561013b57600080fd5b506000545b6040519081526020015b60405180910390f35b34801561015f57600080fd5b5061017361016e366004611095565b610399565b604051901515815260200161014a565b34801561018f57600080fd5b5061014061019e3660046110d1565b60016020526000908152604090205481565b3480156101bc57600080fd5b5061014060005481565b3480156101d257600080fd5b506101406101e13660046110d1565b610547565b3480156101f257600080fd5b5061014060075481565b34801561020857600080fd5b50610140600a5481565b61017361058f565b34801561022657600080fd5b506101736102353660046110f3565b610724565b34801561024657600080fd5b5060065461025a906001600160a01b031681565b6040516001600160a01b03909116815260200161014a565b34801561027e57600080fd5b5061014061028d3660046110d1565b60036020526000908152604090205481565b3480156102ab57600080fd5b5061014060095481565b6101736102c336600461111d565b610888565b3480156102d457600080fd5b506101406102e336600461111d565b61099a565b3480156102f457600080fd5b506102fd6109bb565b005b34801561030b57600080fd5b506102fd610b0b565b34801561032057600080fd5b5061017361032f3660046110d1565b60026020526000908152604090205460ff1681565b34801561035057600080fd5b5060085461025a906001600160a01b031681565b34801561037057600080fd5b506102fd610d21565b34801561038557600080fd5b5061025a61039436600461111d565b610f79565b60065460009081906001600160a01b039081169086160361042f578260075410156103df5760405162461bcd60e51b81526004016103d690611136565b60405180910390fd5b6001600160a01b03841660009081526001602052604081208054859290610407908490611178565b925050819055508260076000828254610420919061118b565b909155506001915061053f9050565b6008546001600160a01b03908116908616036104a8578260095410156104675760405162461bcd60e51b81526004016103d690611136565b6001600160a01b0384166000908152600160205260408120805485929061048f908490611178565b925050819055508260096000828254610420919061118b565b6001600160a01b0385166000908152600160205260409020548311156104e05760405162461bcd60e51b81526004016103d690611136565b6001600160a01b03841660009081526001602052604081208054859290610508908490611178565b90915550506001600160a01b0385166000908152600160205260408120805485929061053590849061118b565b9091555060019150505b949350505050565b600081336001600160a01b038216146105725760405162461bcd60e51b81526004016103d69061119e565b50506001600160a01b031660009081526001602052604090205490565b60003334670de0b6b3a7640000146105dd5760405162461bcd60e51b81526020600482015260116024820152702430b9903a3790313290189032ba3432b960791b60448201526064016103d6565b60006127106000546105ef919061118b565b1161063c5760405162461bcd60e51b815260206004820152601c60248201527f4e6f206d6f726520636f696e7320696e2063697263756c6174696f6e0000000060448201526064016103d6565b6006546040516000916001600160a01b031690670de0b6b3a7640000908381818185875af1925050503d8060008114610691576040519150601f19603f3d011682016040523d82523d6000602084013e610696565b606091505b50509050806106dc5760405162461bcd60e51b8152602060048201526012602482015271115d1a195c881b9bdd081c9958d95a5d995960721b60448201526064016103d6565b336000908152600160205260408120805461271092906106fd908490611178565b92505081905550612710600080828254610717919061118b565b90915550909250505b5090565b336000908152600160205260408120548211156107785760405162461bcd60e51b8152602060048201526012602482015271496e73756666696369656e742066756e647360701b60448201526064016103d6565b6006546000906001600160a01b03908116908516036107d85733600090815260016020526040812080548592906107b090849061118b565b9250508190555082600760008282546107c99190611178565b909155506001915061087c9050565b6008546001600160a01b039081169085160361082657336000908152600160205260408120805485929061080d90849061118b565b9250508190555082600960008282546107c99190611178565b6001600160a01b0384166000908152600160205260408120805485929061084e908490611178565b9091555050336000908152600160205260408120805485929061087290849061118b565b9091555060019150505b60019150505b92915050565b6008546000906001600160a01b031633146108b55760405162461bcd60e51b81526004016103d69061119e565b333182106108fa5760405162461bcd60e51b8152602060048201526012602482015271496e73756666696369656e742066756e647360701b60448201526064016103d6565b6008546040516000916001600160a01b03169084908381818185875af1925050503d8060008114610947576040519150601f19603f3d011682016040523d82523d6000602084013e61094c565b606091505b50509050806109925760405162461bcd60e51b8152602060048201526012602482015271115d1a195c881b9bdd081c9958d95a5d995960721b60448201526064016103d6565b90505b919050565b600581815481106109aa57600080fd5b600091825260209091200154905081565b6008546001600160a01b031633146109e55760405162461bcd60e51b81526004016103d69061119e565b600b5460ff16610a2d5760405162461bcd60e51b815260206004820152601360248201527214d95b1958dd081dda5b9b995c88199a5c9cdd606a1b60448201526064016103d6565b60005b600454811015610ae15760006002600060048481548110610a5357610a536111d5565b6000918252602080832091909101546001600160a01b031683528201929092526040019020805460ff1916911515919091179055610a936003600a611178565b6003600060048481548110610aaa57610aaa6111d5565b60009182526020808320909101546001600160a01b0316835282019290925260400190205580610ad9816111eb565b915050610a30565b50610aee60056000611048565b610afa60046000611048565b6000600a55600b805460ff19169055565b6008546001600160a01b03163314610b355760405162461bcd60e51b81526004016103d69061119e565b600a54600314610b875760405162461bcd60e51b815260206004820152601e60248201527f416c6c207469636b6574732068617665206e6f74206265656e20736f6c64000060448201526064016103d6565b60006003610b93610fa3565b610b9d9190611204565b600c80549192506000610baf836111eb565b919050555060005b600454811015610c15576003600060048381548110610bd857610bd86111d5565b60009182526020808320909101546001600160a01b031683528201929092526040019020548214610c155780610c0d816111eb565b915050610bb7565b6000610c2360646003611226565b60065460048054929350610c68926001600160a01b039092169185908110610c4d57610c4d6111d5565b6000918252602090912001546001600160a01b031683610399565b610caa5760405162461bcd60e51b81526020600482015260136024820152721516081d1bc81dda5b9b995c8819985a5b1959606a1b60448201526064016103d6565b600b805460ff19166001179055600480547fc970c79fd29e4231e4dd549ee0a6b59f07bcb6fbdb8cdabdc977f618f1bf0b24919084908110610cee57610cee6111d5565b60009182526020918290200154604080516001600160a01b039092168252918101869052015b60405180910390a1505050565b33600a54600311610d665760405162461bcd60e51b815260206004820152600f60248201526e4e6f206d6f7265207469636b65747360881b60448201526064016103d6565b3360009081526002602052604090205460ff1615610de15760405162461bcd60e51b815260206004820152603260248201527f4f6e65207469636b65742070657220637573746f6d65722c20796f7520616c726044820152711958591e481a185d994818481d1a58dad95d60721b60648201526084016103d6565b600160005b8115610e27576003610df6610fa3565b610e009190611204565b600c80549192506000610e12836111eb565b9190505550610e2081610ff3565b9150610de6565b600654610e3e906001600160a01b03166064610724565b610e7f5760405162461bcd60e51b81526020600482015260126024820152711516081d1c985b9cd9995c8819985a5b195960721b60448201526064016103d6565b6005805460018181019092557f036b6384b5eca791c62761152d0c79bb0604c104a5fb6f4eb0703f3154bb3db00182905533600081815260036020908152604080832086905560029091528120805460ff19168417905560048054938401815581527f8a35acfbc15ff81a39ae7d344fd709f28e8600b4aa8c65c6b64bfe7fe36bd19b90920180546001600160a01b0319169091179055600a805491610f24836111eb565b909155505033600081815260036020908152604091829020548251938452606491840191909152908201527f9e226c08b609b9a6012e41212f9d0a13ab72181653e0f13e76ce991d796ddf7390606001610d14565b60048181548110610f8957600080fd5b6000918252602090912001546001600160a01b0316905081565b600080426004600c54604051602001610fbe9392919061123d565b60408051601f198184030181529190528051602090910120600c80549192506000610fe8836111eb565b909155509092915050565b600080805b6005548110156110415760058181548110611015576110156111d5565b9060005260206000200154840361102f5760019150611041565b80611039816111eb565b915050610ff8565b5092915050565b50805460008255906000526020600020908101906110669190611069565b50565b5b80821115610720576000815560010161106a565b80356001600160a01b038116811461099557600080fd5b6000806000606084860312156110aa57600080fd5b6110b38461107e565b92506110c16020850161107e565b9150604084013590509250925092565b6000602082840312156110e357600080fd5b6110ec8261107e565b9392505050565b6000806040838503121561110657600080fd5b61110f8361107e565b946020939093013593505050565b60006020828403121561112f57600080fd5b5035919050565b602080825260129082015271496e73756666696369656e742046756e647360701b604082015260600190565b634e487b7160e01b600052601160045260246000fd5b8082018082111561088257610882611162565b8181038181111561088257610882611162565b60208082526017908201527f496e73756666696369656e742070726976696c65676573000000000000000000604082015260600190565b634e487b7160e01b600052603260045260246000fd5b6000600182016111fd576111fd611162565b5060010190565b60008261122157634e487b7160e01b600052601260045260246000fd5b500690565b808202811582820484141761088257610882611162565b838152600060208083018554866000528260002060005b828110156112795781546001600160a01b031684529284019260019182019101611254565b50505093845290920194935050505056fea26469706673582212202a9e17017cc72157d1965b427d40f7a22c34e94e1477dc9d045da96d7d97573f64736f6c63430008130033",
    "sourcePath": "c:/Users/user/Documents/Projects/cw2/contracts/examples/raffle.sol",
    "compiler": {
        "name": "solc",
        "version": "0.8.19+commit.7dd6d404"
    },
    "functionHashes": {
        "balanceOf(address)": "70a08231",
        "balances(address)": "27e235e3",
        "buyTicket()": "edca914c",
        "buyers(uint256)": "f2aa8218",
        "collect(uint256)": "ce3f865f",
        "contractAccount()": "abb34bda",
        "contractBalance()": "8b7afe2e",
        "createAccount()": "9dca362f",
        "number(address)": "b154be85",
        "numbers(uint256)": "d39fa233",
        "ownerAccount()": "ea47cb24",
        "ownerBalance()": "bedcf003",
        "receipt(address)": "e35e5663",
        "reset()": "d826f88f",
        "ticketsSold()": "8f15024f",
        "totalSupply()": "18160ddd",
        "totalSupplyJP()": "40f0ec0a",
        "transfer(address,uint256)": "a9059cbb",
        "transferFrom(address,address,uint256)": "23b872dd",
        "winner()": "dfbf53ae"
    },
    "gasEstimates": {
        "creation": {
            "codeDepositCost": "960000",
            "executionCost": "110812",
            "totalCost": "1070812"
        },
        "external": {
            "balanceOf(address)": "2700",
            "balances(address)": "2576",
            "buyTicket()": "infinite",
            "buyers(uint256)": "4724",
            "collect(uint256)": "infinite",
            "contractAccount()": "2448",
            "contractBalance()": "2307",
            "createAccount()": "infinite",
            "number(address)": "2531",
            "numbers(uint256)": "4653",
            "ownerAccount()": "2403",
            "ownerBalance()": "2329",
            "receipt(address)": "2575",
            "reset()": "infinite",
            "ticketsSold()": "2329",
            "totalSupply()": "2294",
            "totalSupplyJP()": "2374",
            "transfer(address,uint256)": "infinite",
            "transferFrom(address,address,uint256)": "infinite",
            "winner()": "infinite"
        },
        "internal": {
            "isAlreadyChosen(uint256)": "infinite",
            "random()": "infinite"
        }
    }
}