{
  "contractName": "AllowList",
  "abi": [
    {
      "inputs": [
        {
          "internalType": "address",
          "name": "account",
          "type": "address"
        }
      ],
      "name": "addAdmin",
      "outputs": [],
      "stateMutability": "nonpayable",
      "type": "function"
    },
    {
      "inputs": [
        {
          "internalType": "address",
          "name": "account",
          "type": "address"
        }
      ],
      "name": "isAdmin",
      "outputs": [
        {
          "internalType": "bool",
          "name": "",
          "type": "bool"
        }
      ],
      "stateMutability": "view",
      "type": "function"
    },
    {
      "inputs": [],
      "name": "owner",
      "outputs": [
        {
          "internalType": "address",
          "name": "",
          "type": "address"
        }
      ],
      "stateMutability": "view",
      "type": "function"
    },
    {
      "inputs": [
        {
          "internalType": "address",
          "name": "account",
          "type": "address"
        }
      ],
      "name": "removeAdmin",
      "outputs": [],
      "stateMutability": "nonpayable",
      "type": "function"
    },
    {
      "inputs": [
        {
          "internalType": "address",
          "name": "newOwner",
          "type": "address"
        }
      ],
      "name": "transferOwnership",
      "outputs": [],
      "stateMutability": "nonpayable",
      "type": "function"
    },
    {
      "inputs": [
        {
          "internalType": "address",
          "name": "account",
          "type": "address"
        }
      ],
      "name": "addAllowList",
      "outputs": [],
      "stateMutability": "nonpayable",
      "type": "function"
    },
    {
      "inputs": [
        {
          "internalType": "address",
          "name": "account",
          "type": "address"
        }
      ],
      "name": "isAllowList",
      "outputs": [
        {
          "internalType": "bool",
          "name": "",
          "type": "bool"
        }
      ],
      "stateMutability": "view",
      "type": "function"
    },
    {
      "inputs": [
        {
          "internalType": "address",
          "name": "account",
          "type": "address"
        }
      ],
      "name": "removeAllowListed",
      "outputs": [],
      "stateMutability": "nonpayable",
      "type": "function"
    }
  ],
  "bytecode": "0x608060405234801561001057600080fd5b50336000806101000a81548173ffffffffffffffffffffffffffffffffffffffff021916908373ffffffffffffffffffffffffffffffffffffffff16021790555060018060003373ffffffffffffffffffffffffffffffffffffffff1673ffffffffffffffffffffffffffffffffffffffff16815260200190815260200160002060006101000a81548160ff021916908315150217905550610994806100b76000396000f3fe608060405234801561001057600080fd5b50600436106100885760003560e01c80638da5cb5b1161005b5780638da5cb5b146101115780639da211671461012f578063f2fde38b1461014b578063f5964e081461016757610088565b80631785f53c1461008d57806324d7806c146100a957806370480275146100d95780637d474527146100f5575b600080fd5b6100a760048036038101906100a291906108d1565b610197565b005b6100c360048036038101906100be91906108d1565b6102d9565b6040516100d09190610919565b60405180910390f35b6100f360048036038101906100ee91906108d1565b610388565b005b61010f600480360381019061010a91906108d1565b6104ca565b005b610119610611565b6040516101269190610943565b60405180910390f35b610149600480360381019061014491906108d1565b610635565b005b610165600480360381019061016091906108d1565b61077d565b005b610181600480360381019061017c91906108d1565b610818565b60405161018e9190610919565b60405180910390f35b60008054906101000a900473ffffffffffffffffffffffffffffffffffffffff1673ffffffffffffffffffffffffffffffffffffffff163373ffffffffffffffffffffffffffffffffffffffff16146101ef57600080fd5b600073ffffffffffffffffffffffffffffffffffffffff168173ffffffffffffffffffffffffffffffffffffffff16141580156102765750600160008273ffffffffffffffffffffffffffffffffffffffff1673ffffffffffffffffffffffffffffffffffffffff16815260200190815260200160002060009054906101000a900460ff16155b61027f57600080fd5b60018060008373ffffffffffffffffffffffffffffffffffffffff1673ffffffffffffffffffffffffffffffffffffffff16815260200190815260200160002060006101000a81548160ff02191690831515021790555050565b60008060009054906101000a900473ffffffffffffffffffffffffffffffffffffffff1673ffffffffffffffffffffffffffffffffffffffff163373ffffffffffffffffffffffffffffffffffffffff161461033457600080fd5b600160008373ffffffffffffffffffffffffffffffffffffffff1673ffffffffffffffffffffffffffffffffffffffff16815260200190815260200160002060009054906101000a900460ff169050919050565b60008054906101000a900473ffffffffffffffffffffffffffffffffffffffff1673ffffffffffffffffffffffffffffffffffffffff163373ffffffffffffffffffffffffffffffffffffffff16146103e057600080fd5b600073ffffffffffffffffffffffffffffffffffffffff168173ffffffffffffffffffffffffffffffffffffffff16141580156104675750600160008273ffffffffffffffffffffffffffffffffffffffff1673ffffffffffffffffffffffffffffffffffffffff16815260200190815260200160002060009054906101000a900460ff16155b61047057600080fd5b60018060008373ffffffffffffffffffffffffffffffffffffffff1673ffffffffffffffffffffffffffffffffffffffff16815260200190815260200160002060006101000a81548160ff02191690831515021790555050565b60011515600160003373ffffffffffffffffffffffffffffffffffffffff1673ffffffffffffffffffffffffffffffffffffffff16815260200190815260200160002060009054906101000a900460ff1615151461052757600080fd5b600073ffffffffffffffffffffffffffffffffffffffff168173ffffffffffffffffffffffffffffffffffffffff16141580156105ad5750600260008273ffffffffffffffffffffffffffffffffffffffff1673ffffffffffffffffffffffffffffffffffffffff16815260200190815260200160002060009054906101000a900460ff165b6105b657600080fd5b6000600260008373ffffffffffffffffffffffffffffffffffffffff1673ffffffffffffffffffffffffffffffffffffffff16815260200190815260200160002060006101000a81548160ff02191690831515021790555050565b60008054906101000a900473ffffffffffffffffffffffffffffffffffffffff1681565b60011515600160003373ffffffffffffffffffffffffffffffffffffffff1673ffffffffffffffffffffffffffffffffffffffff16815260200190815260200160002060009054906101000a900460ff1615151461069257600080fd5b600073ffffffffffffffffffffffffffffffffffffffff168173ffffffffffffffffffffffffffffffffffffffff16141580156107195750600260008273ffffffffffffffffffffffffffffffffffffffff1673ffffffffffffffffffffffffffffffffffffffff16815260200190815260200160002060009054906101000a900460ff16155b61072257600080fd5b6001600260008373ffffffffffffffffffffffffffffffffffffffff1673ffffffffffffffffffffffffffffffffffffffff16815260200190815260200160002060006101000a81548160ff02191690831515021790555050565b60008054906101000a900473ffffffffffffffffffffffffffffffffffffffff1673ffffffffffffffffffffffffffffffffffffffff163373ffffffffffffffffffffffffffffffffffffffff16146107d557600080fd5b806000806101000a81548173ffffffffffffffffffffffffffffffffffffffff021916908373ffffffffffffffffffffffffffffffffffffffff16021790555050565b6000600260008373ffffffffffffffffffffffffffffffffffffffff1673ffffffffffffffffffffffffffffffffffffffff16815260200190815260200160002060009054906101000a900460ff169050919050565b600080fd5b600073ffffffffffffffffffffffffffffffffffffffff82169050919050565b600061089e82610873565b9050919050565b6108ae81610893565b81146108b957600080fd5b50565b6000813590506108cb816108a5565b92915050565b6000602082840312156108e7576108e661086e565b5b60006108f5848285016108bc565b91505092915050565b60008115159050919050565b610913816108fe565b82525050565b600060208201905061092e600083018461090a565b92915050565b61093d81610893565b82525050565b60006020820190506109586000830184610934565b9291505056fea2646970667358221220b2d53689c3bbff5ad057c2570f347fb4a689af1a2e7d535d0493ab11627781dd64736f6c63430008120033",
  "immutableReferences": {},
  "source": "//SPDX-License-Identifier:MIT\npragma solidity ^0.8.0;\n\n/**\n *@notice The DlvToken implements the ERC20 token\n *@author brian wu\n *@modifications ian mitchell, Samuel Egemba, Ngunan Jiki\n */ \n\n/**\n * define owner, transfer owner and assign admin\n */\nimport \"@openzeppelin/contracts/token/ERC20/ERC20.sol\";\ncontract owned  {\n    address public owner;\n    mapping(address => bool) admins;\n    constructor (){\n        owner = msg.sender;\n        admins[msg.sender] = true;\n    }\n\n    modifier onlyOwner {\n        require(msg.sender == owner);\n    _;\n    }\n\n    modifier onlyAdmin() {\n        require(admins[msg.sender] == true);\n        _;\n    }\n\n    function transferOwnership(address newOwner) onlyOwner public {\n        owner = newOwner;\n    }\n\n    function isAdmin(address account) onlyOwner public view returns (bool) {   \n        return admins[account];\n    }\n\n    function addAdmin(address account) onlyOwner public {\n        require(account != address(0) && !admins[account]);             \n        admins[account] = true;    \n    }\n\n    function removeAdmin(address account) onlyOwner public {\n        require(account != address(0) && !admins[account]);\n        admins[account] = true;    \n    }\n}\n\n/**\n * manage allowList \n */\ncontract AllowList is owned {\n    mapping(address => bool) allowList;\n    function addAllowList(address account) onlyAdmin public{\n        require(account != address(0) && !allowList[account]);             \n        allowList[account] = true;    \n    }\n\n    function isAllowList(address account) public view returns (bool) {   \n        return allowList[account];\n    }\n\n    function removeAllowListed(address account) public onlyAdmin {\n        require(account != address(0) && allowList[account]);\n        allowList[account] = false;    \n    }\n}\n\n/**\n * make contract function pausable\n */\ncontract Pausable is owned {\n    event PausedEvt(address account);\n    event UnpausedEvt(address account);\n    bool private paused;\n    constructor ()  {\n        paused = false;\n    }\n\n    modifier whenNotPaused() {\n        require(!paused);\n        _;\n    }\n\n    modifier whenPaused() {\n        require(paused);\n        _;\n    }\n\n    function pause() public onlyAdmin whenNotPaused {\n        paused = true;\n        emit PausedEvt(msg.sender);\n    }\n\n    function unpause() public onlyAdmin whenPaused {\n        paused = false;\n        emit UnpausedEvt(msg.sender);\n    }\n}\n\n/**\n *Interface for ERC20\n */\n\ncontract DLVToken is ERC20, AllowList, Pausable {\n    TokenSummary public tokenSummary;\n    mapping(address => uint256) internal balances;\n    mapping (address => mapping (address => uint256)) internal allowed;\n    uint256 internal _totalSupply;\n    uint8 public constant SUCCESS_CODE = 0;\n    string public constant SUCCESS_MESSAGE = \"SUCCESS\";\n    uint8 public constant DENY_LIST_CODE = 1;\n    string public constant DENY_LIST_ERROR = \"ILLEGAL_TRANSFER_TO_DENY_LISTED_ADDRESS\";\n    \n    event Burn(address from, uint256 value);\n    struct TokenSummary {\n        address initialAccount;\n        string name;\n        string symbol;\n    }\n\n    constructor(string memory name_, string memory symbol_, address initialAccount, uint initialBalance) payable ERC20(name_,  symbol_)  {\n        addAllowList(initialAccount);\n        balances[initialAccount] = initialBalance;\n        _totalSupply = initialBalance;\n        tokenSummary = TokenSummary(initialAccount, name_, symbol_);\n    }\n\n    modifier verify (address from, address to, uint256 value) {\n        uint8 restrictionCode = validateTransferRestricted(to);\n        require(restrictionCode == SUCCESS_CODE, messageHandler(restrictionCode));\n        _;\n    }\n\n    function validateTransferRestricted (address to) public view returns (uint8 restrictionCode) {\n        if (!isAllowList(to)) {\n            restrictionCode = DENY_LIST_CODE;\n        } else {\n            restrictionCode = SUCCESS_CODE;\n        }\n    }\n\n    function messageHandler (uint8 restrictionCode) public pure returns (string memory message) {\n        if (restrictionCode == SUCCESS_CODE) {\n            message = SUCCESS_MESSAGE;\n        } else if(restrictionCode == DENY_LIST_CODE) {\n            message = DENY_LIST_ERROR;\n        }\n    }\n\n    function totalSupply() public override view returns (uint256) {\n       return _totalSupply;\n    }\n\n    function balanceOf(address account) public override view returns (uint256) {\n      return balances[account];\n    }\n\n    function transfer (address to, uint256 value) public override verify(msg.sender, to, value)\n    whenNotPaused  returns (bool success) {\n        require(to != address(0) && balances[msg.sender]> value);\n        balances[msg.sender] = balances[msg.sender] - value;\n        balances[to] = balances[to] + value;\n        emit Transfer(msg.sender, to, value);\n        return true;\n    }\n\n    function transferFrom(address from, address spender,uint256 value) public override verify(from, spender, value) whenNotPaused returns (bool) {\n        require(spender != address(0) && value <= balances[from] && value <= allowed[from][msg.sender]);\n        balances[from] = balances[from] - value;\n        balances[spender] = balances[spender] + value;\n        allowed[from][msg.sender] = allowed[from][msg.sender] - value;\n        emit Transfer(from, spender, value);\n        return true;\n  \t}\n\n\tfunction allowance(address owner,address spender) public override view returns (uint256) {\n   \t\treturn allowed[owner][spender];\n \t}\n\n\tfunction approve(address spender, uint256 value) public override returns (bool) {\n        require(spender != address(0));\n        allowed[msg.sender][spender] = value;\n        emit Approval(msg.sender, spender, value);\n        return true;\n   \t}\n\n\tfunction burn(uint256 value) public whenNotPaused onlyAdmin returns (bool success) {\n\t\trequire(balances[msg.sender] >= value); \n\t\tbalances[msg.sender] -= value; \n\t\t_totalSupply -= value;\n\t\temit Burn(msg.sender, value);\n\t\treturn true;\n\t}\n\t\n\tfunction mint(address account, uint256 value) public whenNotPaused onlyAdmin returns (bool) {\n\t\trequire(account != address(0));\n\t\t_totalSupply = _totalSupply += value;\n\t\tbalances[account] = balances[account] + value;\n\t\temit Transfer(address(0), account, value);\n\t\treturn true;\n  \t}\n\n\tfallback ()  external payable {\trevert();  }\n\n}",
  "sourcePath": "/home/ian/cw2/contracts/DlvToken.sol",
  "compiler": {
    "name": "solc",
    "version": "0.8.18+commit.87f61d96.Emscripten.clang"
  },
  "schemaVersion": "3.4.12",
  "updatedAt": "2023-03-31T12:52:06.786Z",
  "devdoc": {
    "kind": "dev",
    "methods": {},
    "version": 1
  },
  "userdoc": {
    "kind": "user",
    "methods": {},
    "notice": "manage allowList ",
    "version": 1
  }
}