{
  "contractName": "DLV_Network",
  "abi": [
    {
      "inputs": [
        {
          "internalType": "contract DLVToken",
          "name": "_token",
          "type": "address"
        }
      ],
      "stateMutability": "payable",
      "type": "constructor",
      "payable": true
    },
    {
      "anonymous": false,
      "inputs": [
        {
          "indexed": false,
          "internalType": "uint16",
          "name": "_item_id",
          "type": "uint16"
        },
        {
          "indexed": false,
          "internalType": "address",
          "name": "_merchant",
          "type": "address"
        },
        {
          "indexed": false,
          "internalType": "address",
          "name": "_purchaser",
          "type": "address"
        },
        {
          "indexed": false,
          "internalType": "string",
          "name": "_newStatus",
          "type": "string"
        }
      ],
      "name": "deliveryUpdate",
      "type": "event"
    },
    {
      "anonymous": false,
      "inputs": [
        {
          "indexed": false,
          "internalType": "address",
          "name": "_to",
          "type": "address"
        },
        {
          "indexed": false,
          "internalType": "address",
          "name": "_from",
          "type": "address"
        },
        {
          "indexed": false,
          "internalType": "uint256",
          "name": "amount",
          "type": "uint256"
        },
        {
          "indexed": false,
          "internalType": "string",
          "name": "fn",
          "type": "string"
        }
      ],
      "name": "display",
      "type": "event"
    },
    {
      "anonymous": false,
      "inputs": [
        {
          "indexed": false,
          "internalType": "uint16",
          "name": "_item_id",
          "type": "uint16"
        },
        {
          "indexed": false,
          "internalType": "address",
          "name": "_merchant",
          "type": "address"
        },
        {
          "indexed": false,
          "internalType": "address",
          "name": "_driver",
          "type": "address"
        },
        {
          "indexed": false,
          "internalType": "string",
          "name": "_status",
          "type": "string"
        }
      ],
      "name": "driverUpdate",
      "type": "event"
    },
    {
      "stateMutability": "payable",
      "type": "fallback",
      "payable": true
    },
    {
      "inputs": [
        {
          "internalType": "address",
          "name": "",
          "type": "address"
        }
      ],
      "name": "isDriver",
      "outputs": [
        {
          "internalType": "bool",
          "name": "",
          "type": "bool"
        }
      ],
      "stateMutability": "view",
      "type": "function",
      "constant": true
    },
    {
      "inputs": [
        {
          "internalType": "address",
          "name": "",
          "type": "address"
        }
      ],
      "name": "isMerchant",
      "outputs": [
        {
          "internalType": "bool",
          "name": "",
          "type": "bool"
        }
      ],
      "stateMutability": "view",
      "type": "function",
      "constant": true
    },
    {
      "inputs": [
        {
          "internalType": "address",
          "name": "",
          "type": "address"
        }
      ],
      "name": "isPurchaser",
      "outputs": [
        {
          "internalType": "bool",
          "name": "",
          "type": "bool"
        }
      ],
      "stateMutability": "view",
      "type": "function",
      "constant": true
    },
    {
      "inputs": [
        {
          "internalType": "uint16",
          "name": "",
          "type": "uint16"
        }
      ],
      "name": "item_prices",
      "outputs": [
        {
          "internalType": "uint256",
          "name": "",
          "type": "uint256"
        }
      ],
      "stateMutability": "view",
      "type": "function",
      "constant": true
    },
    {
      "inputs": [
        {
          "internalType": "uint256",
          "name": "",
          "type": "uint256"
        }
      ],
      "name": "items",
      "outputs": [
        {
          "internalType": "string",
          "name": "name",
          "type": "string"
        },
        {
          "internalType": "enum DLV_Network.DeliveryStatus",
          "name": "status",
          "type": "uint8"
        },
        {
          "internalType": "address",
          "name": "recipient",
          "type": "address"
        },
        {
          "internalType": "address",
          "name": "merchant",
          "type": "address"
        },
        {
          "internalType": "address",
          "name": "driver",
          "type": "address"
        },
        {
          "internalType": "uint256",
          "name": "dispatchTimestamp",
          "type": "uint256"
        }
      ],
      "stateMutability": "view",
      "type": "function",
      "constant": true
    },
    {
      "inputs": [
        {
          "internalType": "address",
          "name": "",
          "type": "address"
        }
      ],
      "name": "membership",
      "outputs": [
        {
          "internalType": "bool",
          "name": "",
          "type": "bool"
        }
      ],
      "stateMutability": "view",
      "type": "function",
      "constant": true
    },
    {
      "inputs": [
        {
          "internalType": "address",
          "name": "",
          "type": "address"
        }
      ],
      "name": "membershipExpires",
      "outputs": [
        {
          "internalType": "uint256",
          "name": "",
          "type": "uint256"
        }
      ],
      "stateMutability": "view",
      "type": "function",
      "constant": true
    },
    {
      "inputs": [],
      "name": "owner",
      "outputs": [
        {
          "internalType": "address payable",
          "name": "",
          "type": "address"
        }
      ],
      "stateMutability": "view",
      "type": "function",
      "constant": true
    },
    {
      "stateMutability": "payable",
      "type": "receive",
      "payable": true
    },
    {
      "inputs": [
        {
          "internalType": "address",
          "name": "merchant1",
          "type": "address"
        },
        {
          "internalType": "address",
          "name": "merchant2",
          "type": "address"
        }
      ],
      "name": "init",
      "outputs": [],
      "stateMutability": "nonpayable",
      "type": "function"
    },
    {
      "inputs": [
        {
          "internalType": "uint8",
          "name": "memberType",
          "type": "uint8"
        }
      ],
      "name": "register",
      "outputs": [],
      "stateMutability": "nonpayable",
      "type": "function"
    },
    {
      "inputs": [],
      "name": "blockTimestamp",
      "outputs": [
        {
          "internalType": "uint256",
          "name": "",
          "type": "uint256"
        }
      ],
      "stateMutability": "view",
      "type": "function",
      "constant": true
    },
    {
      "inputs": [],
      "name": "payFees",
      "outputs": [],
      "stateMutability": "nonpayable",
      "type": "function"
    },
    {
      "inputs": [
        {
          "internalType": "address",
          "name": "_member",
          "type": "address"
        }
      ],
      "name": "payFees",
      "outputs": [],
      "stateMutability": "nonpayable",
      "type": "function"
    },
    {
      "inputs": [
        {
          "internalType": "uint256",
          "name": "_amount",
          "type": "uint256"
        }
      ],
      "name": "collect",
      "outputs": [],
      "stateMutability": "nonpayable",
      "type": "function"
    },
    {
      "inputs": [
        {
          "internalType": "uint32",
          "name": "quantity",
          "type": "uint32"
        }
      ],
      "name": "buyToken",
      "outputs": [],
      "stateMutability": "payable",
      "type": "function",
      "payable": true
    },
    {
      "inputs": [
        {
          "internalType": "uint16",
          "name": "itemId",
          "type": "uint16"
        },
        {
          "internalType": "uint256",
          "name": "price",
          "type": "uint256"
        }
      ],
      "name": "orderItem",
      "outputs": [],
      "stateMutability": "nonpayable",
      "type": "function"
    },
    {
      "inputs": [
        {
          "internalType": "uint16",
          "name": "itemId",
          "type": "uint16"
        }
      ],
      "name": "acceptOrder",
      "outputs": [],
      "stateMutability": "nonpayable",
      "type": "function"
    },
    {
      "inputs": [
        {
          "internalType": "uint16",
          "name": "itemId",
          "type": "uint16"
        },
        {
          "internalType": "address",
          "name": "_driver",
          "type": "address"
        }
      ],
      "name": "dispatchItem",
      "outputs": [],
      "stateMutability": "nonpayable",
      "type": "function"
    },
    {
      "inputs": [
        {
          "internalType": "uint16",
          "name": "itemId",
          "type": "uint16"
        }
      ],
      "name": "reportDelivery",
      "outputs": [],
      "stateMutability": "nonpayable",
      "type": "function"
    },
    {
      "inputs": [
        {
          "internalType": "uint256",
          "name": "deliveryTimestamp",
          "type": "uint256"
        },
        {
          "internalType": "uint16",
          "name": "itemId",
          "type": "uint16"
        }
      ],
      "name": "verifyDelivery",
      "outputs": [],
      "stateMutability": "nonpayable",
      "type": "function"
    },
    {
      "inputs": [
        {
          "internalType": "address",
          "name": "_driverAddress",
          "type": "address"
        },
        {
          "internalType": "uint16",
          "name": "itemId",
          "type": "uint16"
        },
        {
          "internalType": "int256",
          "name": "deliveryTime",
          "type": "int256"
        },
        {
          "internalType": "int256",
          "name": "DEADLINE",
          "type": "int256"
        }
      ],
      "name": "payDriver",
      "outputs": [
        {
          "internalType": "bool",
          "name": "",
          "type": "bool"
        }
      ],
      "stateMutability": "nonpayable",
      "type": "function"
    }
  ],
  "bytecode": "0x60806040526404a817c800600960006101000a8154816fffffffffffffffffffffffffffffffff02191690836fffffffffffffffffffffffffffffffff160217905550600161c38c60006101000a81548160ff02191690831515021790555060405162005fc738038062005fc78339818101604052810190620000839190620001cb565b33600660006101000a81548173ffffffffffffffffffffffffffffffffffffffff021916908373ffffffffffffffffffffffffffffffffffffffff16021790555030600760006101000a81548173ffffffffffffffffffffffffffffffffffffffff021916908373ffffffffffffffffffffffffffffffffffffffff16021790555080600860006101000a81548173ffffffffffffffffffffffffffffffffffffffff021916908373ffffffffffffffffffffffffffffffffffffffff16021790555050620001fd565b600080fd5b600073ffffffffffffffffffffffffffffffffffffffff82169050919050565b60006200017f8262000152565b9050919050565b6000620001938262000172565b9050919050565b620001a58162000186565b8114620001b157600080fd5b50565b600081519050620001c5816200019a565b92915050565b600060208284031215620001e457620001e36200014d565b5b6000620001f484828501620001b4565b91505092915050565b615dba806200020d6000396000f3fe60806040526004361061012e5760003560e01c8063772ccf5d116100ab578063b8f9197b1161006f578063b8f9197b146104b5578063b8ff6e08146104de578063bfb231d214610507578063c11c421314610549578063ce3f865f14610586578063f09a4016146105af57610192565b8063772ccf5d146103bc5780638da5cb5b146103f9578063947cda6c14610424578063ab9420361461044d578063adb618321461048a57610192565b8063502ebaa9116100f2578063502ebaa91461030e5780635530d2de1461033757806361d689fa1461036057806362779e1514610389578063698140e2146103a057610192565b8063152d7f75146101f1578063158ed0ac1461022e5780631a2f71671461026b5780631db629ea146102a8578063383b1f93146102d157610192565b36610192577f62c69cc67fa424b6afadb7f44dcf84a9638c58537817264b4f6a3953e5334d28600760009054906101000a900473ffffffffffffffffffffffffffffffffffffffff16333460405161018893929190614234565b60405180910390a1005b7f62c69cc67fa424b6afadb7f44dcf84a9638c58537817264b4f6a3953e5334d28600760009054906101000a900473ffffffffffffffffffffffffffffffffffffffff1633346040516101e7939291906142ca565b60405180910390a1005b3480156101fd57600080fd5b5061021860048036038101906102139190614353565b6105d8565b6040516102259190614380565b60405180910390f35b34801561023a57600080fd5b50610255600480360381019061025091906143c7565b6105f0565b6040516102629190614380565b60405180910390f35b34801561027757600080fd5b50610292600480360381019061028d91906143c7565b610608565b60405161029f919061440f565b60405180910390f35b3480156102b457600080fd5b506102cf60048036038101906102ca9190614456565b610628565b005b3480156102dd57600080fd5b506102f860048036038101906102f391906144cc565b610a15565b604051610305919061440f565b60405180910390f35b34801561031a57600080fd5b5061033560048036038101906103309190614353565b610f40565b005b34801561034357600080fd5b5061035e60048036038101906103599190614533565b61144d565b005b34801561036c57600080fd5b50610387600480360381019061038291906145ac565b611bcc565b005b34801561039557600080fd5b5061039e611e43565b005b6103ba60048036038101906103b59190614615565b612311565b005b3480156103c857600080fd5b506103e360048036038101906103de91906143c7565b612549565b6040516103f0919061440f565b60405180910390f35b34801561040557600080fd5b5061040e612569565b60405161041b9190614663565b60405180910390f35b34801561043057600080fd5b5061044b6004803603810190610446919061467e565b61258f565b005b34801561045957600080fd5b50610474600480360381019061046f91906143c7565b612cb6565b604051610481919061440f565b60405180910390f35b34801561049657600080fd5b5061049f612cd6565b6040516104ac9190614380565b60405180910390f35b3480156104c157600080fd5b506104dc60048036038101906104d791906143c7565b612cde565b005b3480156104ea57600080fd5b5061050560048036038101906105009190614353565b613231565b005b34801561051357600080fd5b5061052e600480360381019061052991906146be565b613604565b604051610540969594939291906147e1565b60405180910390f35b34801561055557600080fd5b50610570600480360381019061056b91906143c7565b61373c565b60405161057d919061440f565b60405180910390f35b34801561059257600080fd5b506105ad60048036038101906105a891906146be565b61375c565b005b3480156105bb57600080fd5b506105d660048036038101906105d19190614849565b6138ed565b005b60056020528060005260406000206000915090505481565b60046020528060005260406000206000915090505481565b60016020528060005260406000206000915054906101000a900460ff1681565b6000600a8261ffff16612710811061064357610642614889565b5b600502016040518060c0016040529081600082018054610662906148e7565b80601f016020809104026020016040519081016040528092919081815260200182805461068e906148e7565b80156106db5780601f106106b0576101008083540402835291602001916106db565b820191906000526020600020905b8154815290600101906020018083116106be57829003601f168201915b505050505081526020016001820160009054906101000a900460ff1660058111156107095761070861476a565b5b600581111561071b5761071a61476a565b5b81526020016001820160019054906101000a900473ffffffffffffffffffffffffffffffffffffffff1673ffffffffffffffffffffffffffffffffffffffff1673ffffffffffffffffffffffffffffffffffffffff1681526020016002820160009054906101000a900473ffffffffffffffffffffffffffffffffffffffff1673ffffffffffffffffffffffffffffffffffffffff1673ffffffffffffffffffffffffffffffffffffffff1681526020016003820160009054906101000a900473ffffffffffffffffffffffffffffffffffffffff1673ffffffffffffffffffffffffffffffffffffffff1673ffffffffffffffffffffffffffffffffffffffff168152602001600482015481525050905060008160a001518461083f9190614947565b905060058260200190600581111561085a5761085961476a565b5b9081600581111561086e5761086d61476a565b5b8152505081600a8461ffff16612710811061088c5761088b614889565b5b6005020160008201518160000190816108a59190614b5b565b5060208201518160010160006101000a81548160ff021916908360058111156108d1576108d061476a565b5b021790555060408201518160010160016101000a81548173ffffffffffffffffffffffffffffffffffffffff021916908373ffffffffffffffffffffffffffffffffffffffff16021790555060608201518160020160006101000a81548173ffffffffffffffffffffffffffffffffffffffff021916908373ffffffffffffffffffffffffffffffffffffffff16021790555060808201518160030160006101000a81548173ffffffffffffffffffffffffffffffffffffffff021916908373ffffffffffffffffffffffffffffffffffffffff16021790555060a082015181600401559050506109cb8260800151848362015180610a15565b507f8e9d35c7701c4050e605a6769e63b07453e420d100ecd7af2a63702692b2eb068383606001518460400151604051610a0793929190614c88565b60405180910390a150505050565b6000806000600a8661ffff166127108110610a3357610a32614889565b5b600502016040518060c0016040529081600082018054610a52906148e7565b80601f0160208091040260200160405190810160405280929190818152602001828054610a7e906148e7565b8015610acb5780601f10610aa057610100808354040283529160200191610acb565b820191906000526020600020905b815481529060010190602001808311610aae57829003601f168201915b505050505081526020016001820160009054906101000a900460ff166005811115610af957610af861476a565b5b6005811115610b0b57610b0a61476a565b5b81526020016001820160019054906101000a900473ffffffffffffffffffffffffffffffffffffffff1673ffffffffffffffffffffffffffffffffffffffff1673ffffffffffffffffffffffffffffffffffffffff1681526020016002820160009054906101000a900473ffffffffffffffffffffffffffffffffffffffff1673ffffffffffffffffffffffffffffffffffffffff1673ffffffffffffffffffffffffffffffffffffffff1681526020016003820160009054906101000a900473ffffffffffffffffffffffffffffffffffffffff1673ffffffffffffffffffffffffffffffffffffffff1673ffffffffffffffffffffffffffffffffffffffff16815260200160048201548152505090506000610c616064610c536004600560008c61ffff1661ffff168152602001908152602001600020546140dc90919063ffffffff16565b6140f290919063ffffffff16565b9050600580811115610c7657610c7561476a565b5b82602001516005811115610c8d57610c8c61476a565b5b14610ccd576040517f08c379a0000000000000000000000000000000000000000000000000000000008152600401610cc490614d1e565b60405180910390fd5b848613610ddf57600860009054906101000a900473ffffffffffffffffffffffffffffffffffffffff1673ffffffffffffffffffffffffffffffffffffffff1663a9059cbb89836040518363ffffffff1660e01b8152600401610d31929190614d3e565b6020604051808303816000875af1158015610d50573d6000803e3d6000fd5b505050506040513d601f19601f82011682018060405250810190610d749190614d93565b92508215610dda577f62c69cc67fa424b6afadb7f44dcf84a9638c58537817264b4f6a3953e5334d28600760009054906101000a900473ffffffffffffffffffffffffffffffffffffffff168983604051610dd193929190614e0c565b60405180910390a15b610f32565b600860009054906101000a900473ffffffffffffffffffffffffffffffffffffffff1673ffffffffffffffffffffffffffffffffffffffff1663a9059cbb89610e456064610e376032876140dc90919063ffffffff16565b6140f290919063ffffffff16565b6040518363ffffffff1660e01b8152600401610e62929190614d3e565b6020604051808303816000875af1158015610e81573d6000803e3d6000fd5b505050506040513d601f19601f82011682018060405250810190610ea59190614d93565b92508215610f31577f62c69cc67fa424b6afadb7f44dcf84a9638c58537817264b4f6a3953e5334d28600760009054906101000a900473ffffffffffffffffffffffffffffffffffffffff1689610f196064610f0b6032876140dc90919063ffffffff16565b6140f290919063ffffffff16565b604051610f2893929190614e0c565b60405180910390a15b5b829350505050949350505050565b60011515600160003373ffffffffffffffffffffffffffffffffffffffff1673ffffffffffffffffffffffffffffffffffffffff16815260200190815260200160002060009054906101000a900460ff16151514610fd3576040517f08c379a0000000000000000000000000000000000000000000000000000000008152600401610fca90614ec8565b60405180910390fd5b6127108161ffff16111561101c576040517f08c379a000000000000000000000000000000000000000000000000000000000815260040161101390614f34565b60405180910390fd5b6000600a8261ffff16612710811061103757611036614889565b5b600502016040518060c0016040529081600082018054611056906148e7565b80601f0160208091040260200160405190810160405280929190818152602001828054611082906148e7565b80156110cf5780601f106110a4576101008083540402835291602001916110cf565b820191906000526020600020905b8154815290600101906020018083116110b257829003601f168201915b505050505081526020016001820160009054906101000a900460ff1660058111156110fd576110fc61476a565b5b600581111561110f5761110e61476a565b5b81526020016001820160019054906101000a900473ffffffffffffffffffffffffffffffffffffffff1673ffffffffffffffffffffffffffffffffffffffff1673ffffffffffffffffffffffffffffffffffffffff1681526020016002820160009054906101000a900473ffffffffffffffffffffffffffffffffffffffff1673ffffffffffffffffffffffffffffffffffffffff1673ffffffffffffffffffffffffffffffffffffffff1681526020016003820160009054906101000a900473ffffffffffffffffffffffffffffffffffffffff1673ffffffffffffffffffffffffffffffffffffffff1673ffffffffffffffffffffffffffffffffffffffff16815260200160048201548152505090503373ffffffffffffffffffffffffffffffffffffffff16816060015173ffffffffffffffffffffffffffffffffffffffff1614611293576040517f08c379a000000000000000000000000000000000000000000000000000000000815260040161128a90614fc6565b60405180910390fd5b6002816020019060058111156112ac576112ab61476a565b5b908160058111156112c0576112bf61476a565b5b8152505080600a8361ffff1661271081106112de576112dd614889565b5b6005020160008201518160000190816112f79190614b5b565b5060208201518160010160006101000a81548160ff021916908360058111156113235761132261476a565b5b021790555060408201518160010160016101000a81548173ffffffffffffffffffffffffffffffffffffffff021916908373ffffffffffffffffffffffffffffffffffffffff16021790555060608201518160020160006101000a81548173ffffffffffffffffffffffffffffffffffffffff021916908373ffffffffffffffffffffffffffffffffffffffff16021790555060808201518160030160006101000a81548173ffffffffffffffffffffffffffffffffffffffff021916908373ffffffffffffffffffffffffffffffffffffffff16021790555060a082015181600401559050507f8e9d35c7701c4050e605a6769e63b07453e420d100ecd7af2a63702692b2eb068233836040015160405161144193929190615032565b60405180910390a15050565b60011515600360003373ffffffffffffffffffffffffffffffffffffffff1673ffffffffffffffffffffffffffffffffffffffff16815260200190815260200160002060009054906101000a900460ff161515146114e0576040517f08c379a00000000000000000000000000000000000000000000000000000000081526004016114d7906150ee565b60405180910390fd5b6127108261ffff161115611529576040517f08c379a000000000000000000000000000000000000000000000000000000000815260040161152090614f34565b60405180910390fd5b6000600a8361ffff16612710811061154457611543614889565b5b600502016040518060c0016040529081600082018054611563906148e7565b80601f016020809104026020016040519081016040528092919081815260200182805461158f906148e7565b80156115dc5780601f106115b1576101008083540402835291602001916115dc565b820191906000526020600020905b8154815290600101906020018083116115bf57829003601f168201915b505050505081526020016001820160009054906101000a900460ff16600581111561160a5761160961476a565b5b600581111561161c5761161b61476a565b5b81526020016001820160019054906101000a900473ffffffffffffffffffffffffffffffffffffffff1673ffffffffffffffffffffffffffffffffffffffff1673ffffffffffffffffffffffffffffffffffffffff1681526020016002820160009054906101000a900473ffffffffffffffffffffffffffffffffffffffff1673ffffffffffffffffffffffffffffffffffffffff1673ffffffffffffffffffffffffffffffffffffffff1681526020016003820160009054906101000a900473ffffffffffffffffffffffffffffffffffffffff1673ffffffffffffffffffffffffffffffffffffffff1673ffffffffffffffffffffffffffffffffffffffff168152602001600482015481525050905060003390506000803373ffffffffffffffffffffffffffffffffffffffff1673ffffffffffffffffffffffffffffffffffffffff16815260200190815260200160002060009054906101000a900460ff166117be576040517f08c379a00000000000000000000000000000000000000000000000000000000081526004016117b590615180565b60405180910390fd5b600060058111156117d2576117d161476a565b5b826020015160058111156117e9576117e861476a565b5b14611829576040517f08c379a000000000000000000000000000000000000000000000000000000000815260040161182090615212565b60405180910390fd5b82600860009054906101000a900473ffffffffffffffffffffffffffffffffffffffff1673ffffffffffffffffffffffffffffffffffffffff166370a08231336040518263ffffffff1660e01b81526004016118859190615232565b602060405180830381865afa1580156118a2573d6000803e3d6000fd5b505050506040513d601f19601f820116820180604052508101906118c69190615262565b11611906576040517f08c379a00000000000000000000000000000000000000000000000000000000081526004016118fd90615301565b60405180910390fd5b82600560008661ffff1661ffff168152602001908152602001600020819055506000600860009054906101000a900473ffffffffffffffffffffffffffffffffffffffff1673ffffffffffffffffffffffffffffffffffffffff166323b872dd838560600151876040518463ffffffff1660e01b815260040161198b93929190615321565b6020604051808303816000875af11580156119aa573d6000803e3d6000fd5b505050506040513d601f19601f820116820180604052508101906119ce9190614d93565b90508015611bc55733836040019073ffffffffffffffffffffffffffffffffffffffff16908173ffffffffffffffffffffffffffffffffffffffff1681525050600183602001906005811115611a2757611a2661476a565b5b90816005811115611a3b57611a3a61476a565b5b8152505082600a8661ffff166127108110611a5957611a58614889565b5b600502016000820151816000019081611a729190614b5b565b5060208201518160010160006101000a81548160ff02191690836005811115611a9e57611a9d61476a565b5b021790555060408201518160010160016101000a81548173ffffffffffffffffffffffffffffffffffffffff021916908373ffffffffffffffffffffffffffffffffffffffff16021790555060608201518160020160006101000a81548173ffffffffffffffffffffffffffffffffffffffff021916908373ffffffffffffffffffffffffffffffffffffffff16021790555060808201518160030160006101000a81548173ffffffffffffffffffffffffffffffffffffffff021916908373ffffffffffffffffffffffffffffffffffffffff16021790555060a082015181600401559050507f8e9d35c7701c4050e605a6769e63b07453e420d100ecd7af2a63702692b2eb0685846060015184604051611bbc939291906153a4565b60405180910390a15b5050505050565b60003390506000808273ffffffffffffffffffffffffffffffffffffffff1673ffffffffffffffffffffffffffffffffffffffff16815260200190815260200160002060009054906101000a900460ff1615611c5d576040517f08c379a0000000000000000000000000000000000000000000000000000000008152600401611c549061543a565b60405180910390fd5b611c7b6301e13380611c6d612cd6565b61410890919063ffffffff16565b600460008373ffffffffffffffffffffffffffffffffffffffff1673ffffffffffffffffffffffffffffffffffffffff1681526020019081526020016000208190555060018260ff1603611d255760018060008373ffffffffffffffffffffffffffffffffffffffff1673ffffffffffffffffffffffffffffffffffffffff16815260200190815260200160002060006101000a81548160ff021916908315150217905550611e36565b60028260ff1603611dd05760328014611d73576040517f08c379a0000000000000000000000000000000000000000000000000000000008152600401611d6a906154a6565b60405180910390fd5b6001600260008373ffffffffffffffffffffffffffffffffffffffff1673ffffffffffffffffffffffffffffffffffffffff16815260200190815260200160002060006101000a81548160ff021916908315150217905550611e35565b60038260ff1603611e34576001600360008373ffffffffffffffffffffffffffffffffffffffff1673ffffffffffffffffffffffffffffffffffffffff16815260200190815260200160002060006101000a81548160ff0219169083151502179055505b5b5b611e3f81612cde565b5050565b6000339050600360008273ffffffffffffffffffffffffffffffffffffffff1673ffffffffffffffffffffffffffffffffffffffff16815260200190815260200160002060009054906101000a900460ff1615611ed5576040517f08c379a0000000000000000000000000000000000000000000000000000000008152600401611ecc90615538565b60405180910390fd5b600060011515600160008473ffffffffffffffffffffffffffffffffffffffff1673ffffffffffffffffffffffffffffffffffffffff16815260200190815260200160002060009054906101000a900460ff16151503611f4257606467ffffffffffffffff169050611faa565b60011515600260008473ffffffffffffffffffffffffffffffffffffffff1673ffffffffffffffffffffffffffffffffffffffff16815260200190815260200160002060009054906101000a900460ff16151503611fa957603267ffffffffffffffff1690505b5b42600460008473ffffffffffffffffffffffffffffffffffffffff1673ffffffffffffffffffffffffffffffffffffffff168152602001908152602001600020541161202b576040517f08c379a0000000000000000000000000000000000000000000000000000000008152600401612022906155a4565b60405180910390fd5b80600860009054906101000a900473ffffffffffffffffffffffffffffffffffffffff1673ffffffffffffffffffffffffffffffffffffffff166370a08231846040518263ffffffff1660e01b81526004016120879190615232565b602060405180830381865afa1580156120a4573d6000803e3d6000fd5b505050506040513d601f19601f820116820180604052508101906120c89190615262565b11612108576040517f08c379a00000000000000000000000000000000000000000000000000000000081526004016120ff90615610565b60405180910390fd5b600860009054906101000a900473ffffffffffffffffffffffffffffffffffffffff1673ffffffffffffffffffffffffffffffffffffffff166323b872dd83600760009054906101000a900473ffffffffffffffffffffffffffffffffffffffff16846040518463ffffffff1660e01b815260040161218993929190615630565b6020604051808303816000875af11580156121a8573d6000803e3d6000fd5b505050506040513d601f19601f820116820180604052508101906121cc9190614d93565b6000808473ffffffffffffffffffffffffffffffffffffffff1673ffffffffffffffffffffffffffffffffffffffff16815260200190815260200160002060006101000a81548160ff0219169083151502179055506000808373ffffffffffffffffffffffffffffffffffffffff1673ffffffffffffffffffffffffffffffffffffffff16815260200190815260200160002060009054906101000a900460ff166122ac576040517f08c379a00000000000000000000000000000000000000000000000000000000081526004016122a3906156b3565b60405180910390fd5b6122ca6301e133806122bc612cd6565b61410890919063ffffffff16565b600460008473ffffffffffffffffffffffffffffffffffffffff1673ffffffffffffffffffffffffffffffffffffffff168152602001908152602001600020819055505050565b63ffffffff80168163ffffffff161115612360576040517f08c379a000000000000000000000000000000000000000000000000000000000815260040161235790615745565b60405180910390fd5b60003390506000600960009054906101000a90046fffffffffffffffffffffffffffffffff168363ffffffff166123979190615781565b6fffffffffffffffffffffffffffffffff169050348273ffffffffffffffffffffffffffffffffffffffff163111612404576040517f08c379a00000000000000000000000000000000000000000000000000000000081526004016123fb9061580a565b60405180910390fd5b803414612446576040517f08c379a000000000000000000000000000000000000000000000000000000000815260040161243d906158c2565b60405180910390fd5b600860009054906101000a900473ffffffffffffffffffffffffffffffffffffffff1673ffffffffffffffffffffffffffffffffffffffff166340c10f1983856040518363ffffffff1660e01b81526004016124a3929190615913565b6020604051808303816000875af11580156124c2573d6000803e3d6000fd5b505050506040513d601f19601f820116820180604052508101906124e69190614d93565b507f62c69cc67fa424b6afadb7f44dcf84a9638c58537817264b4f6a3953e5334d28600760009054906101000a900473ffffffffffffffffffffffffffffffffffffffff16833460405161253c93929190615988565b60405180910390a1505050565b60006020528060005260406000206000915054906101000a900460ff1681565b600660009054906101000a900473ffffffffffffffffffffffffffffffffffffffff1681565b60011515600160003373ffffffffffffffffffffffffffffffffffffffff1673ffffffffffffffffffffffffffffffffffffffff16815260200190815260200160002060009054906101000a900460ff16151514612622576040517f08c379a000000000000000000000000000000000000000000000000000000000815260040161261990614ec8565b60405180910390fd5b6127108261ffff16111561266b576040517f08c379a000000000000000000000000000000000000000000000000000000000815260040161266290614f34565b60405180910390fd5b6000600a8361ffff16612710811061268657612685614889565b5b600502016040518060c00160405290816000820180546126a5906148e7565b80601f01602080910402602001604051908101604052809291908181526020018280546126d1906148e7565b801561271e5780601f106126f35761010080835404028352916020019161271e565b820191906000526020600020905b81548152906001019060200180831161270157829003601f168201915b505050505081526020016001820160009054906101000a900460ff16600581111561274c5761274b61476a565b5b600581111561275e5761275d61476a565b5b81526020016001820160019054906101000a900473ffffffffffffffffffffffffffffffffffffffff1673ffffffffffffffffffffffffffffffffffffffff1673ffffffffffffffffffffffffffffffffffffffff1681526020016002820160009054906101000a900473ffffffffffffffffffffffffffffffffffffffff1673ffffffffffffffffffffffffffffffffffffffff1673ffffffffffffffffffffffffffffffffffffffff1681526020016003820160009054906101000a900473ffffffffffffffffffffffffffffffffffffffff1673ffffffffffffffffffffffffffffffffffffffff1673ffffffffffffffffffffffffffffffffffffffff16815260200160048201548152505090503373ffffffffffffffffffffffffffffffffffffffff16816060015173ffffffffffffffffffffffffffffffffffffffff16146128e2576040517f08c379a00000000000000000000000000000000000000000000000000000000081526004016128d990614fc6565b60405180910390fd5b600260058111156128f6576128f561476a565b5b8160200151600581111561290d5761290c61476a565b5b1461294d576040517f08c379a000000000000000000000000000000000000000000000000000000000815260040161294490615212565b60405180910390fd5b6000606460058060008761ffff1661ffff1681526020019081526020016000205461297891906159d2565b6129829190615a43565b90506000600860009054906101000a900473ffffffffffffffffffffffffffffffffffffffff1673ffffffffffffffffffffffffffffffffffffffff166323b872dd33600760009054906101000a900473ffffffffffffffffffffffffffffffffffffffff16856040518463ffffffff1660e01b8152600401612a0793929190615630565b6020604051808303816000875af1158015612a26573d6000803e3d6000fd5b505050506040513d601f19601f82011682018060405250810190612a4a9190614d93565b90508015612caf577f62c69cc67fa424b6afadb7f44dcf84a9638c58537817264b4f6a3953e5334d2833600760009054906101000a900473ffffffffffffffffffffffffffffffffffffffff1684604051612aa793929190615a74565b60405180910390a1600383602001906005811115612ac857612ac761476a565b5b90816005811115612adc57612adb61476a565b5b8152505083836080019073ffffffffffffffffffffffffffffffffffffffff16908173ffffffffffffffffffffffffffffffffffffffff1681525050612b20612cd6565b8360a001818152505082600a8661ffff166127108110612b4357612b42614889565b5b600502016000820151816000019081612b5c9190614b5b565b5060208201518160010160006101000a81548160ff02191690836005811115612b8857612b8761476a565b5b021790555060408201518160010160016101000a81548173ffffffffffffffffffffffffffffffffffffffff021916908373ffffffffffffffffffffffffffffffffffffffff16021790555060608201518160020160006101000a81548173ffffffffffffffffffffffffffffffffffffffff021916908373ffffffffffffffffffffffffffffffffffffffff16021790555060808201518160030160006101000a81548173ffffffffffffffffffffffffffffffffffffffff021916908373ffffffffffffffffffffffffffffffffffffffff16021790555060a082015181600401559050507f8e9d35c7701c4050e605a6769e63b07453e420d100ecd7af2a63702692b2eb0685338560400151604051612ca693929190615b0a565b60405180910390a15b5050505050565b60026020528060005260406000206000915054906101000a900460ff1681565b600042905090565b600060011515600160008473ffffffffffffffffffffffffffffffffffffffff1673ffffffffffffffffffffffffffffffffffffffff16815260200190815260200160002060009054906101000a900460ff16151503612d4b57606467ffffffffffffffff169050612db3565b60011515600260008473ffffffffffffffffffffffffffffffffffffffff1673ffffffffffffffffffffffffffffffffffffffff16815260200190815260200160002060009054906101000a900460ff16151503612db257603267ffffffffffffffff1690505b5b600360008373ffffffffffffffffffffffffffffffffffffffff1673ffffffffffffffffffffffffffffffffffffffff16815260200190815260200160002060009054906101000a900460ff1615612ec25760016000808473ffffffffffffffffffffffffffffffffffffffff1673ffffffffffffffffffffffffffffffffffffffff16815260200190815260200160002060006101000a81548160ff021916908315150217905550612e7a6301e13380612e6c612cd6565b61410890919063ffffffff16565b600460008473ffffffffffffffffffffffffffffffffffffffff1673ffffffffffffffffffffffffffffffffffffffff1681526020019081526020016000208190555061322d565b612eca612cd6565b600460008473ffffffffffffffffffffffffffffffffffffffff1673ffffffffffffffffffffffffffffffffffffffff1681526020019081526020016000205411612f4a576040517f08c379a0000000000000000000000000000000000000000000000000000000008152600401612f41906155a4565b60405180910390fd5b80600860009054906101000a900473ffffffffffffffffffffffffffffffffffffffff1673ffffffffffffffffffffffffffffffffffffffff166370a08231846040518263ffffffff1660e01b8152600401612fa69190615232565b602060405180830381865afa158015612fc3573d6000803e3d6000fd5b505050506040513d601f19601f82011682018060405250810190612fe79190615262565b11613027576040517f08c379a000000000000000000000000000000000000000000000000000000000815260040161301e90615610565b60405180910390fd5b600860009054906101000a900473ffffffffffffffffffffffffffffffffffffffff1673ffffffffffffffffffffffffffffffffffffffff166323b872dd83600760009054906101000a900473ffffffffffffffffffffffffffffffffffffffff16846040518463ffffffff1660e01b81526004016130a893929190615630565b6020604051808303816000875af11580156130c7573d6000803e3d6000fd5b505050506040513d601f19601f820116820180604052508101906130eb9190614d93565b6000808473ffffffffffffffffffffffffffffffffffffffff1673ffffffffffffffffffffffffffffffffffffffff16815260200190815260200160002060006101000a81548160ff0219169083151502179055506000808373ffffffffffffffffffffffffffffffffffffffff1673ffffffffffffffffffffffffffffffffffffffff16815260200190815260200160002060009054906101000a900460ff166131cb576040517f08c379a00000000000000000000000000000000000000000000000000000000081526004016131c2906156b3565b60405180910390fd5b6131e96301e133806131db612cd6565b61410890919063ffffffff16565b600460008473ffffffffffffffffffffffffffffffffffffffff1673ffffffffffffffffffffffffffffffffffffffff168152602001908152602001600020819055505b5050565b60011515600260003373ffffffffffffffffffffffffffffffffffffffff1673ffffffffffffffffffffffffffffffffffffffff16815260200190815260200160002060009054906101000a900460ff161515146132c4576040517f08c379a00000000000000000000000000000000000000000000000000000000081526004016132bb90614ec8565b60405180910390fd5b6127108161ffff16111561330d576040517f08c379a000000000000000000000000000000000000000000000000000000000815260040161330490614f34565b60405180910390fd5b6000600a8261ffff16612710811061332857613327614889565b5b600502016040518060c0016040529081600082018054613347906148e7565b80601f0160208091040260200160405190810160405280929190818152602001828054613373906148e7565b80156133c05780601f10613395576101008083540402835291602001916133c0565b820191906000526020600020905b8154815290600101906020018083116133a357829003601f168201915b505050505081526020016001820160009054906101000a900460ff1660058111156133ee576133ed61476a565b5b6005811115613400576133ff61476a565b5b81526020016001820160019054906101000a900473ffffffffffffffffffffffffffffffffffffffff1673ffffffffffffffffffffffffffffffffffffffff1673ffffffffffffffffffffffffffffffffffffffff1681526020016002820160009054906101000a900473ffffffffffffffffffffffffffffffffffffffff1673ffffffffffffffffffffffffffffffffffffffff1673ffffffffffffffffffffffffffffffffffffffff1681526020016003820160009054906101000a900473ffffffffffffffffffffffffffffffffffffffff1673ffffffffffffffffffffffffffffffffffffffff1673ffffffffffffffffffffffffffffffffffffffff16815260200160048201548152505090503373ffffffffffffffffffffffffffffffffffffffff16816080015173ffffffffffffffffffffffffffffffffffffffff1614613584576040517f08c379a000000000000000000000000000000000000000000000000000000000815260040161357b90615bc6565b60405180910390fd5b600360058111156135985761359761476a565b5b816020015160058111156135af576135ae61476a565b5b146135ef576040517f08c379a00000000000000000000000000000000000000000000000000000000081526004016135e690615c58565b60405180910390fd5b6136006135fa612cd6565b83610628565b5050565b600a81612710811061361557600080fd5b6005020160009150905080600001805461362e906148e7565b80601f016020809104026020016040519081016040528092919081815260200182805461365a906148e7565b80156136a75780601f1061367c576101008083540402835291602001916136a7565b820191906000526020600020905b81548152906001019060200180831161368a57829003601f168201915b5050505050908060010160009054906101000a900460ff16908060010160019054906101000a900473ffffffffffffffffffffffffffffffffffffffff16908060020160009054906101000a900473ffffffffffffffffffffffffffffffffffffffff16908060030160009054906101000a900473ffffffffffffffffffffffffffffffffffffffff16908060040154905086565b60036020528060005260406000206000915054906101000a900460ff1681565b600660009054906101000a900473ffffffffffffffffffffffffffffffffffffffff1673ffffffffffffffffffffffffffffffffffffffff163373ffffffffffffffffffffffffffffffffffffffff16146137ec576040517f08c379a00000000000000000000000000000000000000000000000000000000081526004016137e390615cc4565b60405180910390fd5b8047101561382f576040517f08c379a000000000000000000000000000000000000000000000000000000000815260040161382690615d30565b60405180910390fd5b61c38c60009054906101000a900460ff1661384957600080fd5b600061c38c60006101000a81548160ff021916908315150217905550600660009054906101000a900473ffffffffffffffffffffffffffffffffffffffff1673ffffffffffffffffffffffffffffffffffffffff166108fc829081150290604051600060405180830381858888f193505050501580156138cd573d6000803e3d6000fd5b50600161c38c60006101000a81548160ff02191690831515021790555050565b60006040518060c001604052806040518060400160405280600681526020017f6974656d203100000000000000000000000000000000000000000000000000008152508152602001600060058111156139495761394861476a565b5b81526020018273ffffffffffffffffffffffffffffffffffffffff1681526020018473ffffffffffffffffffffffffffffffffffffffff1681526020018273ffffffffffffffffffffffffffffffffffffffff1681526020016000815250600a600061271081106139bd576139bc614889565b5b6005020160008201518160000190816139d69190614b5b565b5060208201518160010160006101000a81548160ff02191690836005811115613a0257613a0161476a565b5b021790555060408201518160010160016101000a81548173ffffffffffffffffffffffffffffffffffffffff021916908373ffffffffffffffffffffffffffffffffffffffff16021790555060608201518160020160006101000a81548173ffffffffffffffffffffffffffffffffffffffff021916908373ffffffffffffffffffffffffffffffffffffffff16021790555060808201518160030160006101000a81548173ffffffffffffffffffffffffffffffffffffffff021916908373ffffffffffffffffffffffffffffffffffffffff16021790555060a082015181600401559050506040518060c001604052806040518060400160405280600681526020017f6974656d20320000000000000000000000000000000000000000000000000000815250815260200160006005811115613b4357613b4261476a565b5b81526020018273ffffffffffffffffffffffffffffffffffffffff1681526020018473ffffffffffffffffffffffffffffffffffffffff1681526020018273ffffffffffffffffffffffffffffffffffffffff1681526020016000815250600a60016127108110613bb757613bb6614889565b5b600502016000820151816000019081613bd09190614b5b565b5060208201518160010160006101000a81548160ff02191690836005811115613bfc57613bfb61476a565b5b021790555060408201518160010160016101000a81548173ffffffffffffffffffffffffffffffffffffffff021916908373ffffffffffffffffffffffffffffffffffffffff16021790555060608201518160020160006101000a81548173ffffffffffffffffffffffffffffffffffffffff021916908373ffffffffffffffffffffffffffffffffffffffff16021790555060808201518160030160006101000a81548173ffffffffffffffffffffffffffffffffffffffff021916908373ffffffffffffffffffffffffffffffffffffffff16021790555060a082015181600401559050506040518060c001604052806040518060400160405280600681526020017f6974656d20350000000000000000000000000000000000000000000000000000815250815260200160006005811115613d3d57613d3c61476a565b5b81526020018273ffffffffffffffffffffffffffffffffffffffff1681526020018373ffffffffffffffffffffffffffffffffffffffff1681526020018273ffffffffffffffffffffffffffffffffffffffff1681526020016000815250600a60026127108110613db157613db0614889565b5b600502016000820151816000019081613dca9190614b5b565b5060208201518160010160006101000a81548160ff02191690836005811115613df657613df561476a565b5b021790555060408201518160010160016101000a81548173ffffffffffffffffffffffffffffffffffffffff021916908373ffffffffffffffffffffffffffffffffffffffff16021790555060608201518160020160006101000a81548173ffffffffffffffffffffffffffffffffffffffff021916908373ffffffffffffffffffffffffffffffffffffffff16021790555060808201518160030160006101000a81548173ffffffffffffffffffffffffffffffffffffffff021916908373ffffffffffffffffffffffffffffffffffffffff16021790555060a082015181600401559050506040518060c001604052806040518060400160405280600681526020017f6974656d20360000000000000000000000000000000000000000000000000000815250815260200160006005811115613f3757613f3661476a565b5b81526020018273ffffffffffffffffffffffffffffffffffffffff1681526020018373ffffffffffffffffffffffffffffffffffffffff1681526020018273ffffffffffffffffffffffffffffffffffffffff1681526020016000815250600a60036127108110613fab57613faa614889565b5b600502016000820151816000019081613fc49190614b5b565b5060208201518160010160006101000a81548160ff02191690836005811115613ff057613fef61476a565b5b021790555060408201518160010160016101000a81548173ffffffffffffffffffffffffffffffffffffffff021916908373ffffffffffffffffffffffffffffffffffffffff16021790555060608201518160020160006101000a81548173ffffffffffffffffffffffffffffffffffffffff021916908373ffffffffffffffffffffffffffffffffffffffff16021790555060808201518160030160006101000a81548173ffffffffffffffffffffffffffffffffffffffff021916908373ffffffffffffffffffffffffffffffffffffffff16021790555060a08201518160040155905050505050565b600081836140ea91906159d2565b905092915050565b600081836141009190615a43565b905092915050565b600081836141169190615d50565b905092915050565b600073ffffffffffffffffffffffffffffffffffffffff82169050919050565b6000819050919050565b600061416361415e6141598461411e565b61413e565b61411e565b9050919050565b600061417582614148565b9050919050565b60006141878261416a565b9050919050565b6141978161417c565b82525050565b60006141a88261411e565b9050919050565b6141b88161419d565b82525050565b6000819050919050565b6141d1816141be565b82525050565b600082825260208201905092915050565b7f7263000000000000000000000000000000000000000000000000000000000000600082015250565b600061421e6002836141d7565b9150614229826141e8565b602082019050919050565b6000608082019050614249600083018661418e565b61425660208301856141af565b61426360408301846141c8565b818103606083015261427481614211565b9050949350505050565b7f6662000000000000000000000000000000000000000000000000000000000000600082015250565b60006142b46002836141d7565b91506142bf8261427e565b602082019050919050565b60006080820190506142df600083018661418e565b6142ec60208301856141af565b6142f960408301846141c8565b818103606083015261430a816142a7565b9050949350505050565b600080fd5b600061ffff82169050919050565b61433081614319565b811461433b57600080fd5b50565b60008135905061434d81614327565b92915050565b60006020828403121561436957614368614314565b5b60006143778482850161433e565b91505092915050565b600060208201905061439560008301846141c8565b92915050565b6143a48161419d565b81146143af57600080fd5b50565b6000813590506143c18161439b565b92915050565b6000602082840312156143dd576143dc614314565b5b60006143eb848285016143b2565b91505092915050565b60008115159050919050565b614409816143f4565b82525050565b60006020820190506144246000830184614400565b92915050565b614433816141be565b811461443e57600080fd5b50565b6000813590506144508161442a565b92915050565b6000806040838503121561446d5761446c614314565b5b600061447b85828601614441565b925050602061448c8582860161433e565b9150509250929050565b6000819050919050565b6144a981614496565b81146144b457600080fd5b50565b6000813590506144c6816144a0565b92915050565b600080600080608085870312156144e6576144e5614314565b5b60006144f4878288016143b2565b94505060206145058782880161433e565b9350506040614516878288016144b7565b9250506060614527878288016144b7565b91505092959194509250565b6000806040838503121561454a57614549614314565b5b60006145588582860161433e565b925050602061456985828601614441565b9150509250929050565b600060ff82169050919050565b61458981614573565b811461459457600080fd5b50565b6000813590506145a681614580565b92915050565b6000602082840312156145c2576145c1614314565b5b60006145d084828501614597565b91505092915050565b600063ffffffff82169050919050565b6145f2816145d9565b81146145fd57600080fd5b50565b60008135905061460f816145e9565b92915050565b60006020828403121561462b5761462a614314565b5b600061463984828501614600565b91505092915050565b600061464d8261411e565b9050919050565b61465d81614642565b82525050565b60006020820190506146786000830184614654565b92915050565b6000806040838503121561469557614694614314565b5b60006146a38582860161433e565b92505060206146b4858286016143b2565b9150509250929050565b6000602082840312156146d4576146d3614314565b5b60006146e284828501614441565b91505092915050565b600081519050919050565b60005b838110156147145780820151818401526020810190506146f9565b60008484015250505050565b6000601f19601f8301169050919050565b600061473c826146eb565b61474681856141d7565b93506147568185602086016146f6565b61475f81614720565b840191505092915050565b7f4e487b7100000000000000000000000000000000000000000000000000000000600052602160045260246000fd5b600681106147aa576147a961476a565b5b50565b60008190506147bb82614799565b919050565b60006147cb826147ad565b9050919050565b6147db816147c0565b82525050565b600060c08201905081810360008301526147fb8189614731565b905061480a60208301886147d2565b61481760408301876141af565b61482460608301866141af565b61483160808301856141af565b61483e60a08301846141c8565b979650505050505050565b600080604083850312156148605761485f614314565b5b600061486e858286016143b2565b925050602061487f858286016143b2565b9150509250929050565b7f4e487b7100000000000000000000000000000000000000000000000000000000600052603260045260246000fd5b7f4e487b7100000000000000000000000000000000000000000000000000000000600052602260045260246000fd5b600060028204905060018216806148ff57607f821691505b602082108103614912576149116148b8565b5b50919050565b7f4e487b7100000000000000000000000000000000000000000000000000000000600052601160045260246000fd5b600061495282614496565b915061495d83614496565b925082820390508181126000841216828213600085121516171561498457614983614918565b5b92915050565b7f4e487b7100000000000000000000000000000000000000000000000000000000600052604160045260246000fd5b60008190508160005260206000209050919050565b60006020601f8301049050919050565b600082821b905092915050565b600060088302614a1b7fffffffffffffffffffffffffffffffffffffffffffffffffffffffffffffffff826149de565b614a2586836149de565b95508019841693508086168417925050509392505050565b6000614a58614a53614a4e846141be565b61413e565b6141be565b9050919050565b6000819050919050565b614a7283614a3d565b614a86614a7e82614a5f565b8484546149eb565b825550505050565b600090565b614a9b614a8e565b614aa6818484614a69565b505050565b5b81811015614aca57614abf600082614a93565b600181019050614aac565b5050565b601f821115614b0f57614ae0816149b9565b614ae9846149ce565b81016020851015614af8578190505b614b0c614b04856149ce565b830182614aab565b50505b505050565b600082821c905092915050565b6000614b3260001984600802614b14565b1980831691505092915050565b6000614b4b8383614b21565b9150826002028217905092915050565b614b64826146eb565b67ffffffffffffffff811115614b7d57614b7c61498a565b5b614b8782546148e7565b614b92828285614ace565b600060209050601f831160018114614bc55760008415614bb3578287015190505b614bbd8582614b3f565b865550614c25565b601f198416614bd3866149b9565b60005b82811015614bfb57848901518255600182019150602085019450602081019050614bd6565b86831015614c185784890151614c14601f891682614b21565b8355505b6001600288020188555050505b505050505050565b614c3681614319565b82525050565b7f4f726465722044656c6976657265640000000000000000000000000000000000600082015250565b6000614c72600f836141d7565b9150614c7d82614c3c565b602082019050919050565b6000608082019050614c9d6000830186614c2d565b614caa60208301856141af565b614cb760408301846141af565b8181036060830152614cc881614c65565b9050949350505050565b7f4974656d206d7573742068617665206265656e2064656c697665726564000000600082015250565b6000614d08601d836141d7565b9150614d1382614cd2565b602082019050919050565b60006020820190508181036000830152614d3781614cfb565b9050919050565b6000604082019050614d5360008301856141af565b614d6060208301846141c8565b9392505050565b614d70816143f4565b8114614d7b57600080fd5b50565b600081519050614d8d81614d67565b92915050565b600060208284031215614da957614da8614314565b5b6000614db784828501614d7e565b91505092915050565b7f70617944656c697665727928444c562900000000000000000000000000000000600082015250565b6000614df66010836141d7565b9150614e0182614dc0565b602082019050919050565b6000608082019050614e21600083018661418e565b614e2e60208301856141af565b614e3b60408301846141c8565b8181036060830152614e4c81614de9565b9050949350505050565b7f4f6e6c79206d65726368616e74732063616e20706572666f726d20746869732060008201527f616374696f6e0000000000000000000000000000000000000000000000000000602082015250565b6000614eb26026836141d7565b9150614ebd82614e56565b604082019050919050565b60006020820190508181036000830152614ee181614ea5565b9050919050565b7f4974656d496420697320696e636f727265637400000000000000000000000000600082015250565b6000614f1e6013836141d7565b9150614f2982614ee8565b602082019050919050565b60006020820190508181036000830152614f4d81614f11565b9050919050565b7f4f72646572732063616e206f6e6c79206265206163636570746564206279206460008201527f657369676e61746564206d65726368616e740000000000000000000000000000602082015250565b6000614fb06032836141d7565b9150614fbb82614f54565b604082019050919050565b60006020820190508181036000830152614fdf81614fa3565b9050919050565b7f4f72646572205265636569766564000000000000000000000000000000000000600082015250565b600061501c600e836141d7565b915061502782614fe6565b602082019050919050565b60006080820190506150476000830186614c2d565b61505460208301856141af565b61506160408301846141af565b81810360608301526150728161500f565b9050949350505050565b7f4f6e6c7920637573746f6d6572732063616e20706572666f726d20746869732060008201527f616374696f6e0000000000000000000000000000000000000000000000000000602082015250565b60006150d86026836141d7565b91506150e38261507c565b604082019050919050565b60006020820190508181036000830152615107816150cb565b9050919050565b7f57616c6c6574206e6f74207265676973746572656420706c656173652072656760008201527f69737465722061732061206d656d626572000000000000000000000000000000602082015250565b600061516a6031836141d7565b91506151758261510e565b604082019050919050565b600060208201905081810360008301526151998161515d565b9050919050565b7f4974656d206973206e6f7420617661696c61626c6520666f722064656c69766560008201527f7279000000000000000000000000000000000000000000000000000000000000602082015250565b60006151fc6022836141d7565b9150615207826151a0565b604082019050919050565b6000602082019050818103600083015261522b816151ef565b9050919050565b600060208201905061524760008301846141af565b92915050565b60008151905061525c8161442a565b92915050565b60006020828403121561527857615277614314565b5b60006152868482850161524d565b91505092915050565b7f496e73756666696369656e742066756e647320746f206d616b6520746869732060008201527f7075726368617365000000000000000000000000000000000000000000000000602082015250565b60006152eb6028836141d7565b91506152f68261528f565b604082019050919050565b6000602082019050818103600083015261531a816152de565b9050919050565b600060608201905061533660008301866141af565b61534360208301856141af565b61535060408301846141c8565b949350505050565b7f4f7264657220506c616365640000000000000000000000000000000000000000600082015250565b600061538e600c836141d7565b915061539982615358565b602082019050919050565b60006080820190506153b96000830186614c2d565b6153c660208301856141af565b6153d360408301846141af565b81810360608301526153e481615381565b9050949350505050565b7f596f752061726520616c72656164792061206d656d6265722100000000000000600082015250565b60006154246019836141d7565b915061542f826153ee565b602082019050919050565b6000602082019050818103600083015261545381615417565b9050919050565b7f5468657265206973206e6f20766163616e637920666f72206472697665727300600082015250565b6000615490601f836141d7565b915061549b8261545a565b602082019050919050565b600060208201905081810360008301526154bf81615483565b9050919050565b7f5075726368617365727320646f206e6f74206e65656420746f2070617920612060008201527f6d656d6265727368697020666565000000000000000000000000000000000000602082015250565b6000615522602e836141d7565b915061552d826154c6565b604082019050919050565b6000602082019050818103600083015261555181615515565b9050919050565b7f4d656d62657273686970206e6f74206578706972656400000000000000000000600082015250565b600061558e6016836141d7565b915061559982615558565b602082019050919050565b600060208201905081810360008301526155bd81615581565b9050919050565b7f496e73756666696369656e742066756e64730000000000000000000000000000600082015250565b60006155fa6012836141d7565b9150615605826155c4565b602082019050919050565b60006020820190508181036000830152615629816155ed565b9050919050565b600060608201905061564560008301866141af565b615652602083018561418e565b61565f60408301846141c8565b949350505050565b7f4d656d626572736869703a205472616e73666572726564206661696c65640000600082015250565b600061569d601e836141d7565b91506156a882615667565b602082019050919050565b600060208201905081810360008301526156cc81615690565b9050919050565b7f5175616e746974792065786365656473206d6178696d756d2076616c75653a2060008201527f342c3030302c3030302c30303000000000000000000000000000000000000000602082015250565b600061572f602d836141d7565b915061573a826156d3565b604082019050919050565b6000602082019050818103600083015261575e81615722565b9050919050565b60006fffffffffffffffffffffffffffffffff82169050919050565b600061578c82615765565b915061579783615765565b92508282026157a581615765565b91508082146157b7576157b6614918565b5b5092915050565b7f496e737566666963656e742066756e6473000000000000000000000000000000600082015250565b60006157f46011836141d7565b91506157ff826157be565b602082019050919050565b60006020820190508181036000830152615823816157e7565b9050919050565b7f50726f7669646520656e6f75676820657468657220746f20636f6d706c65746560008201527f20746865207472616e73616374696f6e2e20436865636b20746f6b656e20707260208201527f6963650000000000000000000000000000000000000000000000000000000000604082015250565b60006158ac6043836141d7565b91506158b78261582a565b606082019050919050565b600060208201905081810360008301526158db8161589f565b9050919050565b60006158fd6158f86158f3846145d9565b61413e565b6141be565b9050919050565b61590d816158e2565b82525050565b600060408201905061592860008301856141af565b6159356020830184615904565b9392505050565b7f627579546f6b656e000000000000000000000000000000000000000000000000600082015250565b60006159726008836141d7565b915061597d8261593c565b602082019050919050565b600060808201905061599d600083018661418e565b6159aa60208301856141af565b6159b760408301846141c8565b81810360608301526159c881615965565b9050949350505050565b60006159dd826141be565b91506159e8836141be565b92508282026159f6816141be565b91508282048414831517615a0d57615a0c614918565b5b5092915050565b7f4e487b7100000000000000000000000000000000000000000000000000000000600052601260045260246000fd5b6000615a4e826141be565b9150615a59836141be565b925082615a6957615a68615a14565b5b828204905092915050565b6000608082019050615a8960008301866141af565b615a96602083018561418e565b615aa360408301846141c8565b8181036060830152615ab481614de9565b9050949350505050565b7f4f7264657220696e205472616e73697400000000000000000000000000000000600082015250565b6000615af46010836141d7565b9150615aff82615abe565b602082019050919050565b6000608082019050615b1f6000830186614c2d565b615b2c60208301856141af565b615b3960408301846141af565b8181036060830152615b4a81615ae7565b9050949350505050565b7f44656c697665726965732063616e206f6e6c7920626520636f6e6669726d656460008201527f2062792064657369676e61746564206472697665720000000000000000000000602082015250565b6000615bb06035836141d7565b9150615bbb82615b54565b604082019050919050565b60006020820190508181036000830152615bdf81615ba3565b9050919050565b7f4974656d206973206e6f74207265636f7264656420617320696e207472616e7360008201527f6974000000000000000000000000000000000000000000000000000000000000602082015250565b6000615c426022836141d7565b9150615c4d82615be6565b604082019050919050565b60006020820190508181036000830152615c7181615c35565b9050919050565b7f496e73756666696369656e742070726976696c65676573000000000000000000600082015250565b6000615cae6017836141d7565b9150615cb982615c78565b602082019050919050565b60006020820190508181036000830152615cdd81615ca1565b9050919050565b7f696e73756666696369656e742066756e64730000000000000000000000000000600082015250565b6000615d1a6012836141d7565b9150615d2582615ce4565b602082019050919050565b60006020820190508181036000830152615d4981615d0d565b9050919050565b6000615d5b826141be565b9150615d66836141be565b9250828201905080821115615d7e57615d7d614918565b5b9291505056fea26469706673582212208d0f7d357ba2fbe31c26a2f549a3d9e1b6c8adc8624c89aa7ae5e669ef226be564736f6c63430008120033",
  "immutableReferences": {},
  "source": "//SPDX-License-Identifier:MIT\npragma solidity ^0.8.0;\n\nimport \"./DlvToken.sol\";\nimport \"@openzeppelin/contracts/utils/math/SafeMath.sol\";\nimport \"@openzeppelin/contracts/utils/math/SafeCast.sol\";\n\n\n\ncontract DLV_Network{\n    using SafeMath for uint256;\n    mapping(address => bool) public membership;\n    mapping(address => bool) public isMerchant;\n    mapping(address => bool) public isDriver;\n    mapping(address=> bool) public isPurchaser;\n    mapping(address => uint) public membershipExpires;\n    mapping(uint16 => uint256) public item_prices;\n    uint64 constant  MEMBERSHIP_FEE_DRIVER =  50;\n    uint64 constant  MEMBERSHIP_FEE_MERCHANT =  100;\n    uint constant  YEAR = 31536000; //365 * 24 * 60 * 60;\n    uint constant  DELIVERY_DEADLINE= 86400; //1 day in seconds\n    address payable public  owner;\n    address payable contractAccount;\n    DLVToken token;\n    uint128 price_per_token = 20000000000 wei;\n    ItemForDelivery[10000] public items;\n    address[50] drivers;\n\n    \n    bool reentrancyGuard=true;\n    enum DeliveryStatus  { Available, OrderPlaced,OrderReceived,Dispatched, Delayed, Delivered } \n    struct ItemForDelivery{\n        string name;\n        DeliveryStatus status;\n        address recipient;\n        address merchant;\n        address driver;\n        uint256 dispatchTimestamp;\n\n    }\n    function init(address merchant1, address merchant2) public {\n        address _dummmyAddress;\n       \n        //instantiate products for delivery\n        items[0] = ItemForDelivery(\"item 1\",DeliveryStatus.Available,_dummmyAddress,merchant1,_dummmyAddress,0);\n        items[1] = ItemForDelivery(\"item 2\",DeliveryStatus.Available,_dummmyAddress,merchant1,_dummmyAddress,0);\n       items[2] = ItemForDelivery(\"item 5\",DeliveryStatus.Available,_dummmyAddress,merchant2,_dummmyAddress,0);\n        items[3] = ItemForDelivery(\"item 6\",DeliveryStatus.Available,_dummmyAddress,merchant2,_dummmyAddress,0);\n        \n    }\n\n    \n    event display(address _to, address _from, uint amount, string fn);\n    event deliveryUpdate(uint16 _item_id,address _merchant,address _purchaser, string _newStatus);\n    event driverUpdate(uint16 _item_id,address _merchant,address _driver,string _status);\n\n    modifier ownerOnly { require(msg.sender == owner, \"Insufficient privileges\"); _; }\n    modifier purchaserOnly { require(isPurchaser[msg.sender]== true, \"Only customers can perform this action\"); _;}\n    modifier merchantOnly { require(isMerchant[msg.sender]== true, \"Only merchants can perform this action\"); _;}\n    modifier driverOnly { require(isDriver[msg.sender]== true, \"Only merchants can perform this action\"); _;}\n    modifier contractOnly {require(msg.sender == contractAccount,\"Executable only by the contract acct\"); _;}\n\n    constructor(DLVToken _token) payable  {\n        owner = payable(msg.sender);\n        contractAccount=payable(address(this));\n        token = _token;\n    }\n\n    fallback() external payable { emit display(contractAccount, msg.sender, msg.value, \"fb\");}\n    receive() external  payable { emit display(contractAccount, msg.sender, msg.value, \"rc\");}\n\n    function register(uint8 memberType) public {\n        address _newMemberAddress = msg.sender;\n        require(!membership[_newMemberAddress],\"You are already a member!\");\n        \n        membershipExpires[_newMemberAddress] = blockTimestamp().add(YEAR);\n        if (memberType==1) {\n            isMerchant[_newMemberAddress]= true;\n        } else if(memberType==2) {\n            require(drivers.length==50,\"There is no vacancy for drivers\");\n            isDriver[_newMemberAddress]= true;  \n        } else if (memberType==3){\n            isPurchaser[_newMemberAddress]= true;\n        }\n       payFees(_newMemberAddress);  \n    } \n\n    function blockTimestamp() public view returns(uint){\n        return block.timestamp;\n    }\n\n/*\n    sender transfers 1 ether (fee) to owner    \n*/\n    function payFees() public {\n        address _member = msg.sender;\n        require(!isPurchaser[_member],\"Purchasers do not need to pay a membership fee\");\n        //check msg.value == membership fee\n        uint MEMBERSHIP_FEE;\n        if (isMerchant[_member]== true) {\n            MEMBERSHIP_FEE = MEMBERSHIP_FEE_MERCHANT;\n        } else if (isDriver[_member]== true) {\n           MEMBERSHIP_FEE = MEMBERSHIP_FEE_DRIVER;\n        }\n\n        //check membership is invalid\n        require(membershipExpires[_member] > block.timestamp, \"Membership not expired\");\n        //check sufficient funds in account\n        require(token.balanceOf(_member) > MEMBERSHIP_FEE, \"Insufficient funds\");\n        //send the amount and update membership\n        membership[_member]= token.transferFrom(_member,contractAccount, MEMBERSHIP_FEE );\n        //check it has been paid\n        require(membership[_member], \"Membership: Transferred failed\");\n        //update new expiry time + 1 year\n        membershipExpires[_member] = blockTimestamp().add(YEAR);\n    }\n    function payFees(address _member) public {\n        //check msg.value == membership fee\n        uint MEMBERSHIP_FEE;\n        if (isMerchant[_member]== true) {\n            MEMBERSHIP_FEE = MEMBERSHIP_FEE_MERCHANT;\n        } else if (isDriver[_member]== true) {\n           MEMBERSHIP_FEE = MEMBERSHIP_FEE_DRIVER;\n        }\n        if(isPurchaser[_member]){\n             membership[_member]= true;\n             membershipExpires[_member] = blockTimestamp().add(YEAR);\n        }else{\n            //check membership is invalid\n            require(membershipExpires[_member] > blockTimestamp(), \"Membership not expired\");\n            //check sufficient funds in account\n            require(token.balanceOf(_member)> MEMBERSHIP_FEE, \"Insufficient funds\");\n            //send the amount and update membership\n            membership[_member]= token.transferFrom(_member,contractAccount, MEMBERSHIP_FEE);\n            //check it has been paid\n            require(membership[_member], \"Membership: Transferred failed\");\n            //update new expiry time + 1 year\n            membershipExpires[_member] = blockTimestamp().add(YEAR);\n        }\n    }\n\n\n    function collect(uint _amount) public  ownerOnly{\n        require(address(this).balance >= _amount,\"insufficient funds\");\n        require(reentrancyGuard);\n        reentrancyGuard=false;\n        owner.transfer(_amount);\n        reentrancyGuard=true;\n    }\n\n    \n\n    function buyToken(uint32 quantity) external payable{\n    \n        require(quantity <= type(uint32).max, \"Quantity exceeds maximum value: 4,000,000,000\");\n        address _member = msg.sender; \n        uint256 tranx_cost = quantity * price_per_token;\n        require(_member.balance > msg.value,\"Insufficent funds\" );\n        require(msg.value == tranx_cost, \"Provide enough ether to complete the transaction. Check token price\");\n        token.mint(_member,quantity);\n        emit display(contractAccount,_member,msg.value,\"buyToken\");\n    }\n \n    function orderItem(uint16 itemId, uint256 price) public purchaserOnly{\n        require(itemId <= 10000, \"ItemId is incorrect\");\n        ItemForDelivery memory selectedItem = items[itemId];\n        address  _purchaser = msg.sender;\n        require(membership[msg.sender],\"Wallet not registered please register as a member\");\n        require(selectedItem.status == DeliveryStatus.Available, \"Item is not available for delivery\");\n        require(token.balanceOf(msg.sender) > price,\"Insufficient funds to make this purchase\");\n        item_prices[itemId]= price;\n        bool paid=token.transferFrom(_purchaser,selectedItem.merchant, price);\n        if(paid){\n            selectedItem.recipient = msg.sender;\n            selectedItem.status= DeliveryStatus.OrderPlaced;\n            items[itemId] = selectedItem;\n            emit deliveryUpdate(itemId,selectedItem.merchant,_purchaser,\"Order Placed\");\n        }\n        \n    }\n    function acceptOrder(uint16 itemId) public merchantOnly{\n        require(itemId <= 10000, \"ItemId is incorrect\");\n        ItemForDelivery memory selectedItem = items[itemId];\n        require(selectedItem.merchant== msg.sender,\"Orders can only be accepted by designated merchant\");\n        selectedItem.status = DeliveryStatus.OrderReceived;\n        items[itemId] =selectedItem;\n        emit deliveryUpdate(itemId,msg.sender,selectedItem.recipient,\"Order Received\");\n    }\n    function dispatchItem(uint16 itemId, address _driver) public  merchantOnly{\n        require(itemId <= 10000, \"ItemId is incorrect\");\n        ItemForDelivery memory selectedItem = items[itemId];\n        require(selectedItem.merchant== msg.sender,\"Orders can only be accepted by designated merchant\"); \n        require(selectedItem.status == DeliveryStatus.OrderReceived, \"Item is not available for delivery\");\n        uint256 delivery_fee = (item_prices[itemId]*5)/100;\n        bool paid = token.transferFrom(msg.sender,contractAccount, delivery_fee);\n        if(paid){\n            emit display(msg.sender,contractAccount,delivery_fee,\"payDelivery(DLV)\");\n            selectedItem.status = DeliveryStatus.Dispatched;\n            selectedItem.driver = _driver;\n            selectedItem.dispatchTimestamp = blockTimestamp();\n            items[itemId] = selectedItem;\n            emit deliveryUpdate(itemId,msg.sender,selectedItem.recipient,\"Order in Transit\");\n        }\n        \n    }\n    function reportDelivery(uint16 itemId) public  driverOnly{\n        require(itemId <= 10000, \"ItemId is incorrect\");\n        ItemForDelivery memory selectedItem = items[itemId]; \n        require(selectedItem.driver== msg.sender,\"Deliveries can only be confirmed by designated driver\"); \n        require(selectedItem.status == DeliveryStatus.Dispatched, \"Item is not recorded as in transit\");\n        \n        verifyDelivery(blockTimestamp(), itemId);\n        \n    }\n    function verifyDelivery(uint256 deliveryTimestamp, uint16 itemId) public {\n       //assumption of location and actual delivery of item\n       ItemForDelivery memory selectedItem = items[itemId]; \n       int256 deliveryTime =int(deliveryTimestamp)- int(selectedItem.dispatchTimestamp);\n       selectedItem.status = DeliveryStatus.Delivered;\n       items[itemId]= selectedItem;\n       payDriver(selectedItem.driver, itemId, deliveryTime, int(DELIVERY_DEADLINE));\n       emit deliveryUpdate(itemId,selectedItem.merchant,selectedItem.recipient,\"Order Delivered\");\n    }\n    function payDriver(address _driverAddress, uint16 itemId, int256 deliveryTime,int DEADLINE) public   returns(bool){\n         bool paid;\n         ItemForDelivery memory selectedItem = items[itemId]; \n         uint256 driver_stipend = (item_prices[itemId].mul(4)).div(100);\n         require(selectedItem.status == DeliveryStatus.Delivered, \"Item must have been delivered\");\n         if(deliveryTime <= DEADLINE){\n           paid= token.transfer(_driverAddress,driver_stipend);\n           if (paid) emit display(contractAccount,_driverAddress,driver_stipend,\"payDelivery(DLV)\");\n         }else{\n          paid= token.transfer(_driverAddress,(driver_stipend.mul(50)).div(100));\n            if(paid) emit display(contractAccount,_driverAddress,(driver_stipend.mul(50)).div(100),\"payDelivery(DLV)\");\n         }\n         return paid;\n    }\n}\n\n",
  "sourcePath": "/home/ian/cw2/contracts/dlv_network_contract.sol",
  "compiler": {
    "name": "solc",
    "version": "0.8.18+commit.87f61d96.Emscripten.clang"
  },
  "schemaVersion": "3.4.12",
  "updatedAt": "2023-04-03T14:10:56.807Z",
  "networkType": "ethereum",
  "devdoc": {
    "kind": "dev",
    "methods": {},
    "version": 1
  },
  "userdoc": {
    "kind": "user",
    "methods": {},
    "version": 1
  }
}