{
  "contractName": "DLV_Network",
  "abi": [
    {
      "inputs": [
        {
          "internalType": "contract DLVToken",
          "name": "_token",
          "type": "address"
        }
      ],
      "stateMutability": "payable",
      "type": "constructor",
      "payable": true
    },
    {
      "anonymous": false,
      "inputs": [
        {
          "indexed": false,
          "internalType": "uint16",
          "name": "_item_id",
          "type": "uint16"
        },
        {
          "indexed": false,
          "internalType": "address",
          "name": "_merchant",
          "type": "address"
        },
        {
          "indexed": false,
          "internalType": "address",
          "name": "_purchaser",
          "type": "address"
        },
        {
          "indexed": false,
          "internalType": "string",
          "name": "_newStatus",
          "type": "string"
        }
      ],
      "name": "deliveryUpdate",
      "type": "event"
    },
    {
      "anonymous": false,
      "inputs": [
        {
          "indexed": false,
          "internalType": "address",
          "name": "_to",
          "type": "address"
        },
        {
          "indexed": false,
          "internalType": "address",
          "name": "_from",
          "type": "address"
        },
        {
          "indexed": false,
          "internalType": "uint256",
          "name": "amount",
          "type": "uint256"
        },
        {
          "indexed": false,
          "internalType": "string",
          "name": "fn",
          "type": "string"
        }
      ],
      "name": "display",
      "type": "event"
    },
    {
      "anonymous": false,
      "inputs": [
        {
          "indexed": false,
          "internalType": "uint16",
          "name": "_item_id",
          "type": "uint16"
        },
        {
          "indexed": false,
          "internalType": "address",
          "name": "_merchant",
          "type": "address"
        },
        {
          "indexed": false,
          "internalType": "address",
          "name": "_driver",
          "type": "address"
        },
        {
          "indexed": false,
          "internalType": "string",
          "name": "_status",
          "type": "string"
        }
      ],
      "name": "driverUpdate",
      "type": "event"
    },
    {
      "stateMutability": "payable",
      "type": "fallback",
      "payable": true
    },
    {
      "inputs": [
        {
          "internalType": "address",
          "name": "",
          "type": "address"
        }
      ],
      "name": "isDriver",
      "outputs": [
        {
          "internalType": "bool",
          "name": "",
          "type": "bool"
        }
      ],
      "stateMutability": "view",
      "type": "function",
      "constant": true
    },
    {
      "inputs": [
        {
          "internalType": "address",
          "name": "",
          "type": "address"
        }
      ],
      "name": "isMerchant",
      "outputs": [
        {
          "internalType": "bool",
          "name": "",
          "type": "bool"
        }
      ],
      "stateMutability": "view",
      "type": "function",
      "constant": true
    },
    {
      "inputs": [
        {
          "internalType": "address",
          "name": "",
          "type": "address"
        }
      ],
      "name": "isPurchaser",
      "outputs": [
        {
          "internalType": "bool",
          "name": "",
          "type": "bool"
        }
      ],
      "stateMutability": "view",
      "type": "function",
      "constant": true
    },
    {
      "inputs": [
        {
          "internalType": "uint16",
          "name": "",
          "type": "uint16"
        }
      ],
      "name": "item_prices",
      "outputs": [
        {
          "internalType": "uint256",
          "name": "",
          "type": "uint256"
        }
      ],
      "stateMutability": "view",
      "type": "function",
      "constant": true
    },
    {
      "inputs": [
        {
          "internalType": "uint256",
          "name": "",
          "type": "uint256"
        }
      ],
      "name": "items",
      "outputs": [
        {
          "internalType": "string",
          "name": "name",
          "type": "string"
        },
        {
          "internalType": "enum DLV_Network.DeliveryStatus",
          "name": "status",
          "type": "uint8"
        },
        {
          "internalType": "address",
          "name": "recipient",
          "type": "address"
        },
        {
          "internalType": "address",
          "name": "merchant",
          "type": "address"
        },
        {
          "internalType": "address",
          "name": "driver",
          "type": "address"
        },
        {
          "internalType": "uint256",
          "name": "dispatchTimestamp",
          "type": "uint256"
        }
      ],
      "stateMutability": "view",
      "type": "function",
      "constant": true
    },
    {
      "inputs": [
        {
          "internalType": "address",
          "name": "",
          "type": "address"
        }
      ],
      "name": "membership",
      "outputs": [
        {
          "internalType": "bool",
          "name": "",
          "type": "bool"
        }
      ],
      "stateMutability": "view",
      "type": "function",
      "constant": true
    },
    {
      "inputs": [
        {
          "internalType": "address",
          "name": "",
          "type": "address"
        }
      ],
      "name": "membershipExpires",
      "outputs": [
        {
          "internalType": "uint256",
          "name": "",
          "type": "uint256"
        }
      ],
      "stateMutability": "view",
      "type": "function",
      "constant": true
    },
    {
      "inputs": [],
      "name": "owner",
      "outputs": [
        {
          "internalType": "address payable",
          "name": "",
          "type": "address"
        }
      ],
      "stateMutability": "view",
      "type": "function",
      "constant": true
    },
    {
      "stateMutability": "payable",
      "type": "receive",
      "payable": true
    },
    {
      "inputs": [
        {
          "internalType": "address",
          "name": "merchant1",
          "type": "address"
        },
        {
          "internalType": "address",
          "name": "merchant2",
          "type": "address"
        }
      ],
      "name": "init",
      "outputs": [],
      "stateMutability": "nonpayable",
      "type": "function"
    },
    {
      "inputs": [
        {
          "internalType": "uint8",
          "name": "memberType",
          "type": "uint8"
        }
      ],
      "name": "register",
      "outputs": [],
      "stateMutability": "nonpayable",
      "type": "function"
    },
    {
      "inputs": [],
      "name": "blockTimestamp",
      "outputs": [
        {
          "internalType": "uint256",
          "name": "",
          "type": "uint256"
        }
      ],
      "stateMutability": "view",
      "type": "function",
      "constant": true
    },
    {
      "inputs": [],
      "name": "payFees",
      "outputs": [],
      "stateMutability": "nonpayable",
      "type": "function"
    },
    {
      "inputs": [
        {
          "internalType": "address",
          "name": "_member",
          "type": "address"
        }
      ],
      "name": "payFees",
      "outputs": [],
      "stateMutability": "nonpayable",
      "type": "function"
    },
    {
      "inputs": [
        {
          "internalType": "uint256",
          "name": "_amount",
          "type": "uint256"
        }
      ],
      "name": "collect",
      "outputs": [],
      "stateMutability": "nonpayable",
      "type": "function"
    },
    {
      "inputs": [
        {
          "internalType": "uint32",
          "name": "quantity",
          "type": "uint32"
        }
      ],
      "name": "buyToken",
      "outputs": [],
      "stateMutability": "payable",
      "type": "function",
      "payable": true
    },
    {
      "inputs": [
        {
          "internalType": "uint16",
          "name": "itemId",
          "type": "uint16"
        },
        {
          "internalType": "uint256",
          "name": "price",
          "type": "uint256"
        }
      ],
      "name": "orderItem",
      "outputs": [],
      "stateMutability": "nonpayable",
      "type": "function"
    },
    {
      "inputs": [
        {
          "internalType": "uint16",
          "name": "itemId",
          "type": "uint16"
        }
      ],
      "name": "acceptOrder",
      "outputs": [],
      "stateMutability": "nonpayable",
      "type": "function"
    },
    {
      "inputs": [
        {
          "internalType": "uint16",
          "name": "itemId",
          "type": "uint16"
        },
        {
          "internalType": "address",
          "name": "_driver",
          "type": "address"
        }
      ],
      "name": "dispatchItem",
      "outputs": [],
      "stateMutability": "nonpayable",
      "type": "function"
    },
    {
      "inputs": [
        {
          "internalType": "uint16",
          "name": "itemId",
          "type": "uint16"
        }
      ],
      "name": "reportDelivery",
      "outputs": [],
      "stateMutability": "nonpayable",
      "type": "function"
    },
    {
      "inputs": [
        {
          "internalType": "uint256",
          "name": "deliveryTimestamp",
          "type": "uint256"
        },
        {
          "internalType": "uint16",
          "name": "itemId",
          "type": "uint16"
        }
      ],
      "name": "verifyDelivery",
      "outputs": [],
      "stateMutability": "nonpayable",
      "type": "function"
    },
    {
      "inputs": [
        {
          "internalType": "address",
          "name": "_driverAddress",
          "type": "address"
        },
        {
          "internalType": "uint16",
          "name": "itemId",
          "type": "uint16"
        },
        {
          "internalType": "uint256",
          "name": "deliveryTime",
          "type": "uint256"
        },
        {
          "internalType": "uint256",
          "name": "DEADLINE",
          "type": "uint256"
        }
      ],
      "name": "payDriver",
      "outputs": [
        {
          "internalType": "bool",
          "name": "",
          "type": "bool"
        }
      ],
      "stateMutability": "nonpayable",
      "type": "function"
    }
  ],
  "bytecode": "0x60806040526404a817c800600960006101000a8154816fffffffffffffffffffffffffffffffff02191690836fffffffffffffffffffffffffffffffff160217905550600161c38c60006101000a81548160ff02191690831515021790555060405162005f8638038062005f868339818101604052810190620000839190620001cb565b33600660006101000a81548173ffffffffffffffffffffffffffffffffffffffff021916908373ffffffffffffffffffffffffffffffffffffffff16021790555030600760006101000a81548173ffffffffffffffffffffffffffffffffffffffff021916908373ffffffffffffffffffffffffffffffffffffffff16021790555080600860006101000a81548173ffffffffffffffffffffffffffffffffffffffff021916908373ffffffffffffffffffffffffffffffffffffffff16021790555050620001fd565b600080fd5b600073ffffffffffffffffffffffffffffffffffffffff82169050919050565b60006200017f8262000152565b9050919050565b6000620001938262000172565b9050919050565b620001a58162000186565b8114620001b157600080fd5b50565b600081519050620001c5816200019a565b92915050565b600060208284031215620001e457620001e36200014d565b5b6000620001f484828501620001b4565b91505092915050565b615d79806200020d6000396000f3fe60806040526004361061012e5760003560e01c8063772ccf5d116100ab578063b8f9197b1161006f578063b8f9197b146104b5578063b8ff6e08146104de578063bfb231d214610507578063c11c421314610549578063ce3f865f14610586578063f09a4016146105af57610192565b8063772ccf5d146103bc5780638da5cb5b146103f9578063947cda6c14610424578063ab9420361461044d578063adb618321461048a57610192565b80635530d2de116100f25780635530d2de146102fa57806361d689fa1461032357806362779e151461034c578063698140e2146103635780636d77ca201461037f57610192565b8063152d7f75146101f1578063158ed0ac1461022e5780631a2f71671461026b5780631db629ea146102a8578063502ebaa9146102d157610192565b36610192577f62c69cc67fa424b6afadb7f44dcf84a9638c58537817264b4f6a3953e5334d28600760009054906101000a900473ffffffffffffffffffffffffffffffffffffffff16333460405161018893929190614238565b60405180910390a1005b7f62c69cc67fa424b6afadb7f44dcf84a9638c58537817264b4f6a3953e5334d28600760009054906101000a900473ffffffffffffffffffffffffffffffffffffffff1633346040516101e7939291906142ce565b60405180910390a1005b3480156101fd57600080fd5b5061021860048036038101906102139190614357565b6105d8565b6040516102259190614384565b60405180910390f35b34801561023a57600080fd5b50610255600480360381019061025091906143cb565b6105f0565b6040516102629190614384565b60405180910390f35b34801561027757600080fd5b50610292600480360381019061028d91906143cb565b610608565b60405161029f9190614413565b60405180910390f35b3480156102b457600080fd5b506102cf60048036038101906102ca919061445a565b610628565b005b3480156102dd57600080fd5b506102f860048036038101906102f39190614357565b610a6f565b005b34801561030657600080fd5b50610321600480360381019061031c919061449a565b610f7c565b005b34801561032f57600080fd5b5061034a60048036038101906103459190614513565b6116fb565b005b34801561035857600080fd5b50610361611972565b005b61037d6004803603810190610378919061457c565b611e40565b005b34801561038b57600080fd5b506103a660048036038101906103a191906145a9565b612094565b6040516103b39190614413565b60405180910390f35b3480156103c857600080fd5b506103e360048036038101906103de91906143cb565b612579565b6040516103f09190614413565b60405180910390f35b34801561040557600080fd5b5061040e612599565b60405161041b9190614631565b60405180910390f35b34801561043057600080fd5b5061044b6004803603810190610446919061464c565b6125bf565b005b34801561045957600080fd5b50610474600480360381019061046f91906143cb565b612ce6565b6040516104819190614413565b60405180910390f35b34801561049657600080fd5b5061049f612d06565b6040516104ac9190614384565b60405180910390f35b3480156104c157600080fd5b506104dc60048036038101906104d791906143cb565b612d0e565b005b3480156104ea57600080fd5b5061050560048036038101906105009190614357565b613261565b005b34801561051357600080fd5b5061052e6004803603810190610529919061468c565b613634565b604051610540969594939291906147af565b60405180910390f35b34801561055557600080fd5b50610570600480360381019061056b91906143cb565b61376c565b60405161057d9190614413565b60405180910390f35b34801561059257600080fd5b506105ad60048036038101906105a8919061468c565b61378c565b005b3480156105bb57600080fd5b506105d660048036038101906105d19190614817565b61391d565b005b60056020528060005260406000206000915090505481565b60046020528060005260406000206000915090505481565b60016020528060005260406000206000915054906101000a900460ff1681565b600760009054906101000a900473ffffffffffffffffffffffffffffffffffffffff1673ffffffffffffffffffffffffffffffffffffffff163373ffffffffffffffffffffffffffffffffffffffff161461068257600080fd5b6000600a8261ffff16612710811061069d5761069c614857565b5b600502016040518060c00160405290816000820180546106bc906148b5565b80601f01602080910402602001604051908101604052809291908181526020018280546106e8906148b5565b80156107355780601f1061070a57610100808354040283529160200191610735565b820191906000526020600020905b81548152906001019060200180831161071857829003601f168201915b505050505081526020016001820160009054906101000a900460ff16600581111561076357610762614738565b5b600581111561077557610774614738565b5b81526020016001820160019054906101000a900473ffffffffffffffffffffffffffffffffffffffff1673ffffffffffffffffffffffffffffffffffffffff1673ffffffffffffffffffffffffffffffffffffffff1681526020016002820160009054906101000a900473ffffffffffffffffffffffffffffffffffffffff1673ffffffffffffffffffffffffffffffffffffffff1673ffffffffffffffffffffffffffffffffffffffff1681526020016003820160009054906101000a900473ffffffffffffffffffffffffffffffffffffffff1673ffffffffffffffffffffffffffffffffffffffff1673ffffffffffffffffffffffffffffffffffffffff168152602001600482015481525050905060008160a00151846108999190614915565b90506108ae8260800151848362015180612094565b506002826020019060058111156108c8576108c7614738565b5b908160058111156108dc576108db614738565b5b8152505081600a8461ffff1661271081106108fa576108f9614857565b5b6005020160008201518160000190816109139190614b1a565b5060208201518160010160006101000a81548160ff0219169083600581111561093f5761093e614738565b5b021790555060408201518160010160016101000a81548173ffffffffffffffffffffffffffffffffffffffff021916908373ffffffffffffffffffffffffffffffffffffffff16021790555060608201518160020160006101000a81548173ffffffffffffffffffffffffffffffffffffffff021916908373ffffffffffffffffffffffffffffffffffffffff16021790555060808201518160030160006101000a81548173ffffffffffffffffffffffffffffffffffffffff021916908373ffffffffffffffffffffffffffffffffffffffff16021790555060a082015181600401559050507f8e9d35c7701c4050e605a6769e63b07453e420d100ecd7af2a63702692b2eb068383606001518460400151604051610a6193929190614c47565b60405180910390a150505050565b60011515600160003373ffffffffffffffffffffffffffffffffffffffff1673ffffffffffffffffffffffffffffffffffffffff16815260200190815260200160002060009054906101000a900460ff16151514610b02576040517f08c379a0000000000000000000000000000000000000000000000000000000008152600401610af990614d03565b60405180910390fd5b6127108161ffff161115610b4b576040517f08c379a0000000000000000000000000000000000000000000000000000000008152600401610b4290614d6f565b60405180910390fd5b6000600a8261ffff166127108110610b6657610b65614857565b5b600502016040518060c0016040529081600082018054610b85906148b5565b80601f0160208091040260200160405190810160405280929190818152602001828054610bb1906148b5565b8015610bfe5780601f10610bd357610100808354040283529160200191610bfe565b820191906000526020600020905b815481529060010190602001808311610be157829003601f168201915b505050505081526020016001820160009054906101000a900460ff166005811115610c2c57610c2b614738565b5b6005811115610c3e57610c3d614738565b5b81526020016001820160019054906101000a900473ffffffffffffffffffffffffffffffffffffffff1673ffffffffffffffffffffffffffffffffffffffff1673ffffffffffffffffffffffffffffffffffffffff1681526020016002820160009054906101000a900473ffffffffffffffffffffffffffffffffffffffff1673ffffffffffffffffffffffffffffffffffffffff1673ffffffffffffffffffffffffffffffffffffffff1681526020016003820160009054906101000a900473ffffffffffffffffffffffffffffffffffffffff1673ffffffffffffffffffffffffffffffffffffffff1673ffffffffffffffffffffffffffffffffffffffff16815260200160048201548152505090503373ffffffffffffffffffffffffffffffffffffffff16816060015173ffffffffffffffffffffffffffffffffffffffff1614610dc2576040517f08c379a0000000000000000000000000000000000000000000000000000000008152600401610db990614e01565b60405180910390fd5b600281602001906005811115610ddb57610dda614738565b5b90816005811115610def57610dee614738565b5b8152505080600a8361ffff166127108110610e0d57610e0c614857565b5b600502016000820151816000019081610e269190614b1a565b5060208201518160010160006101000a81548160ff02191690836005811115610e5257610e51614738565b5b021790555060408201518160010160016101000a81548173ffffffffffffffffffffffffffffffffffffffff021916908373ffffffffffffffffffffffffffffffffffffffff16021790555060608201518160020160006101000a81548173ffffffffffffffffffffffffffffffffffffffff021916908373ffffffffffffffffffffffffffffffffffffffff16021790555060808201518160030160006101000a81548173ffffffffffffffffffffffffffffffffffffffff021916908373ffffffffffffffffffffffffffffffffffffffff16021790555060a082015181600401559050507f8e9d35c7701c4050e605a6769e63b07453e420d100ecd7af2a63702692b2eb0682338360400151604051610f7093929190614e6d565b60405180910390a15050565b60011515600360003373ffffffffffffffffffffffffffffffffffffffff1673ffffffffffffffffffffffffffffffffffffffff16815260200190815260200160002060009054906101000a900460ff1615151461100f576040517f08c379a000000000000000000000000000000000000000000000000000000000815260040161100690614f29565b60405180910390fd5b6127108261ffff161115611058576040517f08c379a000000000000000000000000000000000000000000000000000000000815260040161104f90614d6f565b60405180910390fd5b6000600a8361ffff16612710811061107357611072614857565b5b600502016040518060c0016040529081600082018054611092906148b5565b80601f01602080910402602001604051908101604052809291908181526020018280546110be906148b5565b801561110b5780601f106110e05761010080835404028352916020019161110b565b820191906000526020600020905b8154815290600101906020018083116110ee57829003601f168201915b505050505081526020016001820160009054906101000a900460ff16600581111561113957611138614738565b5b600581111561114b5761114a614738565b5b81526020016001820160019054906101000a900473ffffffffffffffffffffffffffffffffffffffff1673ffffffffffffffffffffffffffffffffffffffff1673ffffffffffffffffffffffffffffffffffffffff1681526020016002820160009054906101000a900473ffffffffffffffffffffffffffffffffffffffff1673ffffffffffffffffffffffffffffffffffffffff1673ffffffffffffffffffffffffffffffffffffffff1681526020016003820160009054906101000a900473ffffffffffffffffffffffffffffffffffffffff1673ffffffffffffffffffffffffffffffffffffffff1673ffffffffffffffffffffffffffffffffffffffff168152602001600482015481525050905060003390506000803373ffffffffffffffffffffffffffffffffffffffff1673ffffffffffffffffffffffffffffffffffffffff16815260200190815260200160002060009054906101000a900460ff166112ed576040517f08c379a00000000000000000000000000000000000000000000000000000000081526004016112e490614fbb565b60405180910390fd5b6000600581111561130157611300614738565b5b8260200151600581111561131857611317614738565b5b14611358576040517f08c379a000000000000000000000000000000000000000000000000000000000815260040161134f9061504d565b60405180910390fd5b82600860009054906101000a900473ffffffffffffffffffffffffffffffffffffffff1673ffffffffffffffffffffffffffffffffffffffff166370a08231336040518263ffffffff1660e01b81526004016113b4919061506d565b602060405180830381865afa1580156113d1573d6000803e3d6000fd5b505050506040513d601f19601f820116820180604052508101906113f5919061509d565b11611435576040517f08c379a000000000000000000000000000000000000000000000000000000000815260040161142c9061513c565b60405180910390fd5b82600560008661ffff1661ffff168152602001908152602001600020819055506000600860009054906101000a900473ffffffffffffffffffffffffffffffffffffffff1673ffffffffffffffffffffffffffffffffffffffff166323b872dd838560600151876040518463ffffffff1660e01b81526004016114ba9392919061515c565b6020604051808303816000875af11580156114d9573d6000803e3d6000fd5b505050506040513d601f19601f820116820180604052508101906114fd91906151bf565b905080156116f45733836040019073ffffffffffffffffffffffffffffffffffffffff16908173ffffffffffffffffffffffffffffffffffffffff168152505060018360200190600581111561155657611555614738565b5b9081600581111561156a57611569614738565b5b8152505082600a8661ffff16612710811061158857611587614857565b5b6005020160008201518160000190816115a19190614b1a565b5060208201518160010160006101000a81548160ff021916908360058111156115cd576115cc614738565b5b021790555060408201518160010160016101000a81548173ffffffffffffffffffffffffffffffffffffffff021916908373ffffffffffffffffffffffffffffffffffffffff16021790555060608201518160020160006101000a81548173ffffffffffffffffffffffffffffffffffffffff021916908373ffffffffffffffffffffffffffffffffffffffff16021790555060808201518160030160006101000a81548173ffffffffffffffffffffffffffffffffffffffff021916908373ffffffffffffffffffffffffffffffffffffffff16021790555060a082015181600401559050507f8e9d35c7701c4050e605a6769e63b07453e420d100ecd7af2a63702692b2eb06858460600151846040516116eb93929190615238565b60405180910390a15b5050505050565b60003390506000808273ffffffffffffffffffffffffffffffffffffffff1673ffffffffffffffffffffffffffffffffffffffff16815260200190815260200160002060009054906101000a900460ff161561178c576040517f08c379a0000000000000000000000000000000000000000000000000000000008152600401611783906152ce565b60405180910390fd5b6117aa6301e1338061179c612d06565b61410c90919063ffffffff16565b600460008373ffffffffffffffffffffffffffffffffffffffff1673ffffffffffffffffffffffffffffffffffffffff1681526020019081526020016000208190555060018260ff16036118545760018060008373ffffffffffffffffffffffffffffffffffffffff1673ffffffffffffffffffffffffffffffffffffffff16815260200190815260200160002060006101000a81548160ff021916908315150217905550611965565b60028260ff16036118ff57603280146118a2576040517f08c379a00000000000000000000000000000000000000000000000000000000081526004016118999061533a565b60405180910390fd5b6001600260008373ffffffffffffffffffffffffffffffffffffffff1673ffffffffffffffffffffffffffffffffffffffff16815260200190815260200160002060006101000a81548160ff021916908315150217905550611964565b60038260ff1603611963576001600360008373ffffffffffffffffffffffffffffffffffffffff1673ffffffffffffffffffffffffffffffffffffffff16815260200190815260200160002060006101000a81548160ff0219169083151502179055505b5b5b61196e81612d0e565b5050565b6000339050600360008273ffffffffffffffffffffffffffffffffffffffff1673ffffffffffffffffffffffffffffffffffffffff16815260200190815260200160002060009054906101000a900460ff1615611a04576040517f08c379a00000000000000000000000000000000000000000000000000000000081526004016119fb906153cc565b60405180910390fd5b600060011515600160008473ffffffffffffffffffffffffffffffffffffffff1673ffffffffffffffffffffffffffffffffffffffff16815260200190815260200160002060009054906101000a900460ff16151503611a7157606467ffffffffffffffff169050611ad9565b60011515600260008473ffffffffffffffffffffffffffffffffffffffff1673ffffffffffffffffffffffffffffffffffffffff16815260200190815260200160002060009054906101000a900460ff16151503611ad857603267ffffffffffffffff1690505b5b42600460008473ffffffffffffffffffffffffffffffffffffffff1673ffffffffffffffffffffffffffffffffffffffff1681526020019081526020016000205411611b5a576040517f08c379a0000000000000000000000000000000000000000000000000000000008152600401611b5190615438565b60405180910390fd5b80600860009054906101000a900473ffffffffffffffffffffffffffffffffffffffff1673ffffffffffffffffffffffffffffffffffffffff166370a08231846040518263ffffffff1660e01b8152600401611bb6919061506d565b602060405180830381865afa158015611bd3573d6000803e3d6000fd5b505050506040513d601f19601f82011682018060405250810190611bf7919061509d565b11611c37576040517f08c379a0000000000000000000000000000000000000000000000000000000008152600401611c2e906154a4565b60405180910390fd5b600860009054906101000a900473ffffffffffffffffffffffffffffffffffffffff1673ffffffffffffffffffffffffffffffffffffffff166323b872dd83600760009054906101000a900473ffffffffffffffffffffffffffffffffffffffff16846040518463ffffffff1660e01b8152600401611cb8939291906154c4565b6020604051808303816000875af1158015611cd7573d6000803e3d6000fd5b505050506040513d601f19601f82011682018060405250810190611cfb91906151bf565b6000808473ffffffffffffffffffffffffffffffffffffffff1673ffffffffffffffffffffffffffffffffffffffff16815260200190815260200160002060006101000a81548160ff0219169083151502179055506000808373ffffffffffffffffffffffffffffffffffffffff1673ffffffffffffffffffffffffffffffffffffffff16815260200190815260200160002060009054906101000a900460ff16611ddb576040517f08c379a0000000000000000000000000000000000000000000000000000000008152600401611dd290615547565b60405180910390fd5b611df96301e13380611deb612d06565b61410c90919063ffffffff16565b600460008473ffffffffffffffffffffffffffffffffffffffff1673ffffffffffffffffffffffffffffffffffffffff168152602001908152602001600020819055505050565b600061c38c60006101000a81548160ff02191690831515021790555063ffffffff80168163ffffffff161115611eab576040517f08c379a0000000000000000000000000000000000000000000000000000000008152600401611ea2906155d9565b60405180910390fd5b60003390506000600960009054906101000a90046fffffffffffffffffffffffffffffffff168363ffffffff16611ee29190615615565b6fffffffffffffffffffffffffffffffff169050348273ffffffffffffffffffffffffffffffffffffffff163111611f4f576040517f08c379a0000000000000000000000000000000000000000000000000000000008152600401611f469061569e565b60405180910390fd5b803414611f91576040517f08c379a0000000000000000000000000000000000000000000000000000000008152600401611f8890615756565b60405180910390fd5b600860009054906101000a900473ffffffffffffffffffffffffffffffffffffffff1673ffffffffffffffffffffffffffffffffffffffff166340c10f1983856040518363ffffffff1660e01b8152600401611fee9291906157a7565b6020604051808303816000875af115801561200d573d6000803e3d6000fd5b505050506040513d601f19601f8201168201806040525081019061203191906151bf565b507f62c69cc67fa424b6afadb7f44dcf84a9638c58537817264b4f6a3953e5334d28600760009054906101000a900473ffffffffffffffffffffffffffffffffffffffff1683346040516120879392919061581c565b60405180910390a1505050565b6000600760009054906101000a900473ffffffffffffffffffffffffffffffffffffffff1673ffffffffffffffffffffffffffffffffffffffff163373ffffffffffffffffffffffffffffffffffffffff16146120f057600080fd5b600080600a8661ffff16612710811061210c5761210b614857565b5b600502016040518060c001604052908160008201805461212b906148b5565b80601f0160208091040260200160405190810160405280929190818152602001828054612157906148b5565b80156121a45780601f10612179576101008083540402835291602001916121a4565b820191906000526020600020905b81548152906001019060200180831161218757829003601f168201915b505050505081526020016001820160009054906101000a900460ff1660058111156121d2576121d1614738565b5b60058111156121e4576121e3614738565b5b81526020016001820160019054906101000a900473ffffffffffffffffffffffffffffffffffffffff1673ffffffffffffffffffffffffffffffffffffffff1673ffffffffffffffffffffffffffffffffffffffff1681526020016002820160009054906101000a900473ffffffffffffffffffffffffffffffffffffffff1673ffffffffffffffffffffffffffffffffffffffff1673ffffffffffffffffffffffffffffffffffffffff1681526020016003820160009054906101000a900473ffffffffffffffffffffffffffffffffffffffff1673ffffffffffffffffffffffffffffffffffffffff1673ffffffffffffffffffffffffffffffffffffffff1681526020016004820154815250509050600060646004600560008a61ffff1661ffff168152602001908152602001600020546123229190615866565b61232c91906158d7565b90506002600581111561234257612341614738565b5b8260200151600581111561235957612358614738565b5b14612399576040517f08c379a000000000000000000000000000000000000000000000000000000000815260040161239090615954565b60405180910390fd5b8486116124aa57821561244857600860009054906101000a900473ffffffffffffffffffffffffffffffffffffffff1673ffffffffffffffffffffffffffffffffffffffff1663a9059cbb89836040518363ffffffff1660e01b8152600401612403929190615974565b6020604051808303816000875af1158015612422573d6000803e3d6000fd5b505050506040513d601f19601f8201168201806040525081019061244691906151bf565b505b7f62c69cc67fa424b6afadb7f44dcf84a9638c58537817264b4f6a3953e5334d28600760009054906101000a900473ffffffffffffffffffffffffffffffffffffffff16898360405161249d939291906159e9565b60405180910390a161256b565b821561256a57600860009054906101000a900473ffffffffffffffffffffffffffffffffffffffff1673ffffffffffffffffffffffffffffffffffffffff1663a9059cbb8960646032856124fe9190615866565b61250891906158d7565b6040518363ffffffff1660e01b8152600401612525929190615974565b6020604051808303816000875af1158015612544573d6000803e3d6000fd5b505050506040513d601f19601f8201168201806040525081019061256891906151bf565b505b5b829350505050949350505050565b60006020528060005260406000206000915054906101000a900460ff1681565b600660009054906101000a900473ffffffffffffffffffffffffffffffffffffffff1681565b60011515600160003373ffffffffffffffffffffffffffffffffffffffff1673ffffffffffffffffffffffffffffffffffffffff16815260200190815260200160002060009054906101000a900460ff16151514612652576040517f08c379a000000000000000000000000000000000000000000000000000000000815260040161264990614d03565b60405180910390fd5b6127108261ffff16111561269b576040517f08c379a000000000000000000000000000000000000000000000000000000000815260040161269290614d6f565b60405180910390fd5b6000600a8361ffff1661271081106126b6576126b5614857565b5b600502016040518060c00160405290816000820180546126d5906148b5565b80601f0160208091040260200160405190810160405280929190818152602001828054612701906148b5565b801561274e5780601f106127235761010080835404028352916020019161274e565b820191906000526020600020905b81548152906001019060200180831161273157829003601f168201915b505050505081526020016001820160009054906101000a900460ff16600581111561277c5761277b614738565b5b600581111561278e5761278d614738565b5b81526020016001820160019054906101000a900473ffffffffffffffffffffffffffffffffffffffff1673ffffffffffffffffffffffffffffffffffffffff1673ffffffffffffffffffffffffffffffffffffffff1681526020016002820160009054906101000a900473ffffffffffffffffffffffffffffffffffffffff1673ffffffffffffffffffffffffffffffffffffffff1673ffffffffffffffffffffffffffffffffffffffff1681526020016003820160009054906101000a900473ffffffffffffffffffffffffffffffffffffffff1673ffffffffffffffffffffffffffffffffffffffff1673ffffffffffffffffffffffffffffffffffffffff16815260200160048201548152505090503373ffffffffffffffffffffffffffffffffffffffff16816060015173ffffffffffffffffffffffffffffffffffffffff1614612912576040517f08c379a000000000000000000000000000000000000000000000000000000000815260040161290990614e01565b60405180910390fd5b6002600581111561292657612925614738565b5b8160200151600581111561293d5761293c614738565b5b1461297d576040517f08c379a00000000000000000000000000000000000000000000000000000000081526004016129749061504d565b60405180910390fd5b6000606460058060008761ffff1661ffff168152602001908152602001600020546129a89190615866565b6129b291906158d7565b90506000600860009054906101000a900473ffffffffffffffffffffffffffffffffffffffff1673ffffffffffffffffffffffffffffffffffffffff166323b872dd33600760009054906101000a900473ffffffffffffffffffffffffffffffffffffffff16856040518463ffffffff1660e01b8152600401612a37939291906154c4565b6020604051808303816000875af1158015612a56573d6000803e3d6000fd5b505050506040513d601f19601f82011682018060405250810190612a7a91906151bf565b90508015612cdf577f62c69cc67fa424b6afadb7f44dcf84a9638c58537817264b4f6a3953e5334d2833600760009054906101000a900473ffffffffffffffffffffffffffffffffffffffff1684604051612ad793929190615a33565b60405180910390a1600383602001906005811115612af857612af7614738565b5b90816005811115612b0c57612b0b614738565b5b8152505083836080019073ffffffffffffffffffffffffffffffffffffffff16908173ffffffffffffffffffffffffffffffffffffffff1681525050612b50612d06565b8360a001818152505082600a8661ffff166127108110612b7357612b72614857565b5b600502016000820151816000019081612b8c9190614b1a565b5060208201518160010160006101000a81548160ff02191690836005811115612bb857612bb7614738565b5b021790555060408201518160010160016101000a81548173ffffffffffffffffffffffffffffffffffffffff021916908373ffffffffffffffffffffffffffffffffffffffff16021790555060608201518160020160006101000a81548173ffffffffffffffffffffffffffffffffffffffff021916908373ffffffffffffffffffffffffffffffffffffffff16021790555060808201518160030160006101000a81548173ffffffffffffffffffffffffffffffffffffffff021916908373ffffffffffffffffffffffffffffffffffffffff16021790555060a082015181600401559050507f8e9d35c7701c4050e605a6769e63b07453e420d100ecd7af2a63702692b2eb0685338560400151604051612cd693929190615ac9565b60405180910390a15b5050505050565b60026020528060005260406000206000915054906101000a900460ff1681565b600042905090565b600060011515600160008473ffffffffffffffffffffffffffffffffffffffff1673ffffffffffffffffffffffffffffffffffffffff16815260200190815260200160002060009054906101000a900460ff16151503612d7b57606467ffffffffffffffff169050612de3565b60011515600260008473ffffffffffffffffffffffffffffffffffffffff1673ffffffffffffffffffffffffffffffffffffffff16815260200190815260200160002060009054906101000a900460ff16151503612de257603267ffffffffffffffff1690505b5b600360008373ffffffffffffffffffffffffffffffffffffffff1673ffffffffffffffffffffffffffffffffffffffff16815260200190815260200160002060009054906101000a900460ff1615612ef25760016000808473ffffffffffffffffffffffffffffffffffffffff1673ffffffffffffffffffffffffffffffffffffffff16815260200190815260200160002060006101000a81548160ff021916908315150217905550612eaa6301e13380612e9c612d06565b61410c90919063ffffffff16565b600460008473ffffffffffffffffffffffffffffffffffffffff1673ffffffffffffffffffffffffffffffffffffffff1681526020019081526020016000208190555061325d565b612efa612d06565b600460008473ffffffffffffffffffffffffffffffffffffffff1673ffffffffffffffffffffffffffffffffffffffff1681526020019081526020016000205411612f7a576040517f08c379a0000000000000000000000000000000000000000000000000000000008152600401612f7190615438565b60405180910390fd5b80600860009054906101000a900473ffffffffffffffffffffffffffffffffffffffff1673ffffffffffffffffffffffffffffffffffffffff166370a08231846040518263ffffffff1660e01b8152600401612fd6919061506d565b602060405180830381865afa158015612ff3573d6000803e3d6000fd5b505050506040513d601f19601f82011682018060405250810190613017919061509d565b11613057576040517f08c379a000000000000000000000000000000000000000000000000000000000815260040161304e906154a4565b60405180910390fd5b600860009054906101000a900473ffffffffffffffffffffffffffffffffffffffff1673ffffffffffffffffffffffffffffffffffffffff166323b872dd83600760009054906101000a900473ffffffffffffffffffffffffffffffffffffffff16846040518463ffffffff1660e01b81526004016130d8939291906154c4565b6020604051808303816000875af11580156130f7573d6000803e3d6000fd5b505050506040513d601f19601f8201168201806040525081019061311b91906151bf565b6000808473ffffffffffffffffffffffffffffffffffffffff1673ffffffffffffffffffffffffffffffffffffffff16815260200190815260200160002060006101000a81548160ff0219169083151502179055506000808373ffffffffffffffffffffffffffffffffffffffff1673ffffffffffffffffffffffffffffffffffffffff16815260200190815260200160002060009054906101000a900460ff166131fb576040517f08c379a00000000000000000000000000000000000000000000000000000000081526004016131f290615547565b60405180910390fd5b6132196301e1338061320b612d06565b61410c90919063ffffffff16565b600460008473ffffffffffffffffffffffffffffffffffffffff1673ffffffffffffffffffffffffffffffffffffffff168152602001908152602001600020819055505b5050565b60011515600260003373ffffffffffffffffffffffffffffffffffffffff1673ffffffffffffffffffffffffffffffffffffffff16815260200190815260200160002060009054906101000a900460ff161515146132f4576040517f08c379a00000000000000000000000000000000000000000000000000000000081526004016132eb90614d03565b60405180910390fd5b6127108161ffff16111561333d576040517f08c379a000000000000000000000000000000000000000000000000000000000815260040161333490614d6f565b60405180910390fd5b6000600a8261ffff16612710811061335857613357614857565b5b600502016040518060c0016040529081600082018054613377906148b5565b80601f01602080910402602001604051908101604052809291908181526020018280546133a3906148b5565b80156133f05780601f106133c5576101008083540402835291602001916133f0565b820191906000526020600020905b8154815290600101906020018083116133d357829003601f168201915b505050505081526020016001820160009054906101000a900460ff16600581111561341e5761341d614738565b5b60058111156134305761342f614738565b5b81526020016001820160019054906101000a900473ffffffffffffffffffffffffffffffffffffffff1673ffffffffffffffffffffffffffffffffffffffff1673ffffffffffffffffffffffffffffffffffffffff1681526020016002820160009054906101000a900473ffffffffffffffffffffffffffffffffffffffff1673ffffffffffffffffffffffffffffffffffffffff1673ffffffffffffffffffffffffffffffffffffffff1681526020016003820160009054906101000a900473ffffffffffffffffffffffffffffffffffffffff1673ffffffffffffffffffffffffffffffffffffffff1673ffffffffffffffffffffffffffffffffffffffff16815260200160048201548152505090503373ffffffffffffffffffffffffffffffffffffffff16816080015173ffffffffffffffffffffffffffffffffffffffff16146135b4576040517f08c379a00000000000000000000000000000000000000000000000000000000081526004016135ab90615b85565b60405180910390fd5b600360058111156135c8576135c7614738565b5b816020015160058111156135df576135de614738565b5b1461361f576040517f08c379a000000000000000000000000000000000000000000000000000000000815260040161361690615c17565b60405180910390fd5b61363061362a612d06565b83610628565b5050565b600a81612710811061364557600080fd5b6005020160009150905080600001805461365e906148b5565b80601f016020809104026020016040519081016040528092919081815260200182805461368a906148b5565b80156136d75780601f106136ac576101008083540402835291602001916136d7565b820191906000526020600020905b8154815290600101906020018083116136ba57829003601f168201915b5050505050908060010160009054906101000a900460ff16908060010160019054906101000a900473ffffffffffffffffffffffffffffffffffffffff16908060020160009054906101000a900473ffffffffffffffffffffffffffffffffffffffff16908060030160009054906101000a900473ffffffffffffffffffffffffffffffffffffffff16908060040154905086565b60036020528060005260406000206000915054906101000a900460ff1681565b600660009054906101000a900473ffffffffffffffffffffffffffffffffffffffff1673ffffffffffffffffffffffffffffffffffffffff163373ffffffffffffffffffffffffffffffffffffffff161461381c576040517f08c379a000000000000000000000000000000000000000000000000000000000815260040161381390615c83565b60405180910390fd5b8047101561385f576040517f08c379a000000000000000000000000000000000000000000000000000000000815260040161385690615cef565b60405180910390fd5b61c38c60009054906101000a900460ff1661387957600080fd5b600061c38c60006101000a81548160ff021916908315150217905550600660009054906101000a900473ffffffffffffffffffffffffffffffffffffffff1673ffffffffffffffffffffffffffffffffffffffff166108fc829081150290604051600060405180830381858888f193505050501580156138fd573d6000803e3d6000fd5b50600161c38c60006101000a81548160ff02191690831515021790555050565b60006040518060c001604052806040518060400160405280600681526020017f6974656d2031000000000000000000000000000000000000000000000000000081525081526020016000600581111561397957613978614738565b5b81526020018273ffffffffffffffffffffffffffffffffffffffff1681526020018473ffffffffffffffffffffffffffffffffffffffff1681526020018273ffffffffffffffffffffffffffffffffffffffff1681526020016000815250600a600061271081106139ed576139ec614857565b5b600502016000820151816000019081613a069190614b1a565b5060208201518160010160006101000a81548160ff02191690836005811115613a3257613a31614738565b5b021790555060408201518160010160016101000a81548173ffffffffffffffffffffffffffffffffffffffff021916908373ffffffffffffffffffffffffffffffffffffffff16021790555060608201518160020160006101000a81548173ffffffffffffffffffffffffffffffffffffffff021916908373ffffffffffffffffffffffffffffffffffffffff16021790555060808201518160030160006101000a81548173ffffffffffffffffffffffffffffffffffffffff021916908373ffffffffffffffffffffffffffffffffffffffff16021790555060a082015181600401559050506040518060c001604052806040518060400160405280600681526020017f6974656d20320000000000000000000000000000000000000000000000000000815250815260200160006005811115613b7357613b72614738565b5b81526020018273ffffffffffffffffffffffffffffffffffffffff1681526020018473ffffffffffffffffffffffffffffffffffffffff1681526020018273ffffffffffffffffffffffffffffffffffffffff1681526020016000815250600a60016127108110613be757613be6614857565b5b600502016000820151816000019081613c009190614b1a565b5060208201518160010160006101000a81548160ff02191690836005811115613c2c57613c2b614738565b5b021790555060408201518160010160016101000a81548173ffffffffffffffffffffffffffffffffffffffff021916908373ffffffffffffffffffffffffffffffffffffffff16021790555060608201518160020160006101000a81548173ffffffffffffffffffffffffffffffffffffffff021916908373ffffffffffffffffffffffffffffffffffffffff16021790555060808201518160030160006101000a81548173ffffffffffffffffffffffffffffffffffffffff021916908373ffffffffffffffffffffffffffffffffffffffff16021790555060a082015181600401559050506040518060c001604052806040518060400160405280600681526020017f6974656d20350000000000000000000000000000000000000000000000000000815250815260200160006005811115613d6d57613d6c614738565b5b81526020018273ffffffffffffffffffffffffffffffffffffffff1681526020018373ffffffffffffffffffffffffffffffffffffffff1681526020018273ffffffffffffffffffffffffffffffffffffffff1681526020016000815250600a60026127108110613de157613de0614857565b5b600502016000820151816000019081613dfa9190614b1a565b5060208201518160010160006101000a81548160ff02191690836005811115613e2657613e25614738565b5b021790555060408201518160010160016101000a81548173ffffffffffffffffffffffffffffffffffffffff021916908373ffffffffffffffffffffffffffffffffffffffff16021790555060608201518160020160006101000a81548173ffffffffffffffffffffffffffffffffffffffff021916908373ffffffffffffffffffffffffffffffffffffffff16021790555060808201518160030160006101000a81548173ffffffffffffffffffffffffffffffffffffffff021916908373ffffffffffffffffffffffffffffffffffffffff16021790555060a082015181600401559050506040518060c001604052806040518060400160405280600681526020017f6974656d20360000000000000000000000000000000000000000000000000000815250815260200160006005811115613f6757613f66614738565b5b81526020018273ffffffffffffffffffffffffffffffffffffffff1681526020018373ffffffffffffffffffffffffffffffffffffffff1681526020018273ffffffffffffffffffffffffffffffffffffffff1681526020016000815250600a60036127108110613fdb57613fda614857565b5b600502016000820151816000019081613ff49190614b1a565b5060208201518160010160006101000a81548160ff021916908360058111156140205761401f614738565b5b021790555060408201518160010160016101000a81548173ffffffffffffffffffffffffffffffffffffffff021916908373ffffffffffffffffffffffffffffffffffffffff16021790555060608201518160020160006101000a81548173ffffffffffffffffffffffffffffffffffffffff021916908373ffffffffffffffffffffffffffffffffffffffff16021790555060808201518160030160006101000a81548173ffffffffffffffffffffffffffffffffffffffff021916908373ffffffffffffffffffffffffffffffffffffffff16021790555060a08201518160040155905050505050565b6000818361411a9190615d0f565b905092915050565b600073ffffffffffffffffffffffffffffffffffffffff82169050919050565b6000819050919050565b600061416761416261415d84614122565b614142565b614122565b9050919050565b60006141798261414c565b9050919050565b600061418b8261416e565b9050919050565b61419b81614180565b82525050565b60006141ac82614122565b9050919050565b6141bc816141a1565b82525050565b6000819050919050565b6141d5816141c2565b82525050565b600082825260208201905092915050565b7f7263000000000000000000000000000000000000000000000000000000000000600082015250565b60006142226002836141db565b915061422d826141ec565b602082019050919050565b600060808201905061424d6000830186614192565b61425a60208301856141b3565b61426760408301846141cc565b818103606083015261427881614215565b9050949350505050565b7f6662000000000000000000000000000000000000000000000000000000000000600082015250565b60006142b86002836141db565b91506142c382614282565b602082019050919050565b60006080820190506142e36000830186614192565b6142f060208301856141b3565b6142fd60408301846141cc565b818103606083015261430e816142ab565b9050949350505050565b600080fd5b600061ffff82169050919050565b6143348161431d565b811461433f57600080fd5b50565b6000813590506143518161432b565b92915050565b60006020828403121561436d5761436c614318565b5b600061437b84828501614342565b91505092915050565b600060208201905061439960008301846141cc565b92915050565b6143a8816141a1565b81146143b357600080fd5b50565b6000813590506143c58161439f565b92915050565b6000602082840312156143e1576143e0614318565b5b60006143ef848285016143b6565b91505092915050565b60008115159050919050565b61440d816143f8565b82525050565b60006020820190506144286000830184614404565b92915050565b614437816141c2565b811461444257600080fd5b50565b6000813590506144548161442e565b92915050565b6000806040838503121561447157614470614318565b5b600061447f85828601614445565b925050602061449085828601614342565b9150509250929050565b600080604083850312156144b1576144b0614318565b5b60006144bf85828601614342565b92505060206144d085828601614445565b9150509250929050565b600060ff82169050919050565b6144f0816144da565b81146144fb57600080fd5b50565b60008135905061450d816144e7565b92915050565b60006020828403121561452957614528614318565b5b6000614537848285016144fe565b91505092915050565b600063ffffffff82169050919050565b61455981614540565b811461456457600080fd5b50565b60008135905061457681614550565b92915050565b60006020828403121561459257614591614318565b5b60006145a084828501614567565b91505092915050565b600080600080608085870312156145c3576145c2614318565b5b60006145d1878288016143b6565b94505060206145e287828801614342565b93505060406145f387828801614445565b925050606061460487828801614445565b91505092959194509250565b600061461b82614122565b9050919050565b61462b81614610565b82525050565b60006020820190506146466000830184614622565b92915050565b6000806040838503121561466357614662614318565b5b600061467185828601614342565b9250506020614682858286016143b6565b9150509250929050565b6000602082840312156146a2576146a1614318565b5b60006146b084828501614445565b91505092915050565b600081519050919050565b60005b838110156146e25780820151818401526020810190506146c7565b60008484015250505050565b6000601f19601f8301169050919050565b600061470a826146b9565b61471481856141db565b93506147248185602086016146c4565b61472d816146ee565b840191505092915050565b7f4e487b7100000000000000000000000000000000000000000000000000000000600052602160045260246000fd5b6006811061477857614777614738565b5b50565b600081905061478982614767565b919050565b60006147998261477b565b9050919050565b6147a98161478e565b82525050565b600060c08201905081810360008301526147c981896146ff565b90506147d860208301886147a0565b6147e560408301876141b3565b6147f260608301866141b3565b6147ff60808301856141b3565b61480c60a08301846141cc565b979650505050505050565b6000806040838503121561482e5761482d614318565b5b600061483c858286016143b6565b925050602061484d858286016143b6565b9150509250929050565b7f4e487b7100000000000000000000000000000000000000000000000000000000600052603260045260246000fd5b7f4e487b7100000000000000000000000000000000000000000000000000000000600052602260045260246000fd5b600060028204905060018216806148cd57607f821691505b6020821081036148e0576148df614886565b5b50919050565b7f4e487b7100000000000000000000000000000000000000000000000000000000600052601160045260246000fd5b6000614920826141c2565b915061492b836141c2565b9250828203905081811115614943576149426148e6565b5b92915050565b7f4e487b7100000000000000000000000000000000000000000000000000000000600052604160045260246000fd5b60008190508160005260206000209050919050565b60006020601f8301049050919050565b600082821b905092915050565b6000600883026149da7fffffffffffffffffffffffffffffffffffffffffffffffffffffffffffffffff8261499d565b6149e4868361499d565b95508019841693508086168417925050509392505050565b6000614a17614a12614a0d846141c2565b614142565b6141c2565b9050919050565b6000819050919050565b614a31836149fc565b614a45614a3d82614a1e565b8484546149aa565b825550505050565b600090565b614a5a614a4d565b614a65818484614a28565b505050565b5b81811015614a8957614a7e600082614a52565b600181019050614a6b565b5050565b601f821115614ace57614a9f81614978565b614aa88461498d565b81016020851015614ab7578190505b614acb614ac38561498d565b830182614a6a565b50505b505050565b600082821c905092915050565b6000614af160001984600802614ad3565b1980831691505092915050565b6000614b0a8383614ae0565b9150826002028217905092915050565b614b23826146b9565b67ffffffffffffffff811115614b3c57614b3b614949565b5b614b4682546148b5565b614b51828285614a8d565b600060209050601f831160018114614b845760008415614b72578287015190505b614b7c8582614afe565b865550614be4565b601f198416614b9286614978565b60005b82811015614bba57848901518255600182019150602085019450602081019050614b95565b86831015614bd75784890151614bd3601f891682614ae0565b8355505b6001600288020188555050505b505050505050565b614bf58161431d565b82525050565b7f4f726465722044656c6976657265640000000000000000000000000000000000600082015250565b6000614c31600f836141db565b9150614c3c82614bfb565b602082019050919050565b6000608082019050614c5c6000830186614bec565b614c6960208301856141b3565b614c7660408301846141b3565b8181036060830152614c8781614c24565b9050949350505050565b7f4f6e6c79206d65726368616e74732063616e20706572666f726d20746869732060008201527f616374696f6e0000000000000000000000000000000000000000000000000000602082015250565b6000614ced6026836141db565b9150614cf882614c91565b604082019050919050565b60006020820190508181036000830152614d1c81614ce0565b9050919050565b7f4974656d496420697320696e636f727265637400000000000000000000000000600082015250565b6000614d596013836141db565b9150614d6482614d23565b602082019050919050565b60006020820190508181036000830152614d8881614d4c565b9050919050565b7f4f72646572732063616e206f6e6c79206265206163636570746564206279206460008201527f657369676e61746564206d65726368616e740000000000000000000000000000602082015250565b6000614deb6032836141db565b9150614df682614d8f565b604082019050919050565b60006020820190508181036000830152614e1a81614dde565b9050919050565b7f4f72646572205265636569766564000000000000000000000000000000000000600082015250565b6000614e57600e836141db565b9150614e6282614e21565b602082019050919050565b6000608082019050614e826000830186614bec565b614e8f60208301856141b3565b614e9c60408301846141b3565b8181036060830152614ead81614e4a565b9050949350505050565b7f4f6e6c7920637573746f6d6572732063616e20706572666f726d20746869732060008201527f616374696f6e0000000000000000000000000000000000000000000000000000602082015250565b6000614f136026836141db565b9150614f1e82614eb7565b604082019050919050565b60006020820190508181036000830152614f4281614f06565b9050919050565b7f57616c6c6574206e6f74207265676973746572656420706c656173652072656760008201527f69737465722061732061206d656d626572000000000000000000000000000000602082015250565b6000614fa56031836141db565b9150614fb082614f49565b604082019050919050565b60006020820190508181036000830152614fd481614f98565b9050919050565b7f4974656d206973206e6f7420617661696c61626c6520666f722064656c69766560008201527f7279000000000000000000000000000000000000000000000000000000000000602082015250565b60006150376022836141db565b915061504282614fdb565b604082019050919050565b600060208201905081810360008301526150668161502a565b9050919050565b600060208201905061508260008301846141b3565b92915050565b6000815190506150978161442e565b92915050565b6000602082840312156150b3576150b2614318565b5b60006150c184828501615088565b91505092915050565b7f496e73756666696369656e742066756e647320746f206d616b6520746869732060008201527f7075726368617365000000000000000000000000000000000000000000000000602082015250565b60006151266028836141db565b9150615131826150ca565b604082019050919050565b6000602082019050818103600083015261515581615119565b9050919050565b600060608201905061517160008301866141b3565b61517e60208301856141b3565b61518b60408301846141cc565b949350505050565b61519c816143f8565b81146151a757600080fd5b50565b6000815190506151b981615193565b92915050565b6000602082840312156151d5576151d4614318565b5b60006151e3848285016151aa565b91505092915050565b7f4f7264657220506c616365640000000000000000000000000000000000000000600082015250565b6000615222600c836141db565b915061522d826151ec565b602082019050919050565b600060808201905061524d6000830186614bec565b61525a60208301856141b3565b61526760408301846141b3565b818103606083015261527881615215565b9050949350505050565b7f596f752061726520616c72656164792061206d656d6265722100000000000000600082015250565b60006152b86019836141db565b91506152c382615282565b602082019050919050565b600060208201905081810360008301526152e7816152ab565b9050919050565b7f5468657265206973206e6f20766163616e637920666f72206472697665727300600082015250565b6000615324601f836141db565b915061532f826152ee565b602082019050919050565b6000602082019050818103600083015261535381615317565b9050919050565b7f5075726368617365727320646f206e6f74206e65656420746f2070617920612060008201527f6d656d6265727368697020666565000000000000000000000000000000000000602082015250565b60006153b6602e836141db565b91506153c18261535a565b604082019050919050565b600060208201905081810360008301526153e5816153a9565b9050919050565b7f4d656d62657273686970206e6f74206578706972656400000000000000000000600082015250565b60006154226016836141db565b915061542d826153ec565b602082019050919050565b6000602082019050818103600083015261545181615415565b9050919050565b7f496e73756666696369656e742066756e64730000000000000000000000000000600082015250565b600061548e6012836141db565b915061549982615458565b602082019050919050565b600060208201905081810360008301526154bd81615481565b9050919050565b60006060820190506154d960008301866141b3565b6154e66020830185614192565b6154f360408301846141cc565b949350505050565b7f4d656d626572736869703a205472616e73666572726564206661696c65640000600082015250565b6000615531601e836141db565b915061553c826154fb565b602082019050919050565b6000602082019050818103600083015261556081615524565b9050919050565b7f5175616e746974792065786365656473206d6178696d756d2076616c75653a2060008201527f342c3030302c3030302c30303000000000000000000000000000000000000000602082015250565b60006155c3602d836141db565b91506155ce82615567565b604082019050919050565b600060208201905081810360008301526155f2816155b6565b9050919050565b60006fffffffffffffffffffffffffffffffff82169050919050565b6000615620826155f9565b915061562b836155f9565b9250828202615639816155f9565b915080821461564b5761564a6148e6565b5b5092915050565b7f496e737566666963656e742066756e6473000000000000000000000000000000600082015250565b60006156886011836141db565b915061569382615652565b602082019050919050565b600060208201905081810360008301526156b78161567b565b9050919050565b7f50726f7669646520656e6f75676820657468657220746f20636f6d706c65746560008201527f20746865207472616e73616374696f6e2e20436865636b20746f6b656e20707260208201527f6963650000000000000000000000000000000000000000000000000000000000604082015250565b60006157406043836141db565b915061574b826156be565b606082019050919050565b6000602082019050818103600083015261576f81615733565b9050919050565b600061579161578c61578784614540565b614142565b6141c2565b9050919050565b6157a181615776565b82525050565b60006040820190506157bc60008301856141b3565b6157c96020830184615798565b9392505050565b7f627579546f6b656e000000000000000000000000000000000000000000000000600082015250565b60006158066008836141db565b9150615811826157d0565b602082019050919050565b60006080820190506158316000830186614192565b61583e60208301856141b3565b61584b60408301846141cc565b818103606083015261585c816157f9565b9050949350505050565b6000615871826141c2565b915061587c836141c2565b925082820261588a816141c2565b915082820484148315176158a1576158a06148e6565b5b5092915050565b7f4e487b7100000000000000000000000000000000000000000000000000000000600052601260045260246000fd5b60006158e2826141c2565b91506158ed836141c2565b9250826158fd576158fc6158a8565b5b828204905092915050565b7f4974656d206d7573742068617665206265656e2064656c697665726564000000600082015250565b600061593e601d836141db565b915061594982615908565b602082019050919050565b6000602082019050818103600083015261596d81615931565b9050919050565b600060408201905061598960008301856141b3565b61599660208301846141cc565b9392505050565b7f70617944656c697665727928444c562900000000000000000000000000000000600082015250565b60006159d36010836141db565b91506159de8261599d565b602082019050919050565b60006080820190506159fe6000830186614192565b615a0b60208301856141b3565b615a1860408301846141cc565b8181036060830152615a29816159c6565b9050949350505050565b6000608082019050615a4860008301866141b3565b615a556020830185614192565b615a6260408301846141cc565b8181036060830152615a73816159c6565b9050949350505050565b7f4f7264657220696e205472616e73697400000000000000000000000000000000600082015250565b6000615ab36010836141db565b9150615abe82615a7d565b602082019050919050565b6000608082019050615ade6000830186614bec565b615aeb60208301856141b3565b615af860408301846141b3565b8181036060830152615b0981615aa6565b9050949350505050565b7f44656c697665726965732063616e206f6e6c7920626520636f6e6669726d656460008201527f2062792064657369676e61746564206472697665720000000000000000000000602082015250565b6000615b6f6035836141db565b9150615b7a82615b13565b604082019050919050565b60006020820190508181036000830152615b9e81615b62565b9050919050565b7f4974656d206973206e6f74207265636f7264656420617320696e207472616e7360008201527f6974000000000000000000000000000000000000000000000000000000000000602082015250565b6000615c016022836141db565b9150615c0c82615ba5565b604082019050919050565b60006020820190508181036000830152615c3081615bf4565b9050919050565b7f496e73756666696369656e742070726976696c65676573000000000000000000600082015250565b6000615c6d6017836141db565b9150615c7882615c37565b602082019050919050565b60006020820190508181036000830152615c9c81615c60565b9050919050565b7f696e73756666696369656e742066756e64730000000000000000000000000000600082015250565b6000615cd96012836141db565b9150615ce482615ca3565b602082019050919050565b60006020820190508181036000830152615d0881615ccc565b9050919050565b6000615d1a826141c2565b9150615d25836141c2565b9250828201905080821115615d3d57615d3c6148e6565b5b9291505056fea264697066735822122093146d94f8a64ce457743f51014f1271eb7cf3531907db473b6f8a19f12ee96064736f6c63430008120033",
  "immutableReferences": {},
  "source": "//SPDX-License-Identifier:MIT\npragma solidity ^0.8.0;\n\nimport \"./DlvToken.sol\";\nimport \"@openzeppelin/contracts/utils/math/SafeMath.sol\";\nimport \"@openzeppelin/contracts/utils/math/SafeCast.sol\";\n\n\n\ncontract DLV_Network{\n    using SafeMath for uint256;\n    mapping(address => bool) public membership;\n    mapping(address => bool) public isMerchant;\n    mapping(address => bool) public isDriver;\n    mapping(address=> bool) public isPurchaser;\n    mapping(address => uint) public membershipExpires;\n    mapping(uint16 => uint256) public item_prices;\n    uint64 constant  MEMBERSHIP_FEE_DRIVER =  50;\n    uint64 constant  MEMBERSHIP_FEE_MERCHANT =  100;\n    uint constant  YEAR = 31536000; //365 * 24 * 60 * 60;\n    uint constant  DELIVERY_DEADLINE= 86400; //1 day in seconds\n    address payable public  owner;\n    address payable contractAccount;\n    DLVToken token;\n    uint128 price_per_token = 20000000000 wei;\n    ItemForDelivery[10000] public items;\n    address[50] drivers;\n\n    \n    bool reentrancyGuard=true;\n    enum DeliveryStatus  { Available, OrderPlaced,OrderReceived,Dispatched, Delayed, Delivered } \n    struct ItemForDelivery{\n        string name;\n        DeliveryStatus status;\n        address recipient;\n        address merchant;\n        address driver;\n        uint256 dispatchTimestamp;\n\n    }\n    function init(address merchant1, address merchant2) public {\n        address _dummmyAddress;\n       \n        //instantiate products for delivery\n        items[0] = ItemForDelivery(\"item 1\",DeliveryStatus.Available,_dummmyAddress,merchant1,_dummmyAddress,0);\n        items[1] = ItemForDelivery(\"item 2\",DeliveryStatus.Available,_dummmyAddress,merchant1,_dummmyAddress,0);\n       items[2] = ItemForDelivery(\"item 5\",DeliveryStatus.Available,_dummmyAddress,merchant2,_dummmyAddress,0);\n        items[3] = ItemForDelivery(\"item 6\",DeliveryStatus.Available,_dummmyAddress,merchant2,_dummmyAddress,0);\n        \n    }\n\n    \n    event display(address _to, address _from, uint amount, string fn);\n    event deliveryUpdate(uint16 _item_id,address _merchant,address _purchaser, string _newStatus);\n    event driverUpdate(uint16 _item_id,address _merchant,address _driver,string _status);\n\n    modifier ownerOnly { require(msg.sender == owner, \"Insufficient privileges\"); _; }\n    modifier purchaserOnly { require(isPurchaser[msg.sender]== true, \"Only customers can perform this action\"); _;}\n    modifier merchantOnly { require(isMerchant[msg.sender]== true, \"Only merchants can perform this action\"); _;}\n    modifier driverOnly { require(isDriver[msg.sender]== true, \"Only merchants can perform this action\"); _;}\n    modifier contractOnly {require(msg.sender == contractAccount); _;}\n\n    constructor(DLVToken _token) payable  {\n        owner = payable(msg.sender);\n        contractAccount=payable(address(this));\n        token = _token;\n    }\n\n    fallback() external payable { emit display(contractAccount, msg.sender, msg.value, \"fb\");}\n    receive() external  payable { emit display(contractAccount, msg.sender, msg.value, \"rc\");}\n\n    function register(uint8 memberType) public {\n        address _newMemberAddress = msg.sender;\n        require(!membership[_newMemberAddress],\"You are already a member!\");\n        \n        membershipExpires[_newMemberAddress] = blockTimestamp().add(YEAR);\n        if (memberType==1) {\n            isMerchant[_newMemberAddress]= true;\n        } else if(memberType==2) {\n            require(drivers.length==50,\"There is no vacancy for drivers\");\n            isDriver[_newMemberAddress]= true;  \n        } else if (memberType==3){\n            isPurchaser[_newMemberAddress]= true;\n        }\n       payFees(_newMemberAddress);  \n    } \n\n    function blockTimestamp() public view returns(uint){\n        return block.timestamp;\n    }\n\n/*\n    sender transfers 1 ether (fee) to owner    \n*/\n    function payFees() public {\n        address _member = msg.sender;\n        require(!isPurchaser[_member],\"Purchasers do not need to pay a membership fee\");\n        //check msg.value == membership fee\n        uint MEMBERSHIP_FEE;\n        if (isMerchant[_member]== true) {\n            MEMBERSHIP_FEE = MEMBERSHIP_FEE_MERCHANT;\n        } else if (isDriver[_member]== true) {\n           MEMBERSHIP_FEE = MEMBERSHIP_FEE_DRIVER;\n        }\n\n        //check membership is invalid\n        require(membershipExpires[_member] > block.timestamp, \"Membership not expired\");\n        //check sufficient funds in account\n        require(token.balanceOf(_member) > MEMBERSHIP_FEE, \"Insufficient funds\");\n        //send the amount and update membership\n        membership[_member]= token.transferFrom(_member,contractAccount, MEMBERSHIP_FEE );\n        //check it has been paid\n        require(membership[_member], \"Membership: Transferred failed\");\n        //update new expiry time + 1 year\n        membershipExpires[_member] = blockTimestamp().add(YEAR);\n    }\n    function payFees(address _member) public {\n        //check msg.value == membership fee\n        uint MEMBERSHIP_FEE;\n        if (isMerchant[_member]== true) {\n            MEMBERSHIP_FEE = MEMBERSHIP_FEE_MERCHANT;\n        } else if (isDriver[_member]== true) {\n           MEMBERSHIP_FEE = MEMBERSHIP_FEE_DRIVER;\n        }\n        if(isPurchaser[_member]){\n             membership[_member]= true;\n             membershipExpires[_member] = blockTimestamp().add(YEAR);\n        }else{\n            //check membership is invalid\n            require(membershipExpires[_member] > blockTimestamp(), \"Membership not expired\");\n            //check sufficient funds in account\n            require(token.balanceOf(_member)> MEMBERSHIP_FEE, \"Insufficient funds\");\n            //send the amount and update membership\n            membership[_member]= token.transferFrom(_member,contractAccount, MEMBERSHIP_FEE);\n            //check it has been paid\n            require(membership[_member], \"Membership: Transferred failed\");\n            //update new expiry time + 1 year\n            membershipExpires[_member] = blockTimestamp().add(YEAR);\n        }\n    }\n\n\n    function collect(uint _amount) public  ownerOnly{\n        require(address(this).balance >= _amount,\"insufficient funds\");\n        require(reentrancyGuard);\n        reentrancyGuard=false;\n        owner.transfer(_amount);\n        reentrancyGuard=true;\n    }\n\n    \n\n    function buyToken(uint32 quantity) external payable{\n    \n        reentrancyGuard=false;\n        require(quantity <= type(uint32).max, \"Quantity exceeds maximum value: 4,000,000,000\");\n        address _member = msg.sender; \n        uint256 tranx_cost = quantity * price_per_token;\n        require(_member.balance > msg.value,\"Insufficent funds\" );\n        require(msg.value == tranx_cost, \"Provide enough ether to complete the transaction. Check token price\");\n        token.mint(_member,quantity);\n        emit display(contractAccount,_member,msg.value,\"buyToken\");\n    }\n    \n\n    function orderItem(uint16 itemId, uint256 price) public purchaserOnly{\n        require(itemId <= 10000, \"ItemId is incorrect\");\n        ItemForDelivery memory selectedItem = items[itemId];\n        address  _purchaser = msg.sender;\n        require(membership[msg.sender],\"Wallet not registered please register as a member\");\n        require(selectedItem.status == DeliveryStatus.Available, \"Item is not available for delivery\");\n        require(token.balanceOf(msg.sender) > price,\"Insufficient funds to make this purchase\");\n        item_prices[itemId]= price;\n        bool paid=token.transferFrom(_purchaser,selectedItem.merchant, price);\n        if(paid){\n            selectedItem.recipient = msg.sender;\n            selectedItem.status= DeliveryStatus.OrderPlaced;\n            items[itemId] = selectedItem;\n            emit deliveryUpdate(itemId,selectedItem.merchant,_purchaser,\"Order Placed\");\n        }\n        \n    }\n    function acceptOrder(uint16 itemId) public merchantOnly{\n        require(itemId <= 10000, \"ItemId is incorrect\");\n        ItemForDelivery memory selectedItem = items[itemId];\n        require(selectedItem.merchant== msg.sender,\"Orders can only be accepted by designated merchant\");\n        selectedItem.status = DeliveryStatus.OrderReceived;\n        items[itemId] =selectedItem;\n        emit deliveryUpdate(itemId,msg.sender,selectedItem.recipient,\"Order Received\");\n    }\n    function dispatchItem(uint16 itemId, address _driver) public  merchantOnly{\n        require(itemId <= 10000, \"ItemId is incorrect\");\n        ItemForDelivery memory selectedItem = items[itemId];\n        require(selectedItem.merchant== msg.sender,\"Orders can only be accepted by designated merchant\"); \n        require(selectedItem.status == DeliveryStatus.OrderReceived, \"Item is not available for delivery\");\n        uint256 delivery_fee = (item_prices[itemId]*5)/100;\n        bool paid = token.transferFrom(msg.sender,contractAccount, delivery_fee);\n        if(paid){\n            emit display(msg.sender,contractAccount,delivery_fee,\"payDelivery(DLV)\");\n            selectedItem.status = DeliveryStatus.Dispatched;\n            selectedItem.driver = _driver;\n            selectedItem.dispatchTimestamp = blockTimestamp();\n            items[itemId] = selectedItem;\n            emit deliveryUpdate(itemId,msg.sender,selectedItem.recipient,\"Order in Transit\");\n        }\n        \n    }\n    function reportDelivery(uint16 itemId) public  driverOnly{\n        require(itemId <= 10000, \"ItemId is incorrect\");\n        ItemForDelivery memory selectedItem = items[itemId]; \n        require(selectedItem.driver== msg.sender,\"Deliveries can only be confirmed by designated driver\"); \n        require(selectedItem.status == DeliveryStatus.Dispatched, \"Item is not recorded as in transit\");\n        \n        verifyDelivery(blockTimestamp(), itemId);\n        \n    }\n    function verifyDelivery(uint256 deliveryTimestamp, uint16 itemId) contractOnly public {\n       //assumption of location and actual delivery of item\n       ItemForDelivery memory selectedItem = items[itemId]; \n       uint256 deliveryTime = deliveryTimestamp - selectedItem.dispatchTimestamp;\n       payDriver(selectedItem.driver, itemId, deliveryTime, DELIVERY_DEADLINE);\n       selectedItem.status = DeliveryStatus.OrderReceived;\n       items[itemId]= selectedItem;\n       emit deliveryUpdate(itemId,selectedItem.merchant,selectedItem.recipient,\"Order Delivered\");\n    }\n    function payDriver(address _driverAddress, uint16 itemId, uint256 deliveryTime,uint DEADLINE) public  contractOnly returns(bool){\n         bool paid;\n         ItemForDelivery memory selectedItem = items[itemId]; \n         uint256 driver_stipend = (item_prices[itemId]*4)/100;\n         require(selectedItem.status == DeliveryStatus.OrderReceived, \"Item must have been delivered\");\n         if(deliveryTime <= DEADLINE){\n           if (paid) token.transfer(_driverAddress,driver_stipend);\n           emit display(contractAccount,_driverAddress,driver_stipend,\"payDelivery(DLV)\");\n         }else{\n           if (paid) token.transfer(_driverAddress,(driver_stipend*50)/100);\n         }\n         return paid;\n    }\n}\n\n",
  "sourcePath": "/home/ian/cw2/contracts/dlv_network_contract.sol",
  "compiler": {
    "name": "solc",
    "version": "0.8.18+commit.87f61d96.Emscripten.clang"
  },
  "schemaVersion": "3.4.12",
  "updatedAt": "2023-04-03T08:11:08.079Z",
  "networkType": "ethereum",
  "devdoc": {
    "kind": "dev",
    "methods": {},
    "version": 1
  },
  "userdoc": {
    "kind": "user",
    "methods": {},
    "version": 1
  }
}