{
  "contractName": "DLVToken",
  "abi": [
    {
      "inputs": [
        {
          "internalType": "string",
          "name": "name_",
          "type": "string"
        },
        {
          "internalType": "string",
          "name": "symbol_",
          "type": "string"
        },
        {
          "internalType": "address",
          "name": "initialAccount",
          "type": "address"
        },
        {
          "internalType": "uint256",
          "name": "initialBalance",
          "type": "uint256"
        }
      ],
      "stateMutability": "payable",
      "type": "constructor",
      "payable": true
    },
    {
      "anonymous": false,
      "inputs": [
        {
          "indexed": true,
          "internalType": "address",
          "name": "owner",
          "type": "address"
        },
        {
          "indexed": true,
          "internalType": "address",
          "name": "spender",
          "type": "address"
        },
        {
          "indexed": false,
          "internalType": "uint256",
          "name": "value",
          "type": "uint256"
        }
      ],
      "name": "Approval",
      "type": "event"
    },
    {
      "anonymous": false,
      "inputs": [
        {
          "indexed": false,
          "internalType": "address",
          "name": "from",
          "type": "address"
        },
        {
          "indexed": false,
          "internalType": "uint256",
          "name": "value",
          "type": "uint256"
        }
      ],
      "name": "Burn",
      "type": "event"
    },
    {
      "anonymous": false,
      "inputs": [
        {
          "indexed": false,
          "internalType": "address",
          "name": "account",
          "type": "address"
        }
      ],
      "name": "PausedEvt",
      "type": "event"
    },
    {
      "anonymous": false,
      "inputs": [
        {
          "indexed": true,
          "internalType": "address",
          "name": "from",
          "type": "address"
        },
        {
          "indexed": true,
          "internalType": "address",
          "name": "to",
          "type": "address"
        },
        {
          "indexed": false,
          "internalType": "uint256",
          "name": "value",
          "type": "uint256"
        }
      ],
      "name": "Transfer",
      "type": "event"
    },
    {
      "anonymous": false,
      "inputs": [
        {
          "indexed": false,
          "internalType": "address",
          "name": "account",
          "type": "address"
        }
      ],
      "name": "UnpausedEvt",
      "type": "event"
    },
    {
      "stateMutability": "payable",
      "type": "fallback",
      "payable": true
    },
    {
      "inputs": [],
      "name": "DENY_LIST_CODE",
      "outputs": [
        {
          "internalType": "uint8",
          "name": "",
          "type": "uint8"
        }
      ],
      "stateMutability": "view",
      "type": "function",
      "constant": true
    },
    {
      "inputs": [],
      "name": "DENY_LIST_ERROR",
      "outputs": [
        {
          "internalType": "string",
          "name": "",
          "type": "string"
        }
      ],
      "stateMutability": "view",
      "type": "function",
      "constant": true
    },
    {
      "inputs": [],
      "name": "SUCCESS_CODE",
      "outputs": [
        {
          "internalType": "uint8",
          "name": "",
          "type": "uint8"
        }
      ],
      "stateMutability": "view",
      "type": "function",
      "constant": true
    },
    {
      "inputs": [],
      "name": "SUCCESS_MESSAGE",
      "outputs": [
        {
          "internalType": "string",
          "name": "",
          "type": "string"
        }
      ],
      "stateMutability": "view",
      "type": "function",
      "constant": true
    },
    {
      "inputs": [
        {
          "internalType": "address",
          "name": "account",
          "type": "address"
        }
      ],
      "name": "addAdmin",
      "outputs": [],
      "stateMutability": "nonpayable",
      "type": "function"
    },
    {
      "inputs": [
        {
          "internalType": "address",
          "name": "account",
          "type": "address"
        }
      ],
      "name": "addAllowList",
      "outputs": [],
      "stateMutability": "nonpayable",
      "type": "function"
    },
    {
      "inputs": [
        {
          "internalType": "address",
          "name": "account",
          "type": "address"
        }
      ],
      "name": "isAdmin",
      "outputs": [
        {
          "internalType": "bool",
          "name": "",
          "type": "bool"
        }
      ],
      "stateMutability": "view",
      "type": "function",
      "constant": true
    },
    {
      "inputs": [
        {
          "internalType": "address",
          "name": "account",
          "type": "address"
        }
      ],
      "name": "isAllowList",
      "outputs": [
        {
          "internalType": "bool",
          "name": "",
          "type": "bool"
        }
      ],
      "stateMutability": "view",
      "type": "function",
      "constant": true
    },
    {
      "inputs": [],
      "name": "owner",
      "outputs": [
        {
          "internalType": "address",
          "name": "",
          "type": "address"
        }
      ],
      "stateMutability": "view",
      "type": "function",
      "constant": true
    },
    {
      "inputs": [],
      "name": "pause",
      "outputs": [],
      "stateMutability": "nonpayable",
      "type": "function"
    },
    {
      "inputs": [
        {
          "internalType": "address",
          "name": "account",
          "type": "address"
        }
      ],
      "name": "removeAdmin",
      "outputs": [],
      "stateMutability": "nonpayable",
      "type": "function"
    },
    {
      "inputs": [
        {
          "internalType": "address",
          "name": "account",
          "type": "address"
        }
      ],
      "name": "removeAllowListed",
      "outputs": [],
      "stateMutability": "nonpayable",
      "type": "function"
    },
    {
      "inputs": [],
      "name": "tokenSummary",
      "outputs": [
        {
          "internalType": "address",
          "name": "initialAccount",
          "type": "address"
        },
        {
          "internalType": "string",
          "name": "name",
          "type": "string"
        },
        {
          "internalType": "string",
          "name": "symbol",
          "type": "string"
        }
      ],
      "stateMutability": "view",
      "type": "function",
      "constant": true
    },
    {
      "inputs": [
        {
          "internalType": "address",
          "name": "newOwner",
          "type": "address"
        }
      ],
      "name": "transferOwnership",
      "outputs": [],
      "stateMutability": "nonpayable",
      "type": "function"
    },
    {
      "inputs": [],
      "name": "unpause",
      "outputs": [],
      "stateMutability": "nonpayable",
      "type": "function"
    },
    {
      "inputs": [
        {
          "internalType": "address",
          "name": "to",
          "type": "address"
        }
      ],
      "name": "validateTransferRestricted",
      "outputs": [
        {
          "internalType": "uint8",
          "name": "restrictionCode",
          "type": "uint8"
        }
      ],
      "stateMutability": "view",
      "type": "function",
      "constant": true
    },
    {
      "inputs": [
        {
          "internalType": "uint8",
          "name": "restrictionCode",
          "type": "uint8"
        }
      ],
      "name": "messageHandler",
      "outputs": [
        {
          "internalType": "string",
          "name": "message",
          "type": "string"
        }
      ],
      "stateMutability": "pure",
      "type": "function",
      "constant": true
    },
    {
      "inputs": [],
      "name": "totalSupply",
      "outputs": [
        {
          "internalType": "uint256",
          "name": "",
          "type": "uint256"
        }
      ],
      "stateMutability": "view",
      "type": "function",
      "constant": true
    },
    {
      "inputs": [
        {
          "internalType": "address",
          "name": "account",
          "type": "address"
        }
      ],
      "name": "balanceOf",
      "outputs": [
        {
          "internalType": "uint256",
          "name": "",
          "type": "uint256"
        }
      ],
      "stateMutability": "view",
      "type": "function",
      "constant": true
    },
    {
      "inputs": [
        {
          "internalType": "address",
          "name": "to",
          "type": "address"
        },
        {
          "internalType": "uint256",
          "name": "value",
          "type": "uint256"
        }
      ],
      "name": "transfer",
      "outputs": [
        {
          "internalType": "bool",
          "name": "success",
          "type": "bool"
        }
      ],
      "stateMutability": "nonpayable",
      "type": "function"
    },
    {
      "inputs": [
        {
          "internalType": "address",
          "name": "from",
          "type": "address"
        },
        {
          "internalType": "address",
          "name": "spender",
          "type": "address"
        },
        {
          "internalType": "uint256",
          "name": "value",
          "type": "uint256"
        }
      ],
      "name": "transferFrom",
      "outputs": [
        {
          "internalType": "bool",
          "name": "",
          "type": "bool"
        }
      ],
      "stateMutability": "nonpayable",
      "type": "function"
    },
    {
      "inputs": [
        {
          "internalType": "address",
          "name": "owner",
          "type": "address"
        },
        {
          "internalType": "address",
          "name": "spender",
          "type": "address"
        }
      ],
      "name": "allowance",
      "outputs": [
        {
          "internalType": "uint256",
          "name": "",
          "type": "uint256"
        }
      ],
      "stateMutability": "view",
      "type": "function",
      "constant": true
    },
    {
      "inputs": [
        {
          "internalType": "address",
          "name": "spender",
          "type": "address"
        },
        {
          "internalType": "uint256",
          "name": "value",
          "type": "uint256"
        }
      ],
      "name": "approve",
      "outputs": [
        {
          "internalType": "bool",
          "name": "",
          "type": "bool"
        }
      ],
      "stateMutability": "nonpayable",
      "type": "function"
    },
    {
      "inputs": [
        {
          "internalType": "uint256",
          "name": "value",
          "type": "uint256"
        }
      ],
      "name": "burn",
      "outputs": [
        {
          "internalType": "bool",
          "name": "success",
          "type": "bool"
        }
      ],
      "stateMutability": "nonpayable",
      "type": "function"
    },
    {
      "inputs": [
        {
          "internalType": "address",
          "name": "account",
          "type": "address"
        },
        {
          "internalType": "uint256",
          "name": "value",
          "type": "uint256"
        }
      ],
      "name": "mint",
      "outputs": [
        {
          "internalType": "bool",
          "name": "",
          "type": "bool"
        }
      ],
      "stateMutability": "nonpayable",
      "type": "function"
    }
  ],
  "bytecode": "0x608060405260405162002ebf38038062002ebf83398181016040528101906200002991906200056c565b336000806101000a81548173ffffffffffffffffffffffffffffffffffffffff021916908373ffffffffffffffffffffffffffffffffffffffff16021790555060018060003373ffffffffffffffffffffffffffffffffffffffff1673ffffffffffffffffffffffffffffffffffffffff16815260200190815260200160002060006101000a81548160ff0219169083151502179055506000600360006101000a81548160ff021916908315150217905550620000ec82620001ee60201b60201c565b80600760008473ffffffffffffffffffffffffffffffffffffffff1673ffffffffffffffffffffffffffffffffffffffff168152602001908152602001600020819055508060098190555060405180606001604052808373ffffffffffffffffffffffffffffffffffffffff16815260200185815260200184815250600460008201518160000160006101000a81548173ffffffffffffffffffffffffffffffffffffffff021916908373ffffffffffffffffffffffffffffffffffffffff1602179055506020820151816001019081620001c891906200085d565b506040820151816002019081620001e091906200085d565b509050505050505062000944565b60011515600160003373ffffffffffffffffffffffffffffffffffffffff1673ffffffffffffffffffffffffffffffffffffffff16815260200190815260200160002060009054906101000a900460ff161515146200024c57600080fd5b600073ffffffffffffffffffffffffffffffffffffffff168173ffffffffffffffffffffffffffffffffffffffff1614158015620002d45750600260008273ffffffffffffffffffffffffffffffffffffffff1673ffffffffffffffffffffffffffffffffffffffff16815260200190815260200160002060009054906101000a900460ff16155b620002de57600080fd5b6001600260008373ffffffffffffffffffffffffffffffffffffffff1673ffffffffffffffffffffffffffffffffffffffff16815260200190815260200160002060006101000a81548160ff02191690831515021790555050565b6000604051905090565b600080fd5b600080fd5b600080fd5b600080fd5b6000601f19601f8301169050919050565b7f4e487b7100000000000000000000000000000000000000000000000000000000600052604160045260246000fd5b620003a28262000357565b810181811067ffffffffffffffff82111715620003c457620003c362000368565b5b80604052505050565b6000620003d962000339565b9050620003e7828262000397565b919050565b600067ffffffffffffffff8211156200040a576200040962000368565b5b620004158262000357565b9050602081019050919050565b60005b838110156200044257808201518184015260208101905062000425565b60008484015250505050565b6000620004656200045f84620003ec565b620003cd565b90508281526020810184848401111562000484576200048362000352565b5b6200049184828562000422565b509392505050565b600082601f830112620004b157620004b06200034d565b5b8151620004c38482602086016200044e565b91505092915050565b600073ffffffffffffffffffffffffffffffffffffffff82169050919050565b6000620004f982620004cc565b9050919050565b6200050b81620004ec565b81146200051757600080fd5b50565b6000815190506200052b8162000500565b92915050565b6000819050919050565b620005468162000531565b81146200055257600080fd5b50565b60008151905062000566816200053b565b92915050565b6000806000806080858703121562000589576200058862000343565b5b600085015167ffffffffffffffff811115620005aa57620005a962000348565b5b620005b88782880162000499565b945050602085015167ffffffffffffffff811115620005dc57620005db62000348565b5b620005ea8782880162000499565b9350506040620005fd878288016200051a565b9250506060620006108782880162000555565b91505092959194509250565b600081519050919050565b7f4e487b7100000000000000000000000000000000000000000000000000000000600052602260045260246000fd5b600060028204905060018216806200066f57607f821691505b60208210810362000685576200068462000627565b5b50919050565b60008190508160005260206000209050919050565b60006020601f8301049050919050565b600082821b905092915050565b600060088302620006ef7fffffffffffffffffffffffffffffffffffffffffffffffffffffffffffffffff82620006b0565b620006fb8683620006b0565b95508019841693508086168417925050509392505050565b6000819050919050565b60006200073e62000738620007328462000531565b62000713565b62000531565b9050919050565b6000819050919050565b6200075a836200071d565b62000772620007698262000745565b848454620006bd565b825550505050565b600090565b620007896200077a565b620007968184846200074f565b505050565b5b81811015620007be57620007b26000826200077f565b6001810190506200079c565b5050565b601f8211156200080d57620007d7816200068b565b620007e284620006a0565b81016020851015620007f2578190505b6200080a6200080185620006a0565b8301826200079b565b50505b505050565b600082821c905092915050565b6000620008326000198460080262000812565b1980831691505092915050565b60006200084d83836200081f565b9150826002028217905092915050565b62000868826200061c565b67ffffffffffffffff81111562000884576200088362000368565b5b62000890825462000656565b6200089d828285620007c2565b600060209050601f831160018114620008d55760008415620008c0578287015190505b620008cc85826200083f565b8655506200093c565b601f198416620008e5866200068b565b60005b828110156200090f57848901518255600182019150602085019450602081019050620008e8565b868310156200092f57848901516200092b601f8916826200081f565b8355505b6001600288020188555050505b505050505050565b61256b80620009546000396000f3fe60806040526004361061016a5760003560e01c806370480275116100d15780639da211671161008a578063e7984d1711610064578063e7984d171461057d578063f2fde38b146105a8578063f5964e08146105d1578063f86b39301461060e5761016b565b80639da21167146104da578063a9059cbb14610503578063dd62ed3e146105405761016b565b806370480275146103cc57806370a08231146103f55780637d474527146104325780638456cb591461045b5780638da5cb5b146104725780639033cb281461049d5761016b565b806323b872dd1161012357806323b872dd1461028457806324d7806c146102c15780633f4ba83a146102fe57806340c10f191461031557806342966c681461035257806343f432d51461038f5761016b565b8063095ea7b3146101705780630cb8b89c146101ad5780630e969a05146101d85780631785f53c1461020357806318160ddd1461022c5780631fc37784146102575761016b565b5b600080fd5b34801561017c57600080fd5b5061019760048036038101906101929190611f00565b610639565b6040516101a49190611f5b565b60405180910390f35b3480156101b957600080fd5b506101c2610763565b6040516101cf9190612006565b60405180910390f35b3480156101e457600080fd5b506101ed61077f565b6040516101fa9190612044565b60405180910390f35b34801561020f57600080fd5b5061022a6004803603810190610225919061205f565b610784565b005b34801561023857600080fd5b506102416108c6565b60405161024e919061209b565b60405180910390f35b34801561026357600080fd5b5061026c6108d0565b60405161027b939291906120c5565b60405180910390f35b34801561029057600080fd5b506102ab60048036038101906102a6919061210a565b610a18565b6040516102b89190611f5b565b60405180910390f35b3480156102cd57600080fd5b506102e860048036038101906102e3919061205f565b610fb8565b6040516102f59190611f5b565b60405180910390f35b34801561030a57600080fd5b50610313611067565b005b34801561032157600080fd5b5061033c60048036038101906103379190611f00565b611131565b6040516103499190611f5b565b60405180910390f35b34801561035e57600080fd5b506103796004803603810190610374919061215d565b6112ff565b6040516103869190611f5b565b60405180910390f35b34801561039b57600080fd5b506103b660048036038101906103b191906121b6565b611475565b6040516103c39190612006565b60405180910390f35b3480156103d857600080fd5b506103f360048036038101906103ee919061205f565b6114f2565b005b34801561040157600080fd5b5061041c6004803603810190610417919061205f565b611634565b604051610429919061209b565b60405180910390f35b34801561043e57600080fd5b506104596004803603810190610454919061205f565b61167d565b005b34801561046757600080fd5b506104706117c4565b005b34801561047e57600080fd5b5061048761188f565b60405161049491906121e3565b60405180910390f35b3480156104a957600080fd5b506104c460048036038101906104bf919061205f565b6118b3565b6040516104d19190612044565b60405180910390f35b3480156104e657600080fd5b5061050160048036038101906104fc919061205f565b6118d5565b005b34801561050f57600080fd5b5061052a60048036038101906105259190611f00565b611a1d565b6040516105379190611f5b565b60405180910390f35b34801561054c57600080fd5b50610567600480360381019061056291906121fe565b611cb1565b604051610574919061209b565b60405180910390f35b34801561058957600080fd5b50610592611d38565b60405161059f9190612006565b60405180910390f35b3480156105b457600080fd5b506105cf60048036038101906105ca919061205f565b611d71565b005b3480156105dd57600080fd5b506105f860048036038101906105f3919061205f565b611e0c565b6040516106059190611f5b565b60405180910390f35b34801561061a57600080fd5b50610623611e62565b6040516106309190612044565b60405180910390f35b60008073ffffffffffffffffffffffffffffffffffffffff168373ffffffffffffffffffffffffffffffffffffffff160361067357600080fd5b81600860003373ffffffffffffffffffffffffffffffffffffffff1673ffffffffffffffffffffffffffffffffffffffff16815260200190815260200160002060008573ffffffffffffffffffffffffffffffffffffffff1673ffffffffffffffffffffffffffffffffffffffff168152602001908152602001600020819055508273ffffffffffffffffffffffffffffffffffffffff163373ffffffffffffffffffffffffffffffffffffffff167f8c5be1e5ebec7d5bd14f71427d1e84f3dd0314c0f7b2291e5b200ac8c7c3b92584604051610751919061209b565b60405180910390a36001905092915050565b60405180606001604052806027815260200161250f6027913981565b600081565b60008054906101000a900473ffffffffffffffffffffffffffffffffffffffff1673ffffffffffffffffffffffffffffffffffffffff163373ffffffffffffffffffffffffffffffffffffffff16146107dc57600080fd5b600073ffffffffffffffffffffffffffffffffffffffff168173ffffffffffffffffffffffffffffffffffffffff16141580156108635750600160008273ffffffffffffffffffffffffffffffffffffffff1673ffffffffffffffffffffffffffffffffffffffff16815260200190815260200160002060009054906101000a900460ff16155b61086c57600080fd5b60018060008373ffffffffffffffffffffffffffffffffffffffff1673ffffffffffffffffffffffffffffffffffffffff16815260200190815260200160002060006101000a81548160ff02191690831515021790555050565b6000600954905090565b60048060000160009054906101000a900473ffffffffffffffffffffffffffffffffffffffff16908060010180546109079061226d565b80601f01602080910402602001604051908101604052809291908181526020018280546109339061226d565b80156109805780601f1061095557610100808354040283529160200191610980565b820191906000526020600020905b81548152906001019060200180831161096357829003601f168201915b5050505050908060020180546109959061226d565b80601f01602080910402602001604051908101604052809291908181526020018280546109c19061226d565b8015610a0e5780601f106109e357610100808354040283529160200191610a0e565b820191906000526020600020905b8154815290600101906020018083116109f157829003601f168201915b5050505050905083565b60008383836000610a28836118b3565b9050600060ff168160ff1614610a3d82611475565b90610a7e576040517f08c379a0000000000000000000000000000000000000000000000000000000008152600401610a759190612006565b60405180910390fd5b50600360009054906101000a900460ff1615610a9957600080fd5b600073ffffffffffffffffffffffffffffffffffffffff168773ffffffffffffffffffffffffffffffffffffffff1603610b08576040517f08c379a0000000000000000000000000000000000000000000000000000000008152600401610aff906122ea565b60405180910390fd5b600760008973ffffffffffffffffffffffffffffffffffffffff1673ffffffffffffffffffffffffffffffffffffffff16815260200190815260200160002054861115610b8a576040517f08c379a0000000000000000000000000000000000000000000000000000000008152600401610b8190612356565b60405180910390fd5b85610b958989611cb1565b1015610bd6576040517f08c379a0000000000000000000000000000000000000000000000000000000008152600401610bcd906123c2565b60405180910390fd5b600760008973ffffffffffffffffffffffffffffffffffffffff1673ffffffffffffffffffffffffffffffffffffffff16815260200190815260200160002054861115610c58576040517f08c379a0000000000000000000000000000000000000000000000000000000008152600401610c4f9061242e565b60405180910390fd5b60008087600860008c73ffffffffffffffffffffffffffffffffffffffff1673ffffffffffffffffffffffffffffffffffffffff16815260200190815260200160002060003373ffffffffffffffffffffffffffffffffffffffff1673ffffffffffffffffffffffffffffffffffffffff1681526020019081526020016000205403905087600760008c73ffffffffffffffffffffffffffffffffffffffff1673ffffffffffffffffffffffffffffffffffffffff1681526020019081526020016000205403915080600860008c73ffffffffffffffffffffffffffffffffffffffff1673ffffffffffffffffffffffffffffffffffffffff16815260200190815260200160002060003373ffffffffffffffffffffffffffffffffffffffff1673ffffffffffffffffffffffffffffffffffffffff16815260200190815260200160002054118015610de9575081600760008c73ffffffffffffffffffffffffffffffffffffffff1673ffffffffffffffffffffffffffffffffffffffff16815260200190815260200160002054115b15610eb45781600760008c73ffffffffffffffffffffffffffffffffffffffff1673ffffffffffffffffffffffffffffffffffffffff1681526020019081526020016000208190555080600860008c73ffffffffffffffffffffffffffffffffffffffff1673ffffffffffffffffffffffffffffffffffffffff16815260200190815260200160002060003373ffffffffffffffffffffffffffffffffffffffff1673ffffffffffffffffffffffffffffffffffffffff168152602001908152602001600020819055505b87600760008b73ffffffffffffffffffffffffffffffffffffffff1673ffffffffffffffffffffffffffffffffffffffff16815260200190815260200160002054610eff919061247d565b600760008b73ffffffffffffffffffffffffffffffffffffffff1673ffffffffffffffffffffffffffffffffffffffff168152602001908152602001600020819055508873ffffffffffffffffffffffffffffffffffffffff168a73ffffffffffffffffffffffffffffffffffffffff167fddf252ad1be2c89b69c2b068fc378daa952ba7f163c4a11628f55a4df523b3ef8a604051610f9f919061209b565b60405180910390a3600196505050505050509392505050565b60008060009054906101000a900473ffffffffffffffffffffffffffffffffffffffff1673ffffffffffffffffffffffffffffffffffffffff163373ffffffffffffffffffffffffffffffffffffffff161461101357600080fd5b600160008373ffffffffffffffffffffffffffffffffffffffff1673ffffffffffffffffffffffffffffffffffffffff16815260200190815260200160002060009054906101000a900460ff169050919050565b60011515600160003373ffffffffffffffffffffffffffffffffffffffff1673ffffffffffffffffffffffffffffffffffffffff16815260200190815260200160002060009054906101000a900460ff161515146110c457600080fd5b600360009054906101000a900460ff166110dd57600080fd5b6000600360006101000a81548160ff0219169083151502179055507f5b458f30661b64d53169f3d852fe57bbaf55cb8f5615af19114f2c9b7bb52c0e3360405161112791906121e3565b60405180910390a1565b6000600360009054906101000a900460ff161561114d57600080fd5b60011515600160003373ffffffffffffffffffffffffffffffffffffffff1673ffffffffffffffffffffffffffffffffffffffff16815260200190815260200160002060009054906101000a900460ff161515146111aa57600080fd5b600073ffffffffffffffffffffffffffffffffffffffff168373ffffffffffffffffffffffffffffffffffffffff16036111e357600080fd5b81600960008282546111f5919061247d565b92505081905560098190555081600760008573ffffffffffffffffffffffffffffffffffffffff1673ffffffffffffffffffffffffffffffffffffffff1681526020019081526020016000205461124c919061247d565b600760008573ffffffffffffffffffffffffffffffffffffffff1673ffffffffffffffffffffffffffffffffffffffff168152602001908152602001600020819055508273ffffffffffffffffffffffffffffffffffffffff16600073ffffffffffffffffffffffffffffffffffffffff167fddf252ad1be2c89b69c2b068fc378daa952ba7f163c4a11628f55a4df523b3ef846040516112ed919061209b565b60405180910390a36001905092915050565b6000600360009054906101000a900460ff161561131b57600080fd5b60011515600160003373ffffffffffffffffffffffffffffffffffffffff1673ffffffffffffffffffffffffffffffffffffffff16815260200190815260200160002060009054906101000a900460ff1615151461137857600080fd5b81600760003373ffffffffffffffffffffffffffffffffffffffff1673ffffffffffffffffffffffffffffffffffffffff1681526020019081526020016000205410156113c457600080fd5b81600760003373ffffffffffffffffffffffffffffffffffffffff1673ffffffffffffffffffffffffffffffffffffffff168152602001908152602001600020600082825461141391906124b1565b92505081905550816009600082825461142c91906124b1565b925050819055507fcc16f5dbb4873280815c1ee09dbd06736cffcc184412cf7a71a0fdb75d397ca533836040516114649291906124e5565b60405180910390a160019050919050565b6060600060ff168260ff16036114c2576040518060400160405280600781526020017f535543434553530000000000000000000000000000000000000000000000000081525090506114ed565b600160ff168260ff16036114ec5760405180606001604052806027815260200161250f6027913990505b5b919050565b60008054906101000a900473ffffffffffffffffffffffffffffffffffffffff1673ffffffffffffffffffffffffffffffffffffffff163373ffffffffffffffffffffffffffffffffffffffff161461154a57600080fd5b600073ffffffffffffffffffffffffffffffffffffffff168173ffffffffffffffffffffffffffffffffffffffff16141580156115d15750600160008273ffffffffffffffffffffffffffffffffffffffff1673ffffffffffffffffffffffffffffffffffffffff16815260200190815260200160002060009054906101000a900460ff16155b6115da57600080fd5b60018060008373ffffffffffffffffffffffffffffffffffffffff1673ffffffffffffffffffffffffffffffffffffffff16815260200190815260200160002060006101000a81548160ff02191690831515021790555050565b6000600760008373ffffffffffffffffffffffffffffffffffffffff1673ffffffffffffffffffffffffffffffffffffffff168152602001908152602001600020549050919050565b60011515600160003373ffffffffffffffffffffffffffffffffffffffff1673ffffffffffffffffffffffffffffffffffffffff16815260200190815260200160002060009054906101000a900460ff161515146116da57600080fd5b600073ffffffffffffffffffffffffffffffffffffffff168173ffffffffffffffffffffffffffffffffffffffff16141580156117605750600260008273ffffffffffffffffffffffffffffffffffffffff1673ffffffffffffffffffffffffffffffffffffffff16815260200190815260200160002060009054906101000a900460ff165b61176957600080fd5b6000600260008373ffffffffffffffffffffffffffffffffffffffff1673ffffffffffffffffffffffffffffffffffffffff16815260200190815260200160002060006101000a81548160ff02191690831515021790555050565b60011515600160003373ffffffffffffffffffffffffffffffffffffffff1673ffffffffffffffffffffffffffffffffffffffff16815260200190815260200160002060009054906101000a900460ff1615151461182157600080fd5b600360009054906101000a900460ff161561183b57600080fd5b6001600360006101000a81548160ff0219169083151502179055507f507601cb28731d1f402d3760797e1a1b121a6b956be4fef723175be45cce56633360405161188591906121e3565b60405180910390a1565b60008054906101000a900473ffffffffffffffffffffffffffffffffffffffff1681565b60006118be82611e0c565b6118cb57600190506118d0565b600090505b919050565b60011515600160003373ffffffffffffffffffffffffffffffffffffffff1673ffffffffffffffffffffffffffffffffffffffff16815260200190815260200160002060009054906101000a900460ff1615151461193257600080fd5b600073ffffffffffffffffffffffffffffffffffffffff168173ffffffffffffffffffffffffffffffffffffffff16141580156119b95750600260008273ffffffffffffffffffffffffffffffffffffffff1673ffffffffffffffffffffffffffffffffffffffff16815260200190815260200160002060009054906101000a900460ff16155b6119c257600080fd5b6001600260008373ffffffffffffffffffffffffffffffffffffffff1673ffffffffffffffffffffffffffffffffffffffff16815260200190815260200160002060006101000a81548160ff02191690831515021790555050565b60003383836000611a2d836118b3565b9050600060ff168160ff1614611a4282611475565b90611a83576040517f08c379a0000000000000000000000000000000000000000000000000000000008152600401611a7a9190612006565b60405180910390fd5b50600360009054906101000a900460ff1615611a9e57600080fd5b600073ffffffffffffffffffffffffffffffffffffffff168773ffffffffffffffffffffffffffffffffffffffff1614158015611b19575085600760003373ffffffffffffffffffffffffffffffffffffffff1673ffffffffffffffffffffffffffffffffffffffff16815260200190815260200160002054115b611b2257600080fd5b85600760003373ffffffffffffffffffffffffffffffffffffffff1673ffffffffffffffffffffffffffffffffffffffff16815260200190815260200160002054611b6d919061247d565b600760003373ffffffffffffffffffffffffffffffffffffffff1673ffffffffffffffffffffffffffffffffffffffff1681526020019081526020016000208190555085600760008973ffffffffffffffffffffffffffffffffffffffff1673ffffffffffffffffffffffffffffffffffffffff16815260200190815260200160002054611bfb919061247d565b600760008973ffffffffffffffffffffffffffffffffffffffff1673ffffffffffffffffffffffffffffffffffffffff168152602001908152602001600020819055508673ffffffffffffffffffffffffffffffffffffffff163373ffffffffffffffffffffffffffffffffffffffff167fddf252ad1be2c89b69c2b068fc378daa952ba7f163c4a11628f55a4df523b3ef88604051611c9b919061209b565b60405180910390a3600194505050505092915050565b6000600860008473ffffffffffffffffffffffffffffffffffffffff1673ffffffffffffffffffffffffffffffffffffffff16815260200190815260200160002060008373ffffffffffffffffffffffffffffffffffffffff1673ffffffffffffffffffffffffffffffffffffffff16815260200190815260200160002054905092915050565b6040518060400160405280600781526020017f535543434553530000000000000000000000000000000000000000000000000081525081565b60008054906101000a900473ffffffffffffffffffffffffffffffffffffffff1673ffffffffffffffffffffffffffffffffffffffff163373ffffffffffffffffffffffffffffffffffffffff1614611dc957600080fd5b806000806101000a81548173ffffffffffffffffffffffffffffffffffffffff021916908373ffffffffffffffffffffffffffffffffffffffff16021790555050565b6000600260008373ffffffffffffffffffffffffffffffffffffffff1673ffffffffffffffffffffffffffffffffffffffff16815260200190815260200160002060009054906101000a900460ff169050919050565b600181565b600080fd5b600073ffffffffffffffffffffffffffffffffffffffff82169050919050565b6000611e9782611e6c565b9050919050565b611ea781611e8c565b8114611eb257600080fd5b50565b600081359050611ec481611e9e565b92915050565b6000819050919050565b611edd81611eca565b8114611ee857600080fd5b50565b600081359050611efa81611ed4565b92915050565b60008060408385031215611f1757611f16611e67565b5b6000611f2585828601611eb5565b9250506020611f3685828601611eeb565b9150509250929050565b60008115159050919050565b611f5581611f40565b82525050565b6000602082019050611f706000830184611f4c565b92915050565b600081519050919050565b600082825260208201905092915050565b60005b83811015611fb0578082015181840152602081019050611f95565b60008484015250505050565b6000601f19601f8301169050919050565b6000611fd882611f76565b611fe28185611f81565b9350611ff2818560208601611f92565b611ffb81611fbc565b840191505092915050565b600060208201905081810360008301526120208184611fcd565b905092915050565b600060ff82169050919050565b61203e81612028565b82525050565b60006020820190506120596000830184612035565b92915050565b60006020828403121561207557612074611e67565b5b600061208384828501611eb5565b91505092915050565b61209581611eca565b82525050565b60006020820190506120b0600083018461208c565b92915050565b6120bf81611e8c565b82525050565b60006060820190506120da60008301866120b6565b81810360208301526120ec8185611fcd565b905081810360408301526121008184611fcd565b9050949350505050565b60008060006060848603121561212357612122611e67565b5b600061213186828701611eb5565b935050602061214286828701611eb5565b925050604061215386828701611eeb565b9150509250925092565b60006020828403121561217357612172611e67565b5b600061218184828501611eeb565b91505092915050565b61219381612028565b811461219e57600080fd5b50565b6000813590506121b08161218a565b92915050565b6000602082840312156121cc576121cb611e67565b5b60006121da848285016121a1565b91505092915050565b60006020820190506121f860008301846120b6565b92915050565b6000806040838503121561221557612214611e67565b5b600061222385828601611eb5565b925050602061223485828601611eb5565b9150509250929050565b7f4e487b7100000000000000000000000000000000000000000000000000000000600052602260045260246000fd5b6000600282049050600182168061228557607f821691505b6020821081036122985761229761223e565b5b50919050565b7f506179696e672061646472657373206973206e756c6c00000000000000000000600082015250565b60006122d4601683611f81565b91506122df8261229e565b602082019050919050565b60006020820190508181036000830152612303816122c7565b9050919050565b7f496e73756666696369656e7420546f6b656e2042616c616e6365000000000000600082015250565b6000612340601a83611f81565b915061234b8261230a565b602082019050919050565b6000602082019050818103600083015261236f81612333565b9050919050565b7f506c6561736520617070726f766520726571756972656420616d6d6f756e7400600082015250565b60006123ac601f83611f81565b91506123b782612376565b602082019050919050565b600060208201905081810360008301526123db8161239f565b9050919050565b7f496e73756666696369656e742062616c616e6365000000000000000000000000600082015250565b6000612418601483611f81565b9150612423826123e2565b602082019050919050565b600060208201905081810360008301526124478161240b565b9050919050565b7f4e487b7100000000000000000000000000000000000000000000000000000000600052601160045260246000fd5b600061248882611eca565b915061249383611eca565b92508282019050808211156124ab576124aa61244e565b5b92915050565b60006124bc82611eca565b91506124c783611eca565b92508282039050818111156124df576124de61244e565b5b92915050565b60006040820190506124fa60008301856120b6565b612507602083018461208c565b939250505056fe494c4c4547414c5f5452414e534645525f544f5f44454e595f4c49535445445f41444452455353a264697066735822122028ec19302d51bd043ec0f67921ebebb0992993533ad24d9cbfc36a550c73c66a64736f6c63430008120033",
  "immutableReferences": {},
  "source": "//SPDX-License-Identifier:MIT\npragma solidity ^0.8.0;\n\n/**\n *@notice The DlvToken implements the ERC20 token\n *@author brian wu\n *@modifications ian mitchell, Samuel Egemba, Ngunan Jiki\n */ \n\n/**\n * define owner, transfer owner and assign admin\n */\nimport \"@openzeppelin/contracts/token/ERC20/IERC20.sol\";\n\ncontract owned  {\n    address public owner;\n    mapping(address => bool) admins;\n    constructor (){\n        owner = msg.sender;\n        admins[msg.sender] = true;\n    }\n\n    modifier onlyOwner {\n        require(msg.sender == owner);\n    _;\n    }\n\n    modifier onlyAdmin() {\n        require(admins[msg.sender] == true);\n        _;\n    }\n\n    function transferOwnership(address newOwner) onlyOwner public {\n        owner = newOwner;\n    }\n\n    function isAdmin(address account) onlyOwner public view returns (bool) {   \n        return admins[account];\n    }\n\n    function addAdmin(address account) onlyOwner public {\n        require(account != address(0) && !admins[account]);             \n        admins[account] = true;    \n    }\n\n    function removeAdmin(address account) onlyOwner public {\n        require(account != address(0) && !admins[account]);\n        admins[account] = true;    \n    }\n}\n\n/**\n * manage allowList \n */\ncontract AllowList is owned {\n    mapping(address => bool) allowList;\n    function addAllowList(address account) onlyAdmin public{\n        require(account != address(0) && !allowList[account]);             \n        allowList[account] = true;    \n    }\n\n    function isAllowList(address account) public view returns (bool) {   \n        return allowList[account];\n    }\n\n    function removeAllowListed(address account) public onlyAdmin {\n        require(account != address(0) && allowList[account]);\n        allowList[account] = false;    \n    }\n}\n\n/**\n * make contract function pausable\n */\ncontract Pausable is owned {\n    event PausedEvt(address account);\n    event UnpausedEvt(address account);\n    bool private paused;\n    constructor ()  {\n        paused = false;\n    }\n\n    modifier whenNotPaused() {\n        require(!paused);\n        _;\n    }\n\n    modifier whenPaused() {\n        require(paused);\n        _;\n    }\n\n    function pause() public onlyAdmin whenNotPaused {\n        paused = true;\n        emit PausedEvt(msg.sender);\n    }\n\n    function unpause() public onlyAdmin whenPaused {\n        paused = false;\n        emit UnpausedEvt(msg.sender);\n    }\n}\n\n/**\nERC20\n */\n\ncontract DLVToken is IERC20, AllowList, Pausable {\n    \n    TokenSummary public tokenSummary;\n\n    mapping(address => uint256) internal balances;\n    mapping (address => mapping (address => uint256)) internal allowed;\n    uint256 internal _totalSupply;\n    uint8 public constant SUCCESS_CODE = 0;\n    string public constant SUCCESS_MESSAGE = \"SUCCESS\";\n    uint8 public constant DENY_LIST_CODE = 1;\n    string public constant DENY_LIST_ERROR = \"ILLEGAL_TRANSFER_TO_DENY_LISTED_ADDRESS\";\n    \n    event Burn(address from, uint256 value);\n    struct TokenSummary {\n        address initialAccount;\n        string name;\n        string symbol;\n    }\n\n    constructor(string memory name_, string memory symbol_, address initialAccount, uint initialBalance) payable {\n        addAllowList(initialAccount);\n        balances[initialAccount] = initialBalance;\n        _totalSupply = initialBalance;\n        tokenSummary = TokenSummary(initialAccount, name_, symbol_);\n    }\n\n    modifier verify (address from, address to, uint256 value) {\n        uint8 restrictionCode = validateTransferRestricted(to);\n        require(restrictionCode == SUCCESS_CODE, messageHandler(restrictionCode));\n        _;\n    }\n\n    function validateTransferRestricted (address to) public view returns (uint8 restrictionCode) {\n        if (!isAllowList(to)) {\n            restrictionCode = DENY_LIST_CODE;\n        } else {\n            restrictionCode = SUCCESS_CODE;\n        }\n    }\n\n    function messageHandler (uint8 restrictionCode) public pure returns (string memory message) {\n        if (restrictionCode == SUCCESS_CODE) {\n            message = SUCCESS_MESSAGE;\n        } else if(restrictionCode == DENY_LIST_CODE) {\n            message = DENY_LIST_ERROR;\n        }\n    }\n\n    function totalSupply() public  view returns (uint256) {\n       return _totalSupply;\n    }\n\n    function balanceOf(address account) public  view returns (uint256) {\n      return balances[account];\n    }\n\n    function transfer (address to, uint256 value) public  verify(msg.sender, to, value)\n    whenNotPaused  returns (bool success) {\n        require(to != address(0) && balances[msg.sender]> value);\n        balances[msg.sender] = balances[msg.sender] + value;\n        balances[to] = balances[to] + value;\n        emit Transfer(msg.sender, to, value);\n        return true;\n    }\n\n    function transferFrom(address from, address spender,uint256 value) public  verify(from, spender, value) whenNotPaused returns (bool) {\n        require(spender != address(0),\"Paying address is null\");\n        require(value <= balances[from],\"Insufficient Token Balance\");\n        require(allowance(from,spender)>=value,\"Please approve required ammount\");\n        require(value <= balances[from], \"Insufficient balance\");\n        uint newbal;\n         uint newAll;\n        \n         \n            unchecked {\n            newAll= allowed[from][msg.sender]-value;\n            newbal = balances[from]-value;\n            \n                if(allowed[from][msg.sender]> newAll && balances[from]>newbal){\n\n                 balances[from] = newbal;\n                 allowed[from][msg.sender] = newAll;\n            }\n        }\n            \n\n        balances[spender] = balances[spender] + value;\n        emit Transfer(from, spender, value);\n        return true;\n  \t}\n\n\tfunction allowance(address owner,address spender) public view returns (uint256) {\n   \t\treturn allowed[owner][spender];\n \t}\n\n\tfunction approve(address spender, uint256 value) public  returns (bool) {\n        require(spender != address(0));\n        allowed[msg.sender][spender] = value;\n        emit Approval(msg.sender, spender, value);\n        return true;\n   \t}\n\n\tfunction burn(uint256 value) public whenNotPaused onlyAdmin returns (bool success) {\n\t\trequire(balances[msg.sender] >= value); \n\t\tbalances[msg.sender] -= value; \n\t\t_totalSupply -= value;\n\t\temit Burn(msg.sender, value);\n\t\treturn true;\n\t}\n\t\n\tfunction mint(address account, uint256 value) public whenNotPaused onlyAdmin returns (bool) {\n\t\trequire(account != address(0));\n\t\t_totalSupply = _totalSupply += value;\n\t\tbalances[account] = balances[account] + value;\n\t\temit Transfer(address(0), account, value);\n\t\treturn true;\n  \t}\n\n\tfallback ()  external payable {\trevert();  }// return any stray ether\n\n}",
  "sourcePath": "/home/ian/cw2/contracts/DlvToken.sol",
  "compiler": {
    "name": "solc",
    "version": "0.8.18+commit.87f61d96.Emscripten.clang"
  },
  "schemaVersion": "3.4.12",
  "updatedAt": "2023-04-03T08:11:08.000Z",
  "networkType": "ethereum",
  "devdoc": {
    "events": {
      "Approval(address,address,uint256)": {
        "details": "Emitted when the allowance of a `spender` for an `owner` is set by a call to {approve}. `value` is the new allowance."
      },
      "Transfer(address,address,uint256)": {
        "details": "Emitted when `value` tokens are moved from one account (`from`) to another (`to`). Note that `value` may be zero."
      }
    },
    "kind": "dev",
    "methods": {
      "allowance(address,address)": {
        "details": "Returns the remaining number of tokens that `spender` will be allowed to spend on behalf of `owner` through {transferFrom}. This is zero by default. This value changes when {approve} or {transferFrom} are called."
      },
      "balanceOf(address)": {
        "details": "Returns the amount of tokens owned by `account`."
      },
      "totalSupply()": {
        "details": "Returns the amount of tokens in existence."
      }
    },
    "version": 1
  },
  "userdoc": {
    "kind": "user",
    "methods": {},
    "notice": "ERC20",
    "version": 1
  }
}