{
  "contractName": "DLVToken",
  "abi": [
    {
      "inputs": [
        {
          "internalType": "string",
          "name": "name_",
          "type": "string"
        },
        {
          "internalType": "string",
          "name": "symbol_",
          "type": "string"
        },
        {
          "internalType": "address",
          "name": "initialAccount",
          "type": "address"
        },
        {
          "internalType": "uint256",
          "name": "initialBalance",
          "type": "uint256"
        }
      ],
      "stateMutability": "payable",
      "type": "constructor",
      "payable": true
    },
    {
      "anonymous": false,
      "inputs": [
        {
          "indexed": true,
          "internalType": "address",
          "name": "owner",
          "type": "address"
        },
        {
          "indexed": true,
          "internalType": "address",
          "name": "spender",
          "type": "address"
        },
        {
          "indexed": false,
          "internalType": "uint256",
          "name": "value",
          "type": "uint256"
        }
      ],
      "name": "Approval",
      "type": "event"
    },
    {
      "anonymous": false,
      "inputs": [
        {
          "indexed": false,
          "internalType": "address",
          "name": "from",
          "type": "address"
        },
        {
          "indexed": false,
          "internalType": "uint256",
          "name": "value",
          "type": "uint256"
        }
      ],
      "name": "Burn",
      "type": "event"
    },
    {
      "anonymous": false,
      "inputs": [
        {
          "indexed": false,
          "internalType": "address",
          "name": "account",
          "type": "address"
        }
      ],
      "name": "PausedEvt",
      "type": "event"
    },
    {
      "anonymous": false,
      "inputs": [
        {
          "indexed": true,
          "internalType": "address",
          "name": "from",
          "type": "address"
        },
        {
          "indexed": true,
          "internalType": "address",
          "name": "to",
          "type": "address"
        },
        {
          "indexed": false,
          "internalType": "uint256",
          "name": "value",
          "type": "uint256"
        }
      ],
      "name": "Transfer",
      "type": "event"
    },
    {
      "anonymous": false,
      "inputs": [
        {
          "indexed": false,
          "internalType": "address",
          "name": "account",
          "type": "address"
        }
      ],
      "name": "UnpausedEvt",
      "type": "event"
    },
    {
      "stateMutability": "payable",
      "type": "fallback",
      "payable": true
    },
    {
      "inputs": [],
      "name": "DENY_LIST_CODE",
      "outputs": [
        {
          "internalType": "uint8",
          "name": "",
          "type": "uint8"
        }
      ],
      "stateMutability": "view",
      "type": "function",
      "constant": true
    },
    {
      "inputs": [],
      "name": "DENY_LIST_ERROR",
      "outputs": [
        {
          "internalType": "string",
          "name": "",
          "type": "string"
        }
      ],
      "stateMutability": "view",
      "type": "function",
      "constant": true
    },
    {
      "inputs": [],
      "name": "SUCCESS_CODE",
      "outputs": [
        {
          "internalType": "uint8",
          "name": "",
          "type": "uint8"
        }
      ],
      "stateMutability": "view",
      "type": "function",
      "constant": true
    },
    {
      "inputs": [],
      "name": "SUCCESS_MESSAGE",
      "outputs": [
        {
          "internalType": "string",
          "name": "",
          "type": "string"
        }
      ],
      "stateMutability": "view",
      "type": "function",
      "constant": true
    },
    {
      "inputs": [
        {
          "internalType": "address",
          "name": "account",
          "type": "address"
        }
      ],
      "name": "addAdmin",
      "outputs": [],
      "stateMutability": "nonpayable",
      "type": "function"
    },
    {
      "inputs": [
        {
          "internalType": "address",
          "name": "account",
          "type": "address"
        }
      ],
      "name": "addAllowList",
      "outputs": [],
      "stateMutability": "nonpayable",
      "type": "function"
    },
    {
      "inputs": [],
      "name": "decimals",
      "outputs": [
        {
          "internalType": "uint8",
          "name": "",
          "type": "uint8"
        }
      ],
      "stateMutability": "view",
      "type": "function",
      "constant": true
    },
    {
      "inputs": [
        {
          "internalType": "address",
          "name": "spender",
          "type": "address"
        },
        {
          "internalType": "uint256",
          "name": "subtractedValue",
          "type": "uint256"
        }
      ],
      "name": "decreaseAllowance",
      "outputs": [
        {
          "internalType": "bool",
          "name": "",
          "type": "bool"
        }
      ],
      "stateMutability": "nonpayable",
      "type": "function"
    },
    {
      "inputs": [
        {
          "internalType": "address",
          "name": "spender",
          "type": "address"
        },
        {
          "internalType": "uint256",
          "name": "addedValue",
          "type": "uint256"
        }
      ],
      "name": "increaseAllowance",
      "outputs": [
        {
          "internalType": "bool",
          "name": "",
          "type": "bool"
        }
      ],
      "stateMutability": "nonpayable",
      "type": "function"
    },
    {
      "inputs": [
        {
          "internalType": "address",
          "name": "account",
          "type": "address"
        }
      ],
      "name": "isAdmin",
      "outputs": [
        {
          "internalType": "bool",
          "name": "",
          "type": "bool"
        }
      ],
      "stateMutability": "view",
      "type": "function",
      "constant": true
    },
    {
      "inputs": [
        {
          "internalType": "address",
          "name": "account",
          "type": "address"
        }
      ],
      "name": "isAllowList",
      "outputs": [
        {
          "internalType": "bool",
          "name": "",
          "type": "bool"
        }
      ],
      "stateMutability": "view",
      "type": "function",
      "constant": true
    },
    {
      "inputs": [],
      "name": "name",
      "outputs": [
        {
          "internalType": "string",
          "name": "",
          "type": "string"
        }
      ],
      "stateMutability": "view",
      "type": "function",
      "constant": true
    },
    {
      "inputs": [],
      "name": "owner",
      "outputs": [
        {
          "internalType": "address",
          "name": "",
          "type": "address"
        }
      ],
      "stateMutability": "view",
      "type": "function",
      "constant": true
    },
    {
      "inputs": [],
      "name": "pause",
      "outputs": [],
      "stateMutability": "nonpayable",
      "type": "function"
    },
    {
      "inputs": [
        {
          "internalType": "address",
          "name": "account",
          "type": "address"
        }
      ],
      "name": "removeAdmin",
      "outputs": [],
      "stateMutability": "nonpayable",
      "type": "function"
    },
    {
      "inputs": [
        {
          "internalType": "address",
          "name": "account",
          "type": "address"
        }
      ],
      "name": "removeAllowListed",
      "outputs": [],
      "stateMutability": "nonpayable",
      "type": "function"
    },
    {
      "inputs": [],
      "name": "symbol",
      "outputs": [
        {
          "internalType": "string",
          "name": "",
          "type": "string"
        }
      ],
      "stateMutability": "view",
      "type": "function",
      "constant": true
    },
    {
      "inputs": [],
      "name": "tokenSummary",
      "outputs": [
        {
          "internalType": "address",
          "name": "initialAccount",
          "type": "address"
        },
        {
          "internalType": "string",
          "name": "name",
          "type": "string"
        },
        {
          "internalType": "string",
          "name": "symbol",
          "type": "string"
        }
      ],
      "stateMutability": "view",
      "type": "function",
      "constant": true
    },
    {
      "inputs": [
        {
          "internalType": "address",
          "name": "newOwner",
          "type": "address"
        }
      ],
      "name": "transferOwnership",
      "outputs": [],
      "stateMutability": "nonpayable",
      "type": "function"
    },
    {
      "inputs": [],
      "name": "unpause",
      "outputs": [],
      "stateMutability": "nonpayable",
      "type": "function"
    },
    {
      "inputs": [
        {
          "internalType": "address",
          "name": "to",
          "type": "address"
        }
      ],
      "name": "validateTransferRestricted",
      "outputs": [
        {
          "internalType": "uint8",
          "name": "restrictionCode",
          "type": "uint8"
        }
      ],
      "stateMutability": "view",
      "type": "function",
      "constant": true
    },
    {
      "inputs": [
        {
          "internalType": "uint8",
          "name": "restrictionCode",
          "type": "uint8"
        }
      ],
      "name": "messageHandler",
      "outputs": [
        {
          "internalType": "string",
          "name": "message",
          "type": "string"
        }
      ],
      "stateMutability": "pure",
      "type": "function",
      "constant": true
    },
    {
      "inputs": [],
      "name": "totalSupply",
      "outputs": [
        {
          "internalType": "uint256",
          "name": "",
          "type": "uint256"
        }
      ],
      "stateMutability": "view",
      "type": "function",
      "constant": true
    },
    {
      "inputs": [
        {
          "internalType": "address",
          "name": "account",
          "type": "address"
        }
      ],
      "name": "balanceOf",
      "outputs": [
        {
          "internalType": "uint256",
          "name": "",
          "type": "uint256"
        }
      ],
      "stateMutability": "view",
      "type": "function",
      "constant": true
    },
    {
      "inputs": [
        {
          "internalType": "address",
          "name": "to",
          "type": "address"
        },
        {
          "internalType": "uint256",
          "name": "value",
          "type": "uint256"
        }
      ],
      "name": "transfer",
      "outputs": [
        {
          "internalType": "bool",
          "name": "success",
          "type": "bool"
        }
      ],
      "stateMutability": "nonpayable",
      "type": "function"
    },
    {
      "inputs": [
        {
          "internalType": "address",
          "name": "from",
          "type": "address"
        },
        {
          "internalType": "address",
          "name": "spender",
          "type": "address"
        },
        {
          "internalType": "uint256",
          "name": "value",
          "type": "uint256"
        }
      ],
      "name": "transferFrom",
      "outputs": [
        {
          "internalType": "bool",
          "name": "",
          "type": "bool"
        }
      ],
      "stateMutability": "nonpayable",
      "type": "function"
    },
    {
      "inputs": [
        {
          "internalType": "address",
          "name": "owner",
          "type": "address"
        },
        {
          "internalType": "address",
          "name": "spender",
          "type": "address"
        }
      ],
      "name": "allowance",
      "outputs": [
        {
          "internalType": "uint256",
          "name": "",
          "type": "uint256"
        }
      ],
      "stateMutability": "view",
      "type": "function",
      "constant": true
    },
    {
      "inputs": [
        {
          "internalType": "address",
          "name": "spender",
          "type": "address"
        },
        {
          "internalType": "uint256",
          "name": "value",
          "type": "uint256"
        }
      ],
      "name": "approve",
      "outputs": [
        {
          "internalType": "bool",
          "name": "",
          "type": "bool"
        }
      ],
      "stateMutability": "nonpayable",
      "type": "function"
    },
    {
      "inputs": [
        {
          "internalType": "uint256",
          "name": "value",
          "type": "uint256"
        }
      ],
      "name": "burn",
      "outputs": [
        {
          "internalType": "bool",
          "name": "success",
          "type": "bool"
        }
      ],
      "stateMutability": "nonpayable",
      "type": "function"
    },
    {
      "inputs": [
        {
          "internalType": "address",
          "name": "account",
          "type": "address"
        },
        {
          "internalType": "uint256",
          "name": "value",
          "type": "uint256"
        }
      ],
      "name": "mint",
      "outputs": [
        {
          "internalType": "bool",
          "name": "",
          "type": "bool"
        }
      ],
      "stateMutability": "nonpayable",
      "type": "function"
    }
  ],
  "bytecode": "0x60806040526040516200328f3803806200328f833981810160405281019062000029919062000596565b838381600390816200003c919062000887565b5080600490816200004e919062000887565b50505033600560006101000a81548173ffffffffffffffffffffffffffffffffffffffff021916908373ffffffffffffffffffffffffffffffffffffffff1602179055506001600660003373ffffffffffffffffffffffffffffffffffffffff1673ffffffffffffffffffffffffffffffffffffffff16815260200190815260200160002060006101000a81548160ff0219169083151502179055506000600860006101000a81548160ff02191690831515021790555062000116826200021860201b60201c565b80600c60008473ffffffffffffffffffffffffffffffffffffffff1673ffffffffffffffffffffffffffffffffffffffff1681526020019081526020016000208190555080600e8190555060405180606001604052808373ffffffffffffffffffffffffffffffffffffffff16815260200185815260200184815250600960008201518160000160006101000a81548173ffffffffffffffffffffffffffffffffffffffff021916908373ffffffffffffffffffffffffffffffffffffffff1602179055506020820151816001019081620001f2919062000887565b5060408201518160020190816200020a919062000887565b50905050505050506200096e565b60011515600660003373ffffffffffffffffffffffffffffffffffffffff1673ffffffffffffffffffffffffffffffffffffffff16815260200190815260200160002060009054906101000a900460ff161515146200027657600080fd5b600073ffffffffffffffffffffffffffffffffffffffff168173ffffffffffffffffffffffffffffffffffffffff1614158015620002fe5750600760008273ffffffffffffffffffffffffffffffffffffffff1673ffffffffffffffffffffffffffffffffffffffff16815260200190815260200160002060009054906101000a900460ff16155b6200030857600080fd5b6001600760008373ffffffffffffffffffffffffffffffffffffffff1673ffffffffffffffffffffffffffffffffffffffff16815260200190815260200160002060006101000a81548160ff02191690831515021790555050565b6000604051905090565b600080fd5b600080fd5b600080fd5b600080fd5b6000601f19601f8301169050919050565b7f4e487b7100000000000000000000000000000000000000000000000000000000600052604160045260246000fd5b620003cc8262000381565b810181811067ffffffffffffffff82111715620003ee57620003ed62000392565b5b80604052505050565b60006200040362000363565b9050620004118282620003c1565b919050565b600067ffffffffffffffff82111562000434576200043362000392565b5b6200043f8262000381565b9050602081019050919050565b60005b838110156200046c5780820151818401526020810190506200044f565b60008484015250505050565b60006200048f620004898462000416565b620003f7565b905082815260208101848484011115620004ae57620004ad6200037c565b5b620004bb8482856200044c565b509392505050565b600082601f830112620004db57620004da62000377565b5b8151620004ed84826020860162000478565b91505092915050565b600073ffffffffffffffffffffffffffffffffffffffff82169050919050565b60006200052382620004f6565b9050919050565b620005358162000516565b81146200054157600080fd5b50565b60008151905062000555816200052a565b92915050565b6000819050919050565b62000570816200055b565b81146200057c57600080fd5b50565b600081519050620005908162000565565b92915050565b60008060008060808587031215620005b357620005b26200036d565b5b600085015167ffffffffffffffff811115620005d457620005d362000372565b5b620005e287828801620004c3565b945050602085015167ffffffffffffffff81111562000606576200060562000372565b5b6200061487828801620004c3565b9350506040620006278782880162000544565b92505060606200063a878288016200057f565b91505092959194509250565b600081519050919050565b7f4e487b7100000000000000000000000000000000000000000000000000000000600052602260045260246000fd5b600060028204905060018216806200069957607f821691505b602082108103620006af57620006ae62000651565b5b50919050565b60008190508160005260206000209050919050565b60006020601f8301049050919050565b600082821b905092915050565b600060088302620007197fffffffffffffffffffffffffffffffffffffffffffffffffffffffffffffffff82620006da565b620007258683620006da565b95508019841693508086168417925050509392505050565b6000819050919050565b600062000768620007626200075c846200055b565b6200073d565b6200055b565b9050919050565b6000819050919050565b620007848362000747565b6200079c62000793826200076f565b848454620006e7565b825550505050565b600090565b620007b3620007a4565b620007c081848462000779565b505050565b5b81811015620007e857620007dc600082620007a9565b600181019050620007c6565b5050565b601f82111562000837576200080181620006b5565b6200080c84620006ca565b810160208510156200081c578190505b620008346200082b85620006ca565b830182620007c5565b50505b505050565b600082821c905092915050565b60006200085c600019846008026200083c565b1980831691505092915050565b600062000877838362000849565b9150826002028217905092915050565b620008928262000646565b67ffffffffffffffff811115620008ae57620008ad62000392565b5b620008ba825462000680565b620008c7828285620007ec565b600060209050601f831160018114620008ff5760008415620008ea578287015190505b620008f6858262000869565b86555062000966565b601f1984166200090f86620006b5565b60005b82811015620009395784890151825560018201915060208501945060208101905062000912565b8683101562000959578489015162000955601f89168262000849565b8355505b6001600288020188555050505b505050505050565b612911806200097e6000396000f3fe6080604052600436106101d15760003560e01c806370480275116100f75780639da2116711610095578063e7984d1711610064578063e7984d17146106df578063f2fde38b1461070a578063f5964e0814610733578063f86b393014610770576101d2565b80639da21167146105ff578063a457c2d714610628578063a9059cbb14610665578063dd62ed3e146106a2576101d2565b80638456cb59116100d15780638456cb59146105555780638da5cb5b1461056c5780639033cb281461059757806395d89b41146105d4576101d2565b806370480275146104c657806370a08231146104ef5780637d4745271461052c576101d2565b806323b872dd1161016f5780633f4ba83a1161013e5780633f4ba83a146103f857806340c10f191461040f57806342966c681461044c57806343f432d514610489576101d2565b806323b872dd1461031657806324d7806c14610353578063313ce5671461039057806339509351146103bb576101d2565b80630e969a05116101ab5780630e969a051461026a5780631785f53c1461029557806318160ddd146102be5780631fc37784146102e9576101d2565b806306fdde03146101d7578063095ea7b3146102025780630cb8b89c1461023f576101d2565b5b600080fd5b3480156101e357600080fd5b506101ec61079b565b6040516101f99190612297565b60405180910390f35b34801561020e57600080fd5b5061022960048036038101906102249190612352565b61082d565b60405161023691906123ad565b60405180910390f35b34801561024b57600080fd5b50610254610957565b6040516102619190612297565b60405180910390f35b34801561027657600080fd5b5061027f610973565b60405161028c91906123e4565b60405180910390f35b3480156102a157600080fd5b506102bc60048036038101906102b791906123ff565b610978565b005b3480156102ca57600080fd5b506102d3610abd565b6040516102e0919061243b565b60405180910390f35b3480156102f557600080fd5b506102fe610ac7565b60405161030d93929190612465565b60405180910390f35b34801561032257600080fd5b5061033d600480360381019061033891906124aa565b610c0f565b60405161034a91906123ad565b60405180910390f35b34801561035f57600080fd5b5061037a600480360381019061037591906123ff565b611035565b60405161038791906123ad565b60405180910390f35b34801561039c57600080fd5b506103a56110e5565b6040516103b291906123e4565b60405180910390f35b3480156103c757600080fd5b506103e260048036038101906103dd9190612352565b6110ee565b6040516103ef91906123ad565b60405180910390f35b34801561040457600080fd5b5061040d611125565b005b34801561041b57600080fd5b5061043660048036038101906104319190612352565b6111ef565b60405161044391906123ad565b60405180910390f35b34801561045857600080fd5b50610473600480360381019061046e91906124fd565b6113bd565b60405161048091906123ad565b60405180910390f35b34801561049557600080fd5b506104b060048036038101906104ab9190612556565b611533565b6040516104bd9190612297565b60405180910390f35b3480156104d257600080fd5b506104ed60048036038101906104e891906123ff565b6115b0565b005b3480156104fb57600080fd5b50610516600480360381019061051191906123ff565b6116f5565b604051610523919061243b565b60405180910390f35b34801561053857600080fd5b50610553600480360381019061054e91906123ff565b61173e565b005b34801561056157600080fd5b5061056a611885565b005b34801561057857600080fd5b50610581611950565b60405161058e9190612583565b60405180910390f35b3480156105a357600080fd5b506105be60048036038101906105b991906123ff565b611976565b6040516105cb91906123e4565b60405180910390f35b3480156105e057600080fd5b506105e9611998565b6040516105f69190612297565b60405180910390f35b34801561060b57600080fd5b50610626600480360381019061062191906123ff565b611a2a565b005b34801561063457600080fd5b5061064f600480360381019061064a9190612352565b611b72565b60405161065c91906123ad565b60405180910390f35b34801561067157600080fd5b5061068c60048036038101906106879190612352565b611be9565b60405161069991906123ad565b60405180910390f35b3480156106ae57600080fd5b506106c960048036038101906106c4919061259e565b611e7d565b6040516106d6919061243b565b60405180910390f35b3480156106eb57600080fd5b506106f4611f04565b6040516107019190612297565b60405180910390f35b34801561071657600080fd5b50610731600480360381019061072c91906123ff565b611f3d565b005b34801561073f57600080fd5b5061075a600480360381019061075591906123ff565b611fdb565b60405161076791906123ad565b60405180910390f35b34801561077c57600080fd5b50610785612031565b60405161079291906123e4565b60405180910390f35b6060600380546107aa9061260d565b80601f01602080910402602001604051908101604052809291908181526020018280546107d69061260d565b80156108235780601f106107f857610100808354040283529160200191610823565b820191906000526020600020905b81548152906001019060200180831161080657829003601f168201915b5050505050905090565b60008073ffffffffffffffffffffffffffffffffffffffff168373ffffffffffffffffffffffffffffffffffffffff160361086757600080fd5b81600d60003373ffffffffffffffffffffffffffffffffffffffff1673ffffffffffffffffffffffffffffffffffffffff16815260200190815260200160002060008573ffffffffffffffffffffffffffffffffffffffff1673ffffffffffffffffffffffffffffffffffffffff168152602001908152602001600020819055508273ffffffffffffffffffffffffffffffffffffffff163373ffffffffffffffffffffffffffffffffffffffff167f8c5be1e5ebec7d5bd14f71427d1e84f3dd0314c0f7b2291e5b200ac8c7c3b92584604051610945919061243b565b60405180910390a36001905092915050565b6040518060600160405280602781526020016128b56027913981565b600081565b600560009054906101000a900473ffffffffffffffffffffffffffffffffffffffff1673ffffffffffffffffffffffffffffffffffffffff163373ffffffffffffffffffffffffffffffffffffffff16146109d257600080fd5b600073ffffffffffffffffffffffffffffffffffffffff168173ffffffffffffffffffffffffffffffffffffffff1614158015610a595750600660008273ffffffffffffffffffffffffffffffffffffffff1673ffffffffffffffffffffffffffffffffffffffff16815260200190815260200160002060009054906101000a900460ff16155b610a6257600080fd5b6001600660008373ffffffffffffffffffffffffffffffffffffffff1673ffffffffffffffffffffffffffffffffffffffff16815260200190815260200160002060006101000a81548160ff02191690831515021790555050565b6000600e54905090565b60098060000160009054906101000a900473ffffffffffffffffffffffffffffffffffffffff1690806001018054610afe9061260d565b80601f0160208091040260200160405190810160405280929190818152602001828054610b2a9061260d565b8015610b775780601f10610b4c57610100808354040283529160200191610b77565b820191906000526020600020905b815481529060010190602001808311610b5a57829003601f168201915b505050505090806002018054610b8c9061260d565b80601f0160208091040260200160405190810160405280929190818152602001828054610bb89061260d565b8015610c055780601f10610bda57610100808354040283529160200191610c05565b820191906000526020600020905b815481529060010190602001808311610be857829003601f168201915b5050505050905083565b60008383836000610c1f83611976565b9050600060ff168160ff1614610c3482611533565b90610c75576040517f08c379a0000000000000000000000000000000000000000000000000000000008152600401610c6c9190612297565b60405180910390fd5b50600860009054906101000a900460ff1615610c9057600080fd5b600073ffffffffffffffffffffffffffffffffffffffff168773ffffffffffffffffffffffffffffffffffffffff1614158015610d0c5750600c60008973ffffffffffffffffffffffffffffffffffffffff1673ffffffffffffffffffffffffffffffffffffffff168152602001908152602001600020548611155b8015610d945750600d60008973ffffffffffffffffffffffffffffffffffffffff1673ffffffffffffffffffffffffffffffffffffffff16815260200190815260200160002060003373ffffffffffffffffffffffffffffffffffffffff1673ffffffffffffffffffffffffffffffffffffffff168152602001908152602001600020548611155b610d9d57600080fd5b85600c60008a73ffffffffffffffffffffffffffffffffffffffff1673ffffffffffffffffffffffffffffffffffffffff16815260200190815260200160002054610de8919061266d565b600c60008a73ffffffffffffffffffffffffffffffffffffffff1673ffffffffffffffffffffffffffffffffffffffff1681526020019081526020016000208190555085600c60008973ffffffffffffffffffffffffffffffffffffffff1673ffffffffffffffffffffffffffffffffffffffff16815260200190815260200160002054610e7691906126a1565b600c60008973ffffffffffffffffffffffffffffffffffffffff1673ffffffffffffffffffffffffffffffffffffffff1681526020019081526020016000208190555085600d60008a73ffffffffffffffffffffffffffffffffffffffff1673ffffffffffffffffffffffffffffffffffffffff16815260200190815260200160002060003373ffffffffffffffffffffffffffffffffffffffff1673ffffffffffffffffffffffffffffffffffffffff16815260200190815260200160002054610f41919061266d565b600d60008a73ffffffffffffffffffffffffffffffffffffffff1673ffffffffffffffffffffffffffffffffffffffff16815260200190815260200160002060003373ffffffffffffffffffffffffffffffffffffffff1673ffffffffffffffffffffffffffffffffffffffff168152602001908152602001600020819055508673ffffffffffffffffffffffffffffffffffffffff168873ffffffffffffffffffffffffffffffffffffffff167fddf252ad1be2c89b69c2b068fc378daa952ba7f163c4a11628f55a4df523b3ef8860405161101e919061243b565b60405180910390a360019450505050509392505050565b6000600560009054906101000a900473ffffffffffffffffffffffffffffffffffffffff1673ffffffffffffffffffffffffffffffffffffffff163373ffffffffffffffffffffffffffffffffffffffff161461109157600080fd5b600660008373ffffffffffffffffffffffffffffffffffffffff1673ffffffffffffffffffffffffffffffffffffffff16815260200190815260200160002060009054906101000a900460ff169050919050565b60006012905090565b6000806110f9612036565b905061111a81858561110b8589611e7d565b61111591906126a1565b61203e565b600191505092915050565b60011515600660003373ffffffffffffffffffffffffffffffffffffffff1673ffffffffffffffffffffffffffffffffffffffff16815260200190815260200160002060009054906101000a900460ff1615151461118257600080fd5b600860009054906101000a900460ff1661119b57600080fd5b6000600860006101000a81548160ff0219169083151502179055507f5b458f30661b64d53169f3d852fe57bbaf55cb8f5615af19114f2c9b7bb52c0e336040516111e59190612583565b60405180910390a1565b6000600860009054906101000a900460ff161561120b57600080fd5b60011515600660003373ffffffffffffffffffffffffffffffffffffffff1673ffffffffffffffffffffffffffffffffffffffff16815260200190815260200160002060009054906101000a900460ff1615151461126857600080fd5b600073ffffffffffffffffffffffffffffffffffffffff168373ffffffffffffffffffffffffffffffffffffffff16036112a157600080fd5b81600e60008282546112b391906126a1565b925050819055600e8190555081600c60008573ffffffffffffffffffffffffffffffffffffffff1673ffffffffffffffffffffffffffffffffffffffff1681526020019081526020016000205461130a91906126a1565b600c60008573ffffffffffffffffffffffffffffffffffffffff1673ffffffffffffffffffffffffffffffffffffffff168152602001908152602001600020819055508273ffffffffffffffffffffffffffffffffffffffff16600073ffffffffffffffffffffffffffffffffffffffff167fddf252ad1be2c89b69c2b068fc378daa952ba7f163c4a11628f55a4df523b3ef846040516113ab919061243b565b60405180910390a36001905092915050565b6000600860009054906101000a900460ff16156113d957600080fd5b60011515600660003373ffffffffffffffffffffffffffffffffffffffff1673ffffffffffffffffffffffffffffffffffffffff16815260200190815260200160002060009054906101000a900460ff1615151461143657600080fd5b81600c60003373ffffffffffffffffffffffffffffffffffffffff1673ffffffffffffffffffffffffffffffffffffffff16815260200190815260200160002054101561148257600080fd5b81600c60003373ffffffffffffffffffffffffffffffffffffffff1673ffffffffffffffffffffffffffffffffffffffff16815260200190815260200160002060008282546114d1919061266d565b9250508190555081600e60008282546114ea919061266d565b925050819055507fcc16f5dbb4873280815c1ee09dbd06736cffcc184412cf7a71a0fdb75d397ca533836040516115229291906126d5565b60405180910390a160019050919050565b6060600060ff168260ff1603611580576040518060400160405280600781526020017f535543434553530000000000000000000000000000000000000000000000000081525090506115ab565b600160ff168260ff16036115aa576040518060600160405280602781526020016128b56027913990505b5b919050565b600560009054906101000a900473ffffffffffffffffffffffffffffffffffffffff1673ffffffffffffffffffffffffffffffffffffffff163373ffffffffffffffffffffffffffffffffffffffff161461160a57600080fd5b600073ffffffffffffffffffffffffffffffffffffffff168173ffffffffffffffffffffffffffffffffffffffff16141580156116915750600660008273ffffffffffffffffffffffffffffffffffffffff1673ffffffffffffffffffffffffffffffffffffffff16815260200190815260200160002060009054906101000a900460ff16155b61169a57600080fd5b6001600660008373ffffffffffffffffffffffffffffffffffffffff1673ffffffffffffffffffffffffffffffffffffffff16815260200190815260200160002060006101000a81548160ff02191690831515021790555050565b6000600c60008373ffffffffffffffffffffffffffffffffffffffff1673ffffffffffffffffffffffffffffffffffffffff168152602001908152602001600020549050919050565b60011515600660003373ffffffffffffffffffffffffffffffffffffffff1673ffffffffffffffffffffffffffffffffffffffff16815260200190815260200160002060009054906101000a900460ff1615151461179b57600080fd5b600073ffffffffffffffffffffffffffffffffffffffff168173ffffffffffffffffffffffffffffffffffffffff16141580156118215750600760008273ffffffffffffffffffffffffffffffffffffffff1673ffffffffffffffffffffffffffffffffffffffff16815260200190815260200160002060009054906101000a900460ff165b61182a57600080fd5b6000600760008373ffffffffffffffffffffffffffffffffffffffff1673ffffffffffffffffffffffffffffffffffffffff16815260200190815260200160002060006101000a81548160ff02191690831515021790555050565b60011515600660003373ffffffffffffffffffffffffffffffffffffffff1673ffffffffffffffffffffffffffffffffffffffff16815260200190815260200160002060009054906101000a900460ff161515146118e257600080fd5b600860009054906101000a900460ff16156118fc57600080fd5b6001600860006101000a81548160ff0219169083151502179055507f507601cb28731d1f402d3760797e1a1b121a6b956be4fef723175be45cce5663336040516119469190612583565b60405180910390a1565b600560009054906101000a900473ffffffffffffffffffffffffffffffffffffffff1681565b600061198182611fdb565b61198e5760019050611993565b600090505b919050565b6060600480546119a79061260d565b80601f01602080910402602001604051908101604052809291908181526020018280546119d39061260d565b8015611a205780601f106119f557610100808354040283529160200191611a20565b820191906000526020600020905b815481529060010190602001808311611a0357829003601f168201915b5050505050905090565b60011515600660003373ffffffffffffffffffffffffffffffffffffffff1673ffffffffffffffffffffffffffffffffffffffff16815260200190815260200160002060009054906101000a900460ff16151514611a8757600080fd5b600073ffffffffffffffffffffffffffffffffffffffff168173ffffffffffffffffffffffffffffffffffffffff1614158015611b0e5750600760008273ffffffffffffffffffffffffffffffffffffffff1673ffffffffffffffffffffffffffffffffffffffff16815260200190815260200160002060009054906101000a900460ff16155b611b1757600080fd5b6001600760008373ffffffffffffffffffffffffffffffffffffffff1673ffffffffffffffffffffffffffffffffffffffff16815260200190815260200160002060006101000a81548160ff02191690831515021790555050565b600080611b7d612036565b90506000611b8b8286611e7d565b905083811015611bd0576040517f08c379a0000000000000000000000000000000000000000000000000000000008152600401611bc790612770565b60405180910390fd5b611bdd828686840361203e565b60019250505092915050565b60003383836000611bf983611976565b9050600060ff168160ff1614611c0e82611533565b90611c4f576040517f08c379a0000000000000000000000000000000000000000000000000000000008152600401611c469190612297565b60405180910390fd5b50600860009054906101000a900460ff1615611c6a57600080fd5b600073ffffffffffffffffffffffffffffffffffffffff168773ffffffffffffffffffffffffffffffffffffffff1614158015611ce5575085600c60003373ffffffffffffffffffffffffffffffffffffffff1673ffffffffffffffffffffffffffffffffffffffff16815260200190815260200160002054115b611cee57600080fd5b85600c60003373ffffffffffffffffffffffffffffffffffffffff1673ffffffffffffffffffffffffffffffffffffffff16815260200190815260200160002054611d39919061266d565b600c60003373ffffffffffffffffffffffffffffffffffffffff1673ffffffffffffffffffffffffffffffffffffffff1681526020019081526020016000208190555085600c60008973ffffffffffffffffffffffffffffffffffffffff1673ffffffffffffffffffffffffffffffffffffffff16815260200190815260200160002054611dc791906126a1565b600c60008973ffffffffffffffffffffffffffffffffffffffff1673ffffffffffffffffffffffffffffffffffffffff168152602001908152602001600020819055508673ffffffffffffffffffffffffffffffffffffffff163373ffffffffffffffffffffffffffffffffffffffff167fddf252ad1be2c89b69c2b068fc378daa952ba7f163c4a11628f55a4df523b3ef88604051611e67919061243b565b60405180910390a3600194505050505092915050565b6000600d60008473ffffffffffffffffffffffffffffffffffffffff1673ffffffffffffffffffffffffffffffffffffffff16815260200190815260200160002060008373ffffffffffffffffffffffffffffffffffffffff1673ffffffffffffffffffffffffffffffffffffffff16815260200190815260200160002054905092915050565b6040518060400160405280600781526020017f535543434553530000000000000000000000000000000000000000000000000081525081565b600560009054906101000a900473ffffffffffffffffffffffffffffffffffffffff1673ffffffffffffffffffffffffffffffffffffffff163373ffffffffffffffffffffffffffffffffffffffff1614611f9757600080fd5b80600560006101000a81548173ffffffffffffffffffffffffffffffffffffffff021916908373ffffffffffffffffffffffffffffffffffffffff16021790555050565b6000600760008373ffffffffffffffffffffffffffffffffffffffff1673ffffffffffffffffffffffffffffffffffffffff16815260200190815260200160002060009054906101000a900460ff169050919050565b600181565b600033905090565b600073ffffffffffffffffffffffffffffffffffffffff168373ffffffffffffffffffffffffffffffffffffffff16036120ad576040517f08c379a00000000000000000000000000000000000000000000000000000000081526004016120a490612802565b60405180910390fd5b600073ffffffffffffffffffffffffffffffffffffffff168273ffffffffffffffffffffffffffffffffffffffff160361211c576040517f08c379a000000000000000000000000000000000000000000000000000000000815260040161211390612894565b60405180910390fd5b80600160008573ffffffffffffffffffffffffffffffffffffffff1673ffffffffffffffffffffffffffffffffffffffff16815260200190815260200160002060008473ffffffffffffffffffffffffffffffffffffffff1673ffffffffffffffffffffffffffffffffffffffff168152602001908152602001600020819055508173ffffffffffffffffffffffffffffffffffffffff168373ffffffffffffffffffffffffffffffffffffffff167f8c5be1e5ebec7d5bd14f71427d1e84f3dd0314c0f7b2291e5b200ac8c7c3b925836040516121fa919061243b565b60405180910390a3505050565b600081519050919050565b600082825260208201905092915050565b60005b83811015612241578082015181840152602081019050612226565b60008484015250505050565b6000601f19601f8301169050919050565b600061226982612207565b6122738185612212565b9350612283818560208601612223565b61228c8161224d565b840191505092915050565b600060208201905081810360008301526122b1818461225e565b905092915050565b600080fd5b600073ffffffffffffffffffffffffffffffffffffffff82169050919050565b60006122e9826122be565b9050919050565b6122f9816122de565b811461230457600080fd5b50565b600081359050612316816122f0565b92915050565b6000819050919050565b61232f8161231c565b811461233a57600080fd5b50565b60008135905061234c81612326565b92915050565b60008060408385031215612369576123686122b9565b5b600061237785828601612307565b92505060206123888582860161233d565b9150509250929050565b60008115159050919050565b6123a781612392565b82525050565b60006020820190506123c2600083018461239e565b92915050565b600060ff82169050919050565b6123de816123c8565b82525050565b60006020820190506123f960008301846123d5565b92915050565b600060208284031215612415576124146122b9565b5b600061242384828501612307565b91505092915050565b6124358161231c565b82525050565b6000602082019050612450600083018461242c565b92915050565b61245f816122de565b82525050565b600060608201905061247a6000830186612456565b818103602083015261248c818561225e565b905081810360408301526124a0818461225e565b9050949350505050565b6000806000606084860312156124c3576124c26122b9565b5b60006124d186828701612307565b93505060206124e286828701612307565b92505060406124f38682870161233d565b9150509250925092565b600060208284031215612513576125126122b9565b5b60006125218482850161233d565b91505092915050565b612533816123c8565b811461253e57600080fd5b50565b6000813590506125508161252a565b92915050565b60006020828403121561256c5761256b6122b9565b5b600061257a84828501612541565b91505092915050565b60006020820190506125986000830184612456565b92915050565b600080604083850312156125b5576125b46122b9565b5b60006125c385828601612307565b92505060206125d485828601612307565b9150509250929050565b7f4e487b7100000000000000000000000000000000000000000000000000000000600052602260045260246000fd5b6000600282049050600182168061262557607f821691505b602082108103612638576126376125de565b5b50919050565b7f4e487b7100000000000000000000000000000000000000000000000000000000600052601160045260246000fd5b60006126788261231c565b91506126838361231c565b925082820390508181111561269b5761269a61263e565b5b92915050565b60006126ac8261231c565b91506126b78361231c565b92508282019050808211156126cf576126ce61263e565b5b92915050565b60006040820190506126ea6000830185612456565b6126f7602083018461242c565b9392505050565b7f45524332303a2064656372656173656420616c6c6f77616e63652062656c6f7760008201527f207a65726f000000000000000000000000000000000000000000000000000000602082015250565b600061275a602583612212565b9150612765826126fe565b604082019050919050565b600060208201905081810360008301526127898161274d565b9050919050565b7f45524332303a20617070726f76652066726f6d20746865207a65726f2061646460008201527f7265737300000000000000000000000000000000000000000000000000000000602082015250565b60006127ec602483612212565b91506127f782612790565b604082019050919050565b6000602082019050818103600083015261281b816127df565b9050919050565b7f45524332303a20617070726f766520746f20746865207a65726f20616464726560008201527f7373000000000000000000000000000000000000000000000000000000000000602082015250565b600061287e602283612212565b915061288982612822565b604082019050919050565b600060208201905081810360008301526128ad81612871565b905091905056fe494c4c4547414c5f5452414e534645525f544f5f44454e595f4c49535445445f41444452455353a26469706673582212206e90e2974ae1337bcb75e981b35a1cb9ebf099bff0d2b295315af38a0fb228b264736f6c63430008120033",
  "immutableReferences": {},
  "source": "//SPDX-License-Identifier:MIT\npragma solidity ^0.8.0;\n\n/**\n *@notice The DlvToken implements the ERC20 token\n *@author brian wu\n *@modifications ian mitchell, Samuel Egemba, Ngunan Jiki\n */ \n\n/**\n * define owner, transfer owner and assign admin\n */\nimport \"@openzeppelin/contracts/token/ERC20/ERC20.sol\";\ncontract owned  {\n    address public owner;\n    mapping(address => bool) admins;\n    constructor (){\n        owner = msg.sender;\n        admins[msg.sender] = true;\n    }\n\n    modifier onlyOwner {\n        require(msg.sender == owner);\n    _;\n    }\n\n    modifier onlyAdmin() {\n        require(admins[msg.sender] == true);\n        _;\n    }\n\n    function transferOwnership(address newOwner) onlyOwner public {\n        owner = newOwner;\n    }\n\n    function isAdmin(address account) onlyOwner public view returns (bool) {   \n        return admins[account];\n    }\n\n    function addAdmin(address account) onlyOwner public {\n        require(account != address(0) && !admins[account]);             \n        admins[account] = true;    \n    }\n\n    function removeAdmin(address account) onlyOwner public {\n        require(account != address(0) && !admins[account]);\n        admins[account] = true;    \n    }\n}\n\n/**\n * manage allowList \n */\ncontract AllowList is owned {\n    mapping(address => bool) allowList;\n    function addAllowList(address account) onlyAdmin public{\n        require(account != address(0) && !allowList[account]);             \n        allowList[account] = true;    \n    }\n\n    function isAllowList(address account) public view returns (bool) {   \n        return allowList[account];\n    }\n\n    function removeAllowListed(address account) public onlyAdmin {\n        require(account != address(0) && allowList[account]);\n        allowList[account] = false;    \n    }\n}\n\n/**\n * make contract function pausable\n */\ncontract Pausable is owned {\n    event PausedEvt(address account);\n    event UnpausedEvt(address account);\n    bool private paused;\n    constructor ()  {\n        paused = false;\n    }\n\n    modifier whenNotPaused() {\n        require(!paused);\n        _;\n    }\n\n    modifier whenPaused() {\n        require(paused);\n        _;\n    }\n\n    function pause() public onlyAdmin whenNotPaused {\n        paused = true;\n        emit PausedEvt(msg.sender);\n    }\n\n    function unpause() public onlyAdmin whenPaused {\n        paused = false;\n        emit UnpausedEvt(msg.sender);\n    }\n}\n\n/**\n *Interface for ERC20\n */\n\ncontract DLVToken is ERC20, AllowList, Pausable {\n    TokenSummary public tokenSummary;\n    mapping(address => uint256) internal balances;\n    mapping (address => mapping (address => uint256)) internal allowed;\n    uint256 internal _totalSupply;\n    uint8 public constant SUCCESS_CODE = 0;\n    string public constant SUCCESS_MESSAGE = \"SUCCESS\";\n    uint8 public constant DENY_LIST_CODE = 1;\n    string public constant DENY_LIST_ERROR = \"ILLEGAL_TRANSFER_TO_DENY_LISTED_ADDRESS\";\n    \n    event Burn(address from, uint256 value);\n    struct TokenSummary {\n        address initialAccount;\n        string name;\n        string symbol;\n    }\n\n    constructor(string memory name_, string memory symbol_, address initialAccount, uint initialBalance) payable ERC20(name_,  symbol_)  {\n        addAllowList(initialAccount);\n        balances[initialAccount] = initialBalance;\n        _totalSupply = initialBalance;\n        tokenSummary = TokenSummary(initialAccount, name_, symbol_);\n    }\n\n    modifier verify (address from, address to, uint256 value) {\n        uint8 restrictionCode = validateTransferRestricted(to);\n        require(restrictionCode == SUCCESS_CODE, messageHandler(restrictionCode));\n        _;\n    }\n\n    function validateTransferRestricted (address to) public view returns (uint8 restrictionCode) {\n        if (!isAllowList(to)) {\n            restrictionCode = DENY_LIST_CODE;\n        } else {\n            restrictionCode = SUCCESS_CODE;\n        }\n    }\n\n    function messageHandler (uint8 restrictionCode) public pure returns (string memory message) {\n        if (restrictionCode == SUCCESS_CODE) {\n            message = SUCCESS_MESSAGE;\n        } else if(restrictionCode == DENY_LIST_CODE) {\n            message = DENY_LIST_ERROR;\n        }\n    }\n\n    function totalSupply() public override view returns (uint256) {\n       return _totalSupply;\n    }\n\n    function balanceOf(address account) public override view returns (uint256) {\n      return balances[account];\n    }\n\n    function transfer (address to, uint256 value) public override verify(msg.sender, to, value)\n    whenNotPaused  returns (bool success) {\n        require(to != address(0) && balances[msg.sender]> value);\n        balances[msg.sender] = balances[msg.sender] - value;\n        balances[to] = balances[to] + value;\n        emit Transfer(msg.sender, to, value);\n        return true;\n    }\n\n    function transferFrom(address from, address spender,uint256 value) public override verify(from, spender, value) whenNotPaused returns (bool) {\n        require(spender != address(0) && value <= balances[from] && value <= allowed[from][msg.sender]);\n        balances[from] = balances[from] - value;\n        balances[spender] = balances[spender] + value;\n        allowed[from][msg.sender] = allowed[from][msg.sender] - value;\n        emit Transfer(from, spender, value);\n        return true;\n  \t}\n\n\tfunction allowance(address owner,address spender) public override view returns (uint256) {\n   \t\treturn allowed[owner][spender];\n \t}\n\n\tfunction approve(address spender, uint256 value) public override returns (bool) {\n        require(spender != address(0));\n        allowed[msg.sender][spender] = value;\n        emit Approval(msg.sender, spender, value);\n        return true;\n   \t}\n\n\tfunction burn(uint256 value) public whenNotPaused onlyAdmin returns (bool success) {\n\t\trequire(balances[msg.sender] >= value); \n\t\tbalances[msg.sender] -= value; \n\t\t_totalSupply -= value;\n\t\temit Burn(msg.sender, value);\n\t\treturn true;\n\t}\n\t\n\tfunction mint(address account, uint256 value) public whenNotPaused onlyAdmin returns (bool) {\n\t\trequire(account != address(0));\n\t\t_totalSupply = _totalSupply += value;\n\t\tbalances[account] = balances[account] + value;\n\t\temit Transfer(address(0), account, value);\n\t\treturn true;\n  \t}\n\n\tfallback ()  external payable {\trevert();  }\n\n}",
  "sourcePath": "/home/ian/cw2/contracts/DlvToken.sol",
  "compiler": {
    "name": "solc",
    "version": "0.8.18+commit.87f61d96.Emscripten.clang"
  },
  "schemaVersion": "3.4.12",
  "updatedAt": "2023-03-31T12:52:16.209Z",
  "networkType": "ethereum",
  "devdoc": {
    "events": {
      "Approval(address,address,uint256)": {
        "details": "Emitted when the allowance of a `spender` for an `owner` is set by a call to {approve}. `value` is the new allowance."
      },
      "Transfer(address,address,uint256)": {
        "details": "Emitted when `value` tokens are moved from one account (`from`) to another (`to`). Note that `value` may be zero."
      }
    },
    "kind": "dev",
    "methods": {
      "allowance(address,address)": {
        "details": "See {IERC20-allowance}."
      },
      "balanceOf(address)": {
        "details": "See {IERC20-balanceOf}."
      },
      "decimals()": {
        "details": "Returns the number of decimals used to get its user representation. For example, if `decimals` equals `2`, a balance of `505` tokens should be displayed to a user as `5.05` (`505 / 10 ** 2`). Tokens usually opt for a value of 18, imitating the relationship between Ether and Wei. This is the value {ERC20} uses, unless this function is overridden; NOTE: This information is only used for _display_ purposes: it in no way affects any of the arithmetic of the contract, including {IERC20-balanceOf} and {IERC20-transfer}."
      },
      "decreaseAllowance(address,uint256)": {
        "details": "Atomically decreases the allowance granted to `spender` by the caller. This is an alternative to {approve} that can be used as a mitigation for problems described in {IERC20-approve}. Emits an {Approval} event indicating the updated allowance. Requirements: - `spender` cannot be the zero address. - `spender` must have allowance for the caller of at least `subtractedValue`."
      },
      "increaseAllowance(address,uint256)": {
        "details": "Atomically increases the allowance granted to `spender` by the caller. This is an alternative to {approve} that can be used as a mitigation for problems described in {IERC20-approve}. Emits an {Approval} event indicating the updated allowance. Requirements: - `spender` cannot be the zero address."
      },
      "name()": {
        "details": "Returns the name of the token."
      },
      "symbol()": {
        "details": "Returns the symbol of the token, usually a shorter version of the name."
      },
      "totalSupply()": {
        "details": "See {IERC20-totalSupply}."
      }
    },
    "version": 1
  },
  "userdoc": {
    "kind": "user",
    "methods": {},
    "notice": "Interface for ERC20",
    "version": 1
  }
}